{
  "abi": [
    {
      "inputs": [
        {
          "internalType": "uint256",
          "name": "_quorum",
          "type": "uint256"
        },
        {
          "internalType": "uint256",
          "name": "_start",
          "type": "uint256"
        },
        {
          "internalType": "uint256",
          "name": "tenor",
          "type": "uint256"
        },
        {
          "internalType": "uint256",
          "name": "_rate",
          "type": "uint256"
        },
        {
          "internalType": "address[]",
          "name": "_flowAdmins",
          "type": "address[]"
        },
        {
          "internalType": "address[]",
          "name": "_flowWithdrawalAddresses",
          "type": "address[]"
        },
        {
          "internalType": "address[]",
          "name": "_permittedStablecoins",
          "type": "address[]"
        }
      ],
      "stateMutability": "nonpayable",
      "type": "constructor"
    },
    {
      "anonymous": false,
      "inputs": [
        {
          "indexed": false,
          "internalType": "uint256",
          "name": "amt",
          "type": "uint256"
        }
      ],
      "name": "Debug",
      "type": "event"
    },
    {
      "anonymous": false,
      "inputs": [
        {
          "indexed": false,
          "internalType": "address",
          "name": "to",
          "type": "address"
        },
        {
          "indexed": false,
          "internalType": "uint256",
          "name": "amt",
          "type": "uint256"
        }
      ],
      "name": "TokenBurnt",
      "type": "event"
    },
    {
      "anonymous": false,
      "inputs": [
        {
          "indexed": false,
          "internalType": "address",
          "name": "to",
          "type": "address"
        },
        {
          "indexed": false,
          "internalType": "uint256",
          "name": "amt",
          "type": "uint256"
        }
      ],
      "name": "TokenMinted",
      "type": "event"
    },
    {
      "anonymous": false,
      "inputs": [
        {
          "indexed": false,
          "internalType": "address",
          "name": "to",
          "type": "address"
        },
        {
          "indexed": false,
          "internalType": "uint256",
          "name": "amt",
          "type": "uint256"
        }
      ],
      "name": "Withdrawal",
      "type": "event"
    },
    {
      "inputs": [
        {
          "internalType": "address",
          "name": "",
          "type": "address"
        },
        {
          "internalType": "uint256",
          "name": "",
          "type": "uint256"
        }
      ],
      "name": "approvals",
      "outputs": [
        {
          "internalType": "bool",
          "name": "",
          "type": "bool"
        }
      ],
      "stateMutability": "view",
      "type": "function"
    },
    {
      "inputs": [
        {
          "internalType": "address",
          "name": "",
          "type": "address"
        }
      ],
      "name": "availableFunds",
      "outputs": [
        {
          "internalType": "uint256",
          "name": "",
          "type": "uint256"
        }
      ],
      "stateMutability": "view",
      "type": "function"
    },
    {
      "inputs": [],
      "name": "daysToSeconds",
      "outputs": [
        {
          "internalType": "uint256",
          "name": "",
          "type": "uint256"
        }
      ],
      "stateMutability": "view",
      "type": "function"
    },
    {
      "inputs": [],
      "name": "deadline",
      "outputs": [
        {
          "internalType": "uint256",
          "name": "",
          "type": "uint256"
        }
      ],
      "stateMutability": "view",
      "type": "function"
    },
    {
      "inputs": [
        {
          "internalType": "address",
          "name": "_stablecoin",
          "type": "address"
        },
        {
          "internalType": "uint256",
          "name": "_amount",
          "type": "uint256"
        }
      ],
      "name": "deposit",
      "outputs": [],
      "stateMutability": "nonpayable",
      "type": "function"
    },
    {
      "inputs": [],
      "name": "duration",
      "outputs": [
        {
          "internalType": "uint256",
          "name": "",
          "type": "uint256"
        }
      ],
      "stateMutability": "view",
      "type": "function"
    },
    {
      "inputs": [
        {
          "internalType": "address",
          "name": "",
          "type": "address"
        }
      ],
      "name": "flowActivity",
      "outputs": [
        {
          "internalType": "uint256",
          "name": "",
          "type": "uint256"
        }
      ],
      "stateMutability": "view",
      "type": "function"
    },
    {
      "inputs": [
        {
          "internalType": "uint256",
          "name": "",
          "type": "uint256"
        }
      ],
      "name": "flowAdmins",
      "outputs": [
        {
          "internalType": "address",
          "name": "",
          "type": "address"
        }
      ],
      "stateMutability": "view",
      "type": "function"
    },
    {
      "inputs": [],
      "name": "flowCreateRestart",
      "outputs": [],
      "stateMutability": "nonpayable",
      "type": "function"
    },
    {
      "inputs": [],
      "name": "flowCreateStop",
      "outputs": [],
      "stateMutability": "nonpayable",
      "type": "function"
    },
    {
      "inputs": [
        {
          "internalType": "uint256",
          "name": "_amount",
          "type": "uint256"
        },
        {
          "internalType": "address payable",
          "name": "_to",
          "type": "address"
        },
        {
          "internalType": "address",
          "name": "_stablecoin",
          "type": "address"
        }
      ],
      "name": "flowCreateTransfer",
      "outputs": [],
      "stateMutability": "nonpayable",
      "type": "function"
    },
    {
      "inputs": [
        {
          "internalType": "uint256",
          "name": "_amount",
          "type": "uint256"
        },
        {
          "internalType": "address",
          "name": "_stablecoin",
          "type": "address"
        }
      ],
      "name": "flowDeposit",
      "outputs": [],
      "stateMutability": "nonpayable",
      "type": "function"
    },
    {
      "inputs": [],
      "name": "flowReceiptToken",
      "outputs": [
        {
          "internalType": "contract FlowReceiptToken",
          "name": "",
          "type": "address"
        }
      ],
      "stateMutability": "view",
      "type": "function"
    },
    {
      "inputs": [],
      "name": "flowReceiptTokenAddress",
      "outputs": [
        {
          "internalType": "address",
          "name": "",
          "type": "address"
        }
      ],
      "stateMutability": "view",
      "type": "function"
    },
    {
      "inputs": [
        {
          "internalType": "uint256",
          "name": "id",
          "type": "uint256"
        }
      ],
      "name": "flowSetRestart",
      "outputs": [],
      "stateMutability": "nonpayable",
      "type": "function"
    },
    {
      "inputs": [
        {
          "internalType": "uint256",
          "name": "id",
          "type": "uint256"
        }
      ],
      "name": "flowSetStop",
      "outputs": [],
      "stateMutability": "nonpayable",
      "type": "function"
    },
    {
      "inputs": [
        {
          "internalType": "uint256",
          "name": "",
          "type": "uint256"
        }
      ],
      "name": "flowStart",
      "outputs": [
        {
          "internalType": "uint256",
          "name": "id",
          "type": "uint256"
        },
        {
          "internalType": "uint256",
          "name": "approvals",
          "type": "uint256"
        },
        {
          "internalType": "bool",
          "name": "started",
          "type": "bool"
        }
      ],
      "stateMutability": "view",
      "type": "function"
    },
    {
      "inputs": [
        {
          "internalType": "uint256",
          "name": "",
          "type": "uint256"
        }
      ],
      "name": "flowStop",
      "outputs": [
        {
          "internalType": "uint256",
          "name": "id",
          "type": "uint256"
        },
        {
          "internalType": "uint256",
          "name": "approvals",
          "type": "uint256"
        },
        {
          "internalType": "bool",
          "name": "stopped",
          "type": "bool"
        }
      ],
      "stateMutability": "view",
      "type": "function"
    },
    {
      "inputs": [
        {
          "internalType": "uint256",
          "name": "id",
          "type": "uint256"
        }
      ],
      "name": "flowTransferTo",
      "outputs": [],
      "stateMutability": "nonpayable",
      "type": "function"
    },
    {
      "inputs": [
        {
          "internalType": "uint256",
          "name": "",
          "type": "uint256"
        }
      ],
      "name": "flowTransfers",
      "outputs": [
        {
          "internalType": "uint256",
          "name": "id",
          "type": "uint256"
        },
        {
          "internalType": "uint256",
          "name": "amount",
          "type": "uint256"
        },
        {
          "internalType": "address",
          "name": "stablecoin",
          "type": "address"
        },
        {
          "internalType": "address payable",
          "name": "to",
          "type": "address"
        },
        {
          "internalType": "uint256",
          "name": "approvals",
          "type": "uint256"
        },
        {
          "internalType": "bool",
          "name": "sent",
          "type": "bool"
        }
      ],
      "stateMutability": "view",
      "type": "function"
    },
    {
      "inputs": [
        {
          "internalType": "uint256",
          "name": "",
          "type": "uint256"
        }
      ],
      "name": "flowWithdrawalAddresses",
      "outputs": [
        {
          "internalType": "address",
          "name": "",
          "type": "address"
        }
      ],
      "stateMutability": "view",
      "type": "function"
    },
    {
      "inputs": [
        {
          "internalType": "address",
          "name": "",
          "type": "address"
        },
        {
          "internalType": "address",
          "name": "",
          "type": "address"
        }
      ],
      "name": "hasInvested",
      "outputs": [
        {
          "internalType": "bool",
          "name": "",
          "type": "bool"
        }
      ],
      "stateMutability": "view",
      "type": "function"
    },
    {
      "inputs": [
        {
          "internalType": "address",
          "name": "",
          "type": "address"
        },
        {
          "internalType": "address",
          "name": "",
          "type": "address"
        }
      ],
      "name": "investorStake",
      "outputs": [
        {
          "internalType": "uint256",
          "name": "",
          "type": "uint256"
        }
      ],
      "stateMutability": "view",
      "type": "function"
    },
    {
      "inputs": [
        {
          "internalType": "address",
          "name": "",
          "type": "address"
        }
      ],
      "name": "investorStakeRecord",
      "outputs": [
        {
          "internalType": "uint256",
          "name": "id",
          "type": "uint256"
        },
        {
          "internalType": "uint256",
          "name": "amount",
          "type": "uint256"
        },
        {
          "internalType": "address",
          "name": "stablecoin",
          "type": "address"
        },
        {
          "internalType": "uint256",
          "name": "timestamp",
          "type": "uint256"
        },
        {
          "internalType": "bool",
          "name": "isDeposit",
          "type": "bool"
        }
      ],
      "stateMutability": "view",
      "type": "function"
    },
    {
      "inputs": [
        {
          "internalType": "uint256",
          "name": "",
          "type": "uint256"
        }
      ],
      "name": "investors",
      "outputs": [
        {
          "internalType": "address",
          "name": "",
          "type": "address"
        }
      ],
      "stateMutability": "view",
      "type": "function"
    },
    {
      "inputs": [
        {
          "internalType": "address",
          "name": "",
          "type": "address"
        },
        {
          "internalType": "address",
          "name": "",
          "type": "address"
        }
      ],
      "name": "isInvesting",
      "outputs": [
        {
          "internalType": "bool",
          "name": "",
          "type": "bool"
        }
      ],
      "stateMutability": "view",
      "type": "function"
    },
    {
      "inputs": [],
      "name": "nextId",
      "outputs": [
        {
          "internalType": "uint256",
          "name": "",
          "type": "uint256"
        }
      ],
      "stateMutability": "view",
      "type": "function"
    },
    {
      "inputs": [],
      "name": "nextStakeId",
      "outputs": [
        {
          "internalType": "uint256",
          "name": "",
          "type": "uint256"
        }
      ],
      "stateMutability": "view",
      "type": "function"
    },
    {
      "inputs": [
        {
          "internalType": "uint256",
          "name": "",
          "type": "uint256"
        }
      ],
      "name": "permittedStablecoins",
      "outputs": [
        {
          "internalType": "address",
          "name": "",
          "type": "address"
        }
      ],
      "stateMutability": "view",
      "type": "function"
    },
    {
      "inputs": [],
      "name": "quorum",
      "outputs": [
        {
          "internalType": "uint256",
          "name": "",
          "type": "uint256"
        }
      ],
      "stateMutability": "view",
      "type": "function"
    },
    {
      "inputs": [],
      "name": "rate",
      "outputs": [
        {
          "internalType": "uint256",
          "name": "",
          "type": "uint256"
        }
      ],
      "stateMutability": "view",
      "type": "function"
    },
    {
      "inputs": [],
      "name": "secondsInYear",
      "outputs": [
        {
          "internalType": "uint256",
          "name": "",
          "type": "uint256"
        }
      ],
      "stateMutability": "view",
      "type": "function"
    },
    {
      "inputs": [],
      "name": "start",
      "outputs": [
        {
          "internalType": "uint256",
          "name": "",
          "type": "uint256"
        }
      ],
      "stateMutability": "view",
      "type": "function"
    },
    {
      "inputs": [
        {
          "internalType": "address",
          "name": "",
          "type": "address"
        },
        {
          "internalType": "uint256",
          "name": "",
          "type": "uint256"
        }
      ],
      "name": "startApprovals",
      "outputs": [
        {
          "internalType": "bool",
          "name": "",
          "type": "bool"
        }
      ],
      "stateMutability": "view",
      "type": "function"
    },
    {
      "inputs": [],
      "name": "startNextId",
      "outputs": [
        {
          "internalType": "uint256",
          "name": "",
          "type": "uint256"
        }
      ],
      "stateMutability": "view",
      "type": "function"
    },
    {
      "inputs": [],
      "name": "state",
      "outputs": [
        {
          "internalType": "enum Flow.State",
          "name": "",
          "type": "uint8"
        }
      ],
      "stateMutability": "view",
      "type": "function"
    },
    {
      "inputs": [
        {
          "internalType": "address",
          "name": "",
          "type": "address"
        },
        {
          "internalType": "uint256",
          "name": "",
          "type": "uint256"
        }
      ],
      "name": "stopApprovals",
      "outputs": [
        {
          "internalType": "bool",
          "name": "",
          "type": "bool"
        }
      ],
      "stateMutability": "view",
      "type": "function"
    },
    {
      "inputs": [],
      "name": "stopNextId",
      "outputs": [
        {
          "internalType": "uint256",
          "name": "",
          "type": "uint256"
        }
      ],
      "stateMutability": "view",
      "type": "function"
    },
    {
      "inputs": [
        {
          "internalType": "address",
          "name": "_stablecoin",
          "type": "address"
        }
      ],
      "name": "withdraw",
      "outputs": [],
      "stateMutability": "nonpayable",
      "type": "function"
    }
  ],
  "bytecode": "60806040526000805460ff191690553480156200001b57600080fd5b50604051620038c4380380620038c48339810160408190526200003e9162000640565b600483511115620000895760405162461bcd60e51b815260206004820152601060248201526f6d6178696d756d20342061646d696e7360801b60448201526064015b60405180910390fd5b600283511015620000d05760405162461bcd60e51b815260206004820152601060248201526f6d696e696d756d20322061646d696e7360801b604482015260640162000080565b6002871015620001165760405162461bcd60e51b815260206004820152601060248201526f36b4b734b6bab69038bab7b93ab6901960811b604482015260640162000080565b60038711156200015c5760405162461bcd60e51b815260206004820152601060248201526f6d6178696d756d2071756f72756d203360801b604482015260640162000080565b60008511620001ae5760405162461bcd60e51b815260206004820152601c60248201527f74656e6f72206d7573742062652067726561746572207468616e203000000000604482015260640162000080565b6101f48411620001f65760405162461bcd60e51b81526020600482015260126024820152716d696e696d756d207261746520697320352560701b604482015260640162000080565b825187106200025f5760405162461bcd60e51b815260206004820152602e60248201527f71756f72756d206d757374206265206c657373207468616e206e756d6265722060448201526d6f6620666c6f772061646d696e7360901b606482015260840162000080565b8151600214620002b25760405162461bcd60e51b815260206004820181905260248201527f6d75737420686176652032207769746864726177616c20616464726573736573604482015260640162000080565b6000805b8251811015620003125760006001600160a01b0316838281518110620002e057620002e0620006fa565b60200260200101516001600160a01b03161415620002fd57600191505b80620003098162000726565b915050620002b6565b5080156200037b5760405162461bcd60e51b815260206004820152602f60248201527f7065726d697474656420737461626c65636f696e2063616e6e6f74206265207460448201526e6865207a65726f206164647265737360881b606482015260840162000080565b87600f819055506200039f6201518088620004ae60201b62001e0f1790919060201c565b620003ab904262000744565b600155620003c98662015180620004ae602090811b62001e0f17901c565b600154620003d8919062000744565b600281905550620003fc600154600254620004c360201b62001e221790919060201c565b6003556004859055835162000419906011906020870190620004d1565b5082516200042f906013906020860190620004d1565b50815162000445906005906020850190620004d1565b50600060405162000456906200053b565b604051809103906000f08015801562000473573d6000803e3d6000fd5b50600680546001600160a01b039092166001600160a01b0319928316811790915560078054909216179055506200079b975050505050505050565b6000620004bc82846200075f565b9392505050565b6000620004bc828462000781565b82805482825590600052602060002090810192821562000529579160200282015b828111156200052957825182546001600160a01b0319166001600160a01b03909116178255602090920191600190910190620004f2565b506200053792915062000549565b5090565b610f7c806200294883390190565b5b808211156200053757600081556001016200054a565b634e487b7160e01b600052604160045260246000fd5b80516001600160a01b03811681146200058e57600080fd5b919050565b600082601f830112620005a557600080fd5b815160206001600160401b0380831115620005c457620005c462000560565b8260051b604051601f19603f83011681018181108482111715620005ec57620005ec62000560565b6040529384528581018301938381019250878511156200060b57600080fd5b83870191505b848210156200063557620006258262000576565b8352918301919083019062000611565b979650505050505050565b600080600080600080600060e0888a0312156200065c57600080fd5b8751602089015160408a015160608b015160808c0151939a50919850965094506001600160401b03808211156200069257600080fd5b620006a08b838c0162000593565b945060a08a0151915080821115620006b757600080fd5b620006c58b838c0162000593565b935060c08a0151915080821115620006dc57600080fd5b50620006eb8a828b0162000593565b91505092959891949750929550565b634e487b7160e01b600052603260045260246000fd5b634e487b7160e01b600052601160045260246000fd5b60006000198214156200073d576200073d62000710565b5060010190565b600082198211156200075a576200075a62000710565b500190565b60008160001904831182151516156200077c576200077c62000710565b500290565b60008282101562000796576200079662000710565b500390565b61219d80620007ab6000396000f3fe608060405234801561001057600080fd5b506004361061023d5760003560e01c806364304c721161013b578063be9a6555116100b8578063e82969471161007c578063e8296947146105c3578063ecc1a84a14610645578063ed05336d14610673578063fde6396f14610686578063ffabc673146106b857600080fd5b8063be9a65551461054a578063c19d93fb14610553578063c1a94d8a1461056d578063c27a6ce41461059b578063cd1ab5bb146105bb57600080fd5b80638a606a1c116100ff5780638a606a1c1461041b57806390467b151461042e5780639d914f0a14610441578063a92f51b9146104d0578063ae5615e1146104fb57600080fd5b806364304c72146103b557806366c8ed92146103e357806373884f47146103f657806375506c96146104095780637f99a6201461041257600080fd5b80633ea6713e116101c957806351cff8d91161018d57806351cff8d91461036757806358324f741461037a5780635d16eb5c1461038257806361b8ce8c146103a257806361e4e975146103ab57600080fd5b80633ea6713e146102e85780633feb5f2b146102f057806347e7ef24146103035780634b745c36146103165780634d5571061461035457600080fd5b806329dcb0cf1161021057806329dcb0cf1461028f5780632b620bac146102985780632c4e722e146102ab5780633aa3b160146102b45780633d0940e8146102df57600080fd5b8063086427e0146102425780630fb5a6b4146102575780631703a0181461027357806327515bf81461027c575b600080fd5b610255610250366004611e99565b6106e6565b005b61026060035481565b6040519081526020015b60405180910390f35b610260600f5481565b61025561028a366004611edb565b610a00565b61026060025481565b6102556102a6366004611ef4565b610bd6565b61026060045481565b6102c76102c2366004611edb565b610e9d565b6040516001600160a01b03909116815260200161026a565b61026060185481565b610260610ec7565b6102c76102fe366004611edb565b610ed9565b610255610311366004611f24565b610ee9565b610344610324366004611f50565b600960209081526000928352604080842090915290825290205460ff1681565b604051901515815260200161026a565b6102c7610362366004611edb565b61139f565b610255610375366004611f7e565b6113af565b61025561171b565b610260610390366004611f7e565b600d6020526000908152604090205481565b61026060145481565b6102606201518081565b6103446103c3366004611f24565b601a60209081526000928352604080842090915290825290205460ff1681565b6102556103f1366004611edb565b61182c565b6007546102c7906001600160a01b031681565b610260600e5481565b610260601b5481565b6006546102c7906001600160a01b031681565b61025561043c366004611edb565b611a24565b61049461044f366004611edb565b601060205260009081526040902080546001820154600283015460038401546004850154600590950154939492936001600160a01b0392831693919092169160ff1686565b6040805196875260208701959095526001600160a01b0393841694860194909452911660608401526080830152151560a082015260c00161026a565b6102606104de366004611f50565b600b60209081526000928352604080842090915290825290205481565b61052d610509366004611edb565b60196020526000908152604090208054600182015460029092015490919060ff1683565b60408051938452602084019290925215159082015260600161026a565b61026060015481565b6000546105609060ff1681565b60405161026a9190611fb1565b61034461057b366004611f24565b601760209081526000928352604080842090915290825290205460ff1681565b6102606105a9366004611f7e565b60156020526000908152604090205481565b610255611ccc565b61060d6105d1366004611f7e565b600c6020526000908152604090208054600182015460028301546003840154600490940154929391926001600160a01b03909116919060ff1685565b6040805195865260208601949094526001600160a01b039092169284019290925260608301919091521515608082015260a00161026a565b610344610653366004611f50565b600a60209081526000928352604080842090915290825290205460ff1681565b6102c7610681366004611edb565b611dff565b61052d610694366004611edb565b60166020526000908152604090208054600182015460029092015490919060ff1683565b6103446106c6366004611f24565b601260209081526000928352604080842090915290825290205460ff1681565b806000805b60055481101561073e576005818154811061070857610708611fd9565b6000918252602090912001546001600160a01b038481169116141561072c57600191505b8061073681612005565b9150506106eb565b50806107655760405162461bcd60e51b815260040161075c90612020565b60405180910390fd5b6000805b6011548110156107c257336001600160a01b03166011828154811061079057610790611fd9565b6000918252602090912001546001600160a01b031614156107b057600191505b806107ba81612005565b915050610769565b50806107e05760405162461bcd60e51b815260040161075c90612057565b6000805b601354811015610837576013818154811061080157610801611fd9565b6000918252602090912001546001600160a01b038881169116141561082557600191505b8061082f81612005565b9150506107e4565b5060018115151461088a5760405162461bcd60e51b815260206004820181905260248201527f7769746864726177616c2061646472657373206973206e6f74206c6973746564604482015260640161075c565b6040516370a0823160e01b8152306004820152859088906001600160a01b038316906370a0823190602401602060405180830381865afa1580156108d2573d6000803e3d6000fd5b505050506040513d601f19601f820116820180604052508101906108f6919061208e565b116109435760405162461bcd60e51b815260206004820152601e60248201527f696e737566666963656e7420737461626c65636f696e2062616c616e63650000604482015260640161075c565b6040805160c0810182526014805480835260208084018d81526001600160a01b038c81168688019081528e82166060880190815260006080890181815260a08a0182815297825260109096529889209751885592516001880155516002870180546001600160a01b031990811692841692909217905591516003870180549093169116179055516004840155516005909201805460ff1916921515929092179091558054916109f183612005565b91905055505050505050505050565b6000805b601154811015610a5d57336001600160a01b031660118281548110610a2b57610a2b611fd9565b6000918252602090912001546001600160a01b03161415610a4b57600191505b80610a5581612005565b915050610a04565b5080610a7b5760405162461bcd60e51b815260040161075c90612057565b6000805460ff166001811115610a9357610a93611f9b565b14610ab05760405162461bcd60e51b815260040161075c906120a7565b60008281526016602052604090206002015460ff1615610b255760405162461bcd60e51b815260206004820152602a60248201527f73746174652068617320617265616479206265656e20737769746368656420746044820152696f20494e41435449564560b01b606482015260840161075c565b33600090815260176020908152604080832085845290915290205460ff16610b89573360009081526017602090815260408083208584528252808320805460ff191660019081179091556016909252822001805491610b8383612005565b91905055505b600f5460008381526016602052604090206001015410610bd25760008281526016602052604081206002018054600160ff19918216811790925582549192911682805b02179055505b5050565b806000805b600554811015610c2e5760058181548110610bf857610bf8611fd9565b6000918252602090912001546001600160a01b0384811691161415610c1c57600191505b80610c2681612005565b915050610bdb565b5080610c4c5760405162461bcd60e51b815260040161075c90612020565b6000805b601154811015610ca957336001600160a01b031660118281548110610c7757610c77611fd9565b6000918252602090912001546001600160a01b03161415610c9757600191505b80610ca181612005565b915050610c50565b5080610cc75760405162461bcd60e51b815260040161075c90612057565b60008511610d0c5760405162461bcd60e51b81526020600482015260126024820152710616d6f756e742063616e6e6f7420626520360741b604482015260640161075c565b6040516370a0823160e01b815233600482015285906001600160a01b038616906370a0823190602401602060405180830381865afa158015610d52573d6000803e3d6000fd5b505050506040513d601f19601f82011682018060405250810190610d76919061208e565b1015610dc45760405162461bcd60e51b815260206004820152601e60248201527f696e737566666369656e7420737461626c65636f696e2062616c616e63650000604482015260640161075c565b6040516323b872dd60e01b8152336004820152306024820152604481018690526001600160a01b038516906323b872dd906064016020604051808303816000875af1158015610e17573d6000803e3d6000fd5b505050506040513d601f19601f82011682018060405250810190610e3b91906120d5565b506001600160a01b03841660009081526015602052604081208054879290610e649084906120f7565b90915550506001600160a01b0384166000908152600d602052604081208054879290610e9190849061210e565b90915550505050505050565b60058181548110610ead57600080fd5b6000918252602090912001546001600160a01b0316905081565b610ed66201518061016d612126565b81565b60088181548110610ead57600080fd5b816000805b600554811015610f415760058181548110610f0b57610f0b611fd9565b6000918252602090912001546001600160a01b0384811691161415610f2f57600191505b80610f3981612005565b915050610eee565b5080610f5f5760405162461bcd60e51b815260040161075c90612020565b6000805460ff166001811115610f7757610f77611f9b565b14610f945760405162461bcd60e51b815260040161075c906120a7565b6001544210610fd95760405162461bcd60e51b8152602060048201526011602482015270199d5b99081cdd185c9d081c185cdcd959607a1b604482015260640161075c565b6000831161101e5760405162461bcd60e51b81526020600482015260126024820152710616d6f756e742063616e6e6f7420626520360741b604482015260640161075c565b6040516370a0823160e01b815233600482015283906001600160a01b038616906370a0823190602401602060405180830381865afa158015611064573d6000803e3d6000fd5b505050506040513d601f19601f82011682018060405250810190611088919061208e565b10156110d65760405162461bcd60e51b815260206004820152601e60248201527f696e737566666369656e7420737461626c65636f696e2062616c616e63650000604482015260640161075c565b6040516323b872dd60e01b8152336004820152306024820152604481018490526001600160a01b038516906323b872dd906064016020604051808303816000875af1158015611129573d6000803e3d6000fd5b505050506040513d601f19601f8201168201806040525081019061114d91906120d5565b506040805160a081018252600e54815260208082018681526001600160a01b038881168486018181524260608701908152600160808801818152336000818152600c8a528b81209a518b559751928a019290925592516002890180546001600160a01b0319169190961617909455516003870155516004909501805460ff191695151595909517909455928152600b825283812092815291905290812080548592906111fa90849061210e565b9091555050600e805490600061120f83612005565b90915550506001600160a01b0384166000908152600d60205260408120805485929061123c90849061210e565b90915550506001600160a01b038416600090815260096020908152604080832033845290915290205460ff166112af57600880546001810182556000919091527ff3f7a9fe364faab93b216da50a3214154f22a0a2b415b23a84c8169e8b636ee30180546001600160a01b031916331790555b6001600160a01b038481166000818152600a60209081526040808320338085529083528184208054600160ff1991821681179092559585526009845282852082865290935292819020805490941690911790925560065491516340c10f1960e01b81526004810191909152602481018690529116906340c10f1990604401600060405180830381600087803b15801561134757600080fd5b505af115801561135b573d6000803e3d6000fd5b505060408051338152602081018790527fb9144c96c86541f6fa89c9f2f02495cccf4b08cd6643e26d34ee00aa586558a8935001905060405180910390a150505050565b60118181548110610ead57600080fd5b6000805460ff1660018111156113c7576113c7611f9b565b146113e45760405162461bcd60e51b815260040161075c906120a7565b6002544210156114365760405162461bcd60e51b815260206004820152601d60248201527f646561646c696e6520686173206e6f74206265656e2072656163686564000000604482015260640161075c565b6001600160a01b0381166000908152600b60209081526040808320338452909152902054806114a75760405162461bcd60e51b815260206004820152601d60248201527f696e73756666696369656e7420696e766573746f722062616c616e6365000000604482015260640161075c565b816001600160a01b031663a9059cbb336114c084611e2e565b6114ca908561210e565b6040516001600160e01b031960e085901b1681526001600160a01b03909216600483015260248201526044016020604051808303816000875af1158015611515573d6000803e3d6000fd5b505050506040513d601f19601f8201168201806040525081019061153991906120d5565b506040805160a081018252600e54815260208082018481526001600160a01b03868116848601818152426060870190815260006080880181815233808352600c89528a832099518a55965160018a015592516002890180546001600160a01b0319169190961617909455516003870155516004909501805460ff191695151595909517909455928352600b8252838320908352905290812080548392906115e19084906120f7565b9091555050600e80549060006115f683612005565b90915550506001600160a01b0382166000908152600d6020526040812080548392906116239084906120f7565b9091555050600654604051632770a7eb60e21b8152336004820152602481018390526001600160a01b0390911690639dc29fac90604401600060405180830381600087803b15801561167457600080fd5b505af1158015611688573d6000803e3d6000fd5b505060408051338152602081018590527f1011952107dd9857c3fc7ee54aaef4f9565140a58923d80c6e15162f7d40a415935001905060405180910390a16001600160a01b0382166000908152600b60209081526040808320338452909152902054610bd257506001600160a01b03166000908152600a602090815260408083203384529091529020805460ff19169055565b6000805b60115481101561177857336001600160a01b03166011828154811061174657611746611fd9565b6000918252602090912001546001600160a01b0316141561176657600191505b8061177081612005565b91505061171f565b50806117965760405162461bcd60e51b815260040161075c90612057565b6000805460ff1660018111156117ae576117ae611f9b565b146117cb5760405162461bcd60e51b815260040161075c906120a7565b60408051606081018252601880548083526000602080850182815285870183815293835260169091529481209351845593516001840155516002909201805460ff19169215159290921790915580549161182483612005565b919050555050565b6000805b60115481101561188957336001600160a01b03166011828154811061185757611857611fd9565b6000918252602090912001546001600160a01b0316141561187757600191505b8061188181612005565b915050611830565b50806118a75760405162461bcd60e51b815260040161075c90612057565b600160005460ff1660018111156118c0576118c0611f9b565b146119065760405162461bcd60e51b81526020600482015260166024820152757374617465206d75737420626520494e41435449564560501b604482015260640161075c565b60008281526019602052604090206002015460ff16156119795760405162461bcd60e51b815260206004820152602860248201527f73746174652068617320617265616479206265656e20737769746368656420746044820152676f2041435449564560c01b606482015260840161075c565b336000908152601a6020908152604080832085845290915290205460ff166119dd57336000908152601a602090815260408083208584528252808320805460ff1916600190811790915560199092528220018054916119d783612005565b91905055505b600f5460008381526019602052604090206001015410610bd25760008281526019602052604081206002018054600160ff1991821681179092558254839291169082610bcc565b6000805b601154811015611a8157336001600160a01b031660118281548110611a4f57611a4f611fd9565b6000918252602090912001546001600160a01b03161415611a6f57600191505b80611a7981612005565b915050611a28565b5080611a9f5760405162461bcd60e51b815260040161075c90612057565b60008281526010602052604090206005015460ff1615611b015760405162461bcd60e51b815260206004820152601e60248201527f7472616e736665722068617320616c7265616479206265656e2073656e740000604482015260640161075c565b33600090815260126020908152604080832085845290915290205460ff16611b64573360009081526012602090815260408083208584528252808320805460ff1916600117905560109091528120600401805491611b5e83612005565b91905055505b600f5460008381526010602052604090206004015410610bd2576000828152601060205260409081902060058101805460ff19166001908117909155600382015490820154600290920154925163a9059cbb60e01b81526001600160a01b039182166004820181905260248201849052939190911690819063a9059cbb906044016020604051808303816000875af1158015611c04573d6000803e3d6000fd5b505050506040513d601f19601f82011682018060405250810190611c2891906120d5565b506001600160a01b03811660009081526015602052604081208054849290611c5190849061210e565b90915550506001600160a01b0381166000908152600d602052604081208054849290611c7e9084906120f7565b9091555050604080516001600160a01b0385168152602081018490527f7fcf532c15f0a6db0bd6d0e038bea71d30d808c7d98cb3bf7268a95bf5081b65910160405180910390a15050505050565b6000805b601154811015611d2957336001600160a01b031660118281548110611cf757611cf7611fd9565b6000918252602090912001546001600160a01b03161415611d1757600191505b80611d2181612005565b915050611cd0565b5080611d475760405162461bcd60e51b815260040161075c90612057565b600160005460ff166001811115611d6057611d60611f9b565b14611da65760405162461bcd60e51b81526020600482015260166024820152757374617465206d75737420626520494e41435449564560501b604482015260640161075c565b60408051606081018252601b80548083526000602080850182815285870183815293835260199091529481209351845593516001840155516002909201805460ff19169215159290921790915580549161182483612005565b60138181548110610ead57600080fd5b6000611e1b8284612126565b9392505050565b6000611e1b82846120f7565b6000611e6f611e426201518061016d612126565b611e63600354611e69612710611e6360045489611e0f90919063ffffffff16565b90611e75565b90611e0f565b92915050565b6000611e1b8284612145565b6001600160a01b0381168114611e9657600080fd5b50565b600080600060608486031215611eae57600080fd5b833592506020840135611ec081611e81565b91506040840135611ed081611e81565b809150509250925092565b600060208284031215611eed57600080fd5b5035919050565b60008060408385031215611f0757600080fd5b823591506020830135611f1981611e81565b809150509250929050565b60008060408385031215611f3757600080fd5b8235611f4281611e81565b946020939093013593505050565b60008060408385031215611f6357600080fd5b8235611f6e81611e81565b91506020830135611f1981611e81565b600060208284031215611f9057600080fd5b8135611e1b81611e81565b634e487b7160e01b600052602160045260246000fd5b6020810160028310611fd357634e487b7160e01b600052602160045260246000fd5b91905290565b634e487b7160e01b600052603260045260246000fd5b634e487b7160e01b600052601160045260246000fd5b600060001982141561201957612019611fef565b5060010190565b6020808252601a908201527f6f6e6c79207065726d697474656420737461626c65636f696e73000000000000604082015260600190565b60208082526018908201527f6f6e6c7920666c6f772061646d696e7320616c6c6f7765640000000000000000604082015260600190565b6000602082840312156120a057600080fd5b5051919050565b6020808252601490820152737374617465206d7573742062652041435449564560601b604082015260600190565b6000602082840312156120e757600080fd5b81518015158114611e1b57600080fd5b60008282101561210957612109611fef565b500390565b6000821982111561212157612121611fef565b500190565b600081600019048311821515161561214057612140611fef565b500290565b60008261216257634e487b7160e01b600052601260045260246000fd5b50049056fea264697066735822122033a0313e8edf5e72082420af4ed69a287e848543f015e3256bb79441beb4ce0964736f6c634300080b003360806040523480156200001157600080fd5b5060405180604001604052806012815260200171233637bb902932b1b2b4b83a102a37b5b2b760711b8152506040518060400160405280600381526020016211949560ea1b81525081600390805190602001906200007192919062000100565b5080516200008790600490602084019062000100565b505050620000a46200009e620000aa60201b60201c565b620000ae565b620001e3565b3390565b600580546001600160a01b038381166001600160a01b0319831681179093556040519116919082907f8be0079c531659141344cd1fd0a4f28419497f9722a3daafe3b4186f6b6457e090600090a35050565b8280546200010e90620001a6565b90600052602060002090601f0160209004810192826200013257600085556200017d565b82601f106200014d57805160ff19168380011785556200017d565b828001600101855582156200017d579182015b828111156200017d57825182559160200191906001019062000160565b506200018b9291506200018f565b5090565b5b808211156200018b576000815560010162000190565b600181811c90821680620001bb57607f821691505b60208210811415620001dd57634e487b7160e01b600052602260045260246000fd5b50919050565b610d8980620001f36000396000f3fe608060405234801561001057600080fd5b50600436106101005760003560e01c8063715018a611610097578063a457c2d711610066578063a457c2d714610209578063a9059cbb1461021c578063dd62ed3e1461022f578063f2fde38b1461026857600080fd5b8063715018a6146101cb5780638da5cb5b146101d357806395d89b41146101ee5780639dc29fac146101f657600080fd5b8063313ce567116100d3578063313ce5671461016b578063395093511461017a57806340c10f191461018d57806370a08231146101a257600080fd5b806306fdde0314610105578063095ea7b31461012357806318160ddd1461014657806323b872dd14610158575b600080fd5b61010d61027b565b60405161011a9190610b72565b60405180910390f35b610136610131366004610be3565b61030d565b604051901515815260200161011a565b6002545b60405190815260200161011a565b610136610166366004610c0d565b610323565b6040516012815260200161011a565b610136610188366004610be3565b6103d9565b6101a061019b366004610be3565b610415565b005b61014a6101b0366004610c49565b6001600160a01b031660009081526020819052604090205490565b6101a061044d565b6005546040516001600160a01b03909116815260200161011a565b61010d610483565b6101a0610204366004610be3565b610492565b610136610217366004610be3565b6104c6565b61013661022a366004610be3565b61055f565b61014a61023d366004610c6b565b6001600160a01b03918216600090815260016020908152604080832093909416825291909152205490565b6101a0610276366004610c49565b61056c565b60606003805461028a90610c9e565b80601f01602080910402602001604051908101604052809291908181526020018280546102b690610c9e565b80156103035780601f106102d857610100808354040283529160200191610303565b820191906000526020600020905b8154815290600101906020018083116102e657829003601f168201915b5050505050905090565b600061031a338484610607565b50600192915050565b6001600160a01b038316600090815260016020908152604080832033845290915281205460001981146103c357828110156103b65760405162461bcd60e51b815260206004820152602860248201527f45524332303a207472616e7366657220616d6f756e74206578636565647320616044820152676c6c6f77616e636560c01b60648201526084015b60405180910390fd5b6103c38533858403610607565b6103ce85858561072c565b506001949350505050565b3360008181526001602090815260408083206001600160a01b0387168452909152812054909161031a918590610410908690610cef565b610607565b6005546001600160a01b0316331461043f5760405162461bcd60e51b81526004016103ad90610d07565b61044982826108fb565b5050565b6005546001600160a01b031633146104775760405162461bcd60e51b81526004016103ad90610d07565b61048160006109da565b565b60606004805461028a90610c9e565b6005546001600160a01b031633146104bc5760405162461bcd60e51b81526004016103ad90610d07565b6104498282610a2c565b3360009081526001602090815260408083206001600160a01b0386168452909152812054828110156105485760405162461bcd60e51b815260206004820152602560248201527f45524332303a2064656372656173656420616c6c6f77616e63652062656c6f77604482015264207a65726f60d81b60648201526084016103ad565b6105553385858403610607565b5060019392505050565b600061031a33848461072c565b6005546001600160a01b031633146105965760405162461bcd60e51b81526004016103ad90610d07565b6001600160a01b0381166105fb5760405162461bcd60e51b815260206004820152602660248201527f4f776e61626c653a206e6577206f776e657220697320746865207a65726f206160448201526564647265737360d01b60648201526084016103ad565b610604816109da565b50565b6001600160a01b0383166106695760405162461bcd60e51b8152602060048201526024808201527f45524332303a20617070726f76652066726f6d20746865207a65726f206164646044820152637265737360e01b60648201526084016103ad565b6001600160a01b0382166106ca5760405162461bcd60e51b815260206004820152602260248201527f45524332303a20617070726f766520746f20746865207a65726f206164647265604482015261737360f01b60648201526084016103ad565b6001600160a01b0383811660008181526001602090815260408083209487168084529482529182902085905590518481527f8c5be1e5ebec7d5bd14f71427d1e84f3dd0314c0f7b2291e5b200ac8c7c3b92591015b60405180910390a3505050565b6001600160a01b0383166107905760405162461bcd60e51b815260206004820152602560248201527f45524332303a207472616e736665722066726f6d20746865207a65726f206164604482015264647265737360d81b60648201526084016103ad565b6001600160a01b0382166107f25760405162461bcd60e51b815260206004820152602360248201527f45524332303a207472616e7366657220746f20746865207a65726f206164647260448201526265737360e81b60648201526084016103ad565b6001600160a01b0383166000908152602081905260409020548181101561086a5760405162461bcd60e51b815260206004820152602660248201527f45524332303a207472616e7366657220616d6f756e7420657863656564732062604482015265616c616e636560d01b60648201526084016103ad565b6001600160a01b038085166000908152602081905260408082208585039055918516815290812080548492906108a1908490610cef565b92505081905550826001600160a01b0316846001600160a01b03167fddf252ad1be2c89b69c2b068fc378daa952ba7f163c4a11628f55a4df523b3ef846040516108ed91815260200190565b60405180910390a350505050565b6001600160a01b0382166109515760405162461bcd60e51b815260206004820152601f60248201527f45524332303a206d696e7420746f20746865207a65726f20616464726573730060448201526064016103ad565b80600260008282546109639190610cef565b90915550506001600160a01b03821660009081526020819052604081208054839290610990908490610cef565b90915550506040518181526001600160a01b038316906000907fddf252ad1be2c89b69c2b068fc378daa952ba7f163c4a11628f55a4df523b3ef9060200160405180910390a35050565b600580546001600160a01b038381166001600160a01b0319831681179093556040519116919082907f8be0079c531659141344cd1fd0a4f28419497f9722a3daafe3b4186f6b6457e090600090a35050565b6001600160a01b038216610a8c5760405162461bcd60e51b815260206004820152602160248201527f45524332303a206275726e2066726f6d20746865207a65726f206164647265736044820152607360f81b60648201526084016103ad565b6001600160a01b03821660009081526020819052604090205481811015610b005760405162461bcd60e51b815260206004820152602260248201527f45524332303a206275726e20616d6f756e7420657863656564732062616c616e604482015261636560f01b60648201526084016103ad565b6001600160a01b0383166000908152602081905260408120838303905560028054849290610b2f908490610d3c565b90915550506040518281526000906001600160a01b038516907fddf252ad1be2c89b69c2b068fc378daa952ba7f163c4a11628f55a4df523b3ef9060200161071f565b600060208083528351808285015260005b81811015610b9f57858101830151858201604001528201610b83565b81811115610bb1576000604083870101525b50601f01601f1916929092016040019392505050565b80356001600160a01b0381168114610bde57600080fd5b919050565b60008060408385031215610bf657600080fd5b610bff83610bc7565b946020939093013593505050565b600080600060608486031215610c2257600080fd5b610c2b84610bc7565b9250610c3960208501610bc7565b9150604084013590509250925092565b600060208284031215610c5b57600080fd5b610c6482610bc7565b9392505050565b60008060408385031215610c7e57600080fd5b610c8783610bc7565b9150610c9560208401610bc7565b90509250929050565b600181811c90821680610cb257607f821691505b60208210811415610cd357634e487b7160e01b600052602260045260246000fd5b50919050565b634e487b7160e01b600052601160045260246000fd5b60008219821115610d0257610d02610cd9565b500190565b6020808252818101527f4f776e61626c653a2063616c6c6572206973206e6f7420746865206f776e6572604082015260600190565b600082821015610d4e57610d4e610cd9565b50039056fea2646970667358221220409c11f2f5e5d462193ff1498be69e5667c35319cacd71f926dae03cbb8c934464736f6c634300080b0033",
  "bytecodeSha1": "3fe5dfad8abe39acab37c1502643645a4d1cfa05",
  "compiler": {
    "evm_version": "istanbul",
    "optimizer": {
      "enabled": true,
      "runs": 200
    },
    "version": "0.8.11+commit.d7f03943"
  },
  "contractName": "Flow",
  "language": "Solidity",
  "natspec": {
    "kind": "dev",
    "methods": {},
    "version": 1
  },
  "opcodes": "PUSH1 0x80 PUSH1 0x40 MSTORE CALLVALUE DUP1 ISZERO PUSH2 0x10 JUMPI PUSH1 0x0 DUP1 REVERT JUMPDEST POP PUSH1 0x4 CALLDATASIZE LT PUSH2 0x23D JUMPI PUSH1 0x0 CALLDATALOAD PUSH1 0xE0 SHR DUP1 PUSH4 0x64304C72 GT PUSH2 0x13B JUMPI DUP1 PUSH4 0xBE9A6555 GT PUSH2 0xB8 JUMPI DUP1 PUSH4 0xE8296947 GT PUSH2 0x7C JUMPI DUP1 PUSH4 0xE8296947 EQ PUSH2 0x5C3 JUMPI DUP1 PUSH4 0xECC1A84A EQ PUSH2 0x645 JUMPI DUP1 PUSH4 0xED05336D EQ PUSH2 0x673 JUMPI DUP1 PUSH4 0xFDE6396F EQ PUSH2 0x686 JUMPI DUP1 PUSH4 0xFFABC673 EQ PUSH2 0x6B8 JUMPI PUSH1 0x0 DUP1 REVERT JUMPDEST DUP1 PUSH4 0xBE9A6555 EQ PUSH2 0x54A JUMPI DUP1 PUSH4 0xC19D93FB EQ PUSH2 0x553 JUMPI DUP1 PUSH4 0xC1A94D8A EQ PUSH2 0x56D JUMPI DUP1 PUSH4 0xC27A6CE4 EQ PUSH2 0x59B JUMPI DUP1 PUSH4 0xCD1AB5BB EQ PUSH2 0x5BB JUMPI PUSH1 0x0 DUP1 REVERT JUMPDEST DUP1 PUSH4 0x8A606A1C GT PUSH2 0xFF JUMPI DUP1 PUSH4 0x8A606A1C EQ PUSH2 0x41B JUMPI DUP1 PUSH4 0x90467B15 EQ PUSH2 0x42E JUMPI DUP1 PUSH4 0x9D914F0A EQ PUSH2 0x441 JUMPI DUP1 PUSH4 0xA92F51B9 EQ PUSH2 0x4D0 JUMPI DUP1 PUSH4 0xAE5615E1 EQ PUSH2 0x4FB JUMPI PUSH1 0x0 DUP1 REVERT JUMPDEST DUP1 PUSH4 0x64304C72 EQ PUSH2 0x3B5 JUMPI DUP1 PUSH4 0x66C8ED92 EQ PUSH2 0x3E3 JUMPI DUP1 PUSH4 0x73884F47 EQ PUSH2 0x3F6 JUMPI DUP1 PUSH4 0x75506C96 EQ PUSH2 0x409 JUMPI DUP1 PUSH4 0x7F99A620 EQ PUSH2 0x412 JUMPI PUSH1 0x0 DUP1 REVERT JUMPDEST DUP1 PUSH4 0x3EA6713E GT PUSH2 0x1C9 JUMPI DUP1 PUSH4 0x51CFF8D9 GT PUSH2 0x18D JUMPI DUP1 PUSH4 0x51CFF8D9 EQ PUSH2 0x367 JUMPI DUP1 PUSH4 0x58324F74 EQ PUSH2 0x37A JUMPI DUP1 PUSH4 0x5D16EB5C EQ PUSH2 0x382 JUMPI DUP1 PUSH4 0x61B8CE8C EQ PUSH2 0x3A2 JUMPI DUP1 PUSH4 0x61E4E975 EQ PUSH2 0x3AB JUMPI PUSH1 0x0 DUP1 REVERT JUMPDEST DUP1 PUSH4 0x3EA6713E EQ PUSH2 0x2E8 JUMPI DUP1 PUSH4 0x3FEB5F2B EQ PUSH2 0x2F0 JUMPI DUP1 PUSH4 0x47E7EF24 EQ PUSH2 0x303 JUMPI DUP1 PUSH4 0x4B745C36 EQ PUSH2 0x316 JUMPI DUP1 PUSH4 0x4D557106 EQ PUSH2 0x354 JUMPI PUSH1 0x0 DUP1 REVERT JUMPDEST DUP1 PUSH4 0x29DCB0CF GT PUSH2 0x210 JUMPI DUP1 PUSH4 0x29DCB0CF EQ PUSH2 0x28F JUMPI DUP1 PUSH4 0x2B620BAC EQ PUSH2 0x298 JUMPI DUP1 PUSH4 0x2C4E722E EQ PUSH2 0x2AB JUMPI DUP1 PUSH4 0x3AA3B160 EQ PUSH2 0x2B4 JUMPI DUP1 PUSH4 0x3D0940E8 EQ PUSH2 0x2DF JUMPI PUSH1 0x0 DUP1 REVERT JUMPDEST DUP1 PUSH4 0x86427E0 EQ PUSH2 0x242 JUMPI DUP1 PUSH4 0xFB5A6B4 EQ PUSH2 0x257 JUMPI DUP1 PUSH4 0x1703A018 EQ PUSH2 0x273 JUMPI DUP1 PUSH4 0x27515BF8 EQ PUSH2 0x27C JUMPI JUMPDEST PUSH1 0x0 DUP1 REVERT JUMPDEST PUSH2 0x255 PUSH2 0x250 CALLDATASIZE PUSH1 0x4 PUSH2 0x1E99 JUMP JUMPDEST PUSH2 0x6E6 JUMP JUMPDEST STOP JUMPDEST PUSH2 0x260 PUSH1 0x3 SLOAD DUP2 JUMP JUMPDEST PUSH1 0x40 MLOAD SWAP1 DUP2 MSTORE PUSH1 0x20 ADD JUMPDEST PUSH1 0x40 MLOAD DUP1 SWAP2 SUB SWAP1 RETURN JUMPDEST PUSH2 0x260 PUSH1 0xF SLOAD DUP2 JUMP JUMPDEST PUSH2 0x255 PUSH2 0x28A CALLDATASIZE PUSH1 0x4 PUSH2 0x1EDB JUMP JUMPDEST PUSH2 0xA00 JUMP JUMPDEST PUSH2 0x260 PUSH1 0x2 SLOAD DUP2 JUMP JUMPDEST PUSH2 0x255 PUSH2 0x2A6 CALLDATASIZE PUSH1 0x4 PUSH2 0x1EF4 JUMP JUMPDEST PUSH2 0xBD6 JUMP JUMPDEST PUSH2 0x260 PUSH1 0x4 SLOAD DUP2 JUMP JUMPDEST PUSH2 0x2C7 PUSH2 0x2C2 CALLDATASIZE PUSH1 0x4 PUSH2 0x1EDB JUMP JUMPDEST PUSH2 0xE9D JUMP JUMPDEST PUSH1 0x40 MLOAD PUSH1 0x1 PUSH1 0x1 PUSH1 0xA0 SHL SUB SWAP1 SWAP2 AND DUP2 MSTORE PUSH1 0x20 ADD PUSH2 0x26A JUMP JUMPDEST PUSH2 0x260 PUSH1 0x18 SLOAD DUP2 JUMP JUMPDEST PUSH2 0x260 PUSH2 0xEC7 JUMP JUMPDEST PUSH2 0x2C7 PUSH2 0x2FE CALLDATASIZE PUSH1 0x4 PUSH2 0x1EDB JUMP JUMPDEST PUSH2 0xED9 JUMP JUMPDEST PUSH2 0x255 PUSH2 0x311 CALLDATASIZE PUSH1 0x4 PUSH2 0x1F24 JUMP JUMPDEST PUSH2 0xEE9 JUMP JUMPDEST PUSH2 0x344 PUSH2 0x324 CALLDATASIZE PUSH1 0x4 PUSH2 0x1F50 JUMP JUMPDEST PUSH1 0x9 PUSH1 0x20 SWAP1 DUP2 MSTORE PUSH1 0x0 SWAP3 DUP4 MSTORE PUSH1 0x40 DUP1 DUP5 KECCAK256 SWAP1 SWAP2 MSTORE SWAP1 DUP3 MSTORE SWAP1 KECCAK256 SLOAD PUSH1 0xFF AND DUP2 JUMP JUMPDEST PUSH1 0x40 MLOAD SWAP1 ISZERO ISZERO DUP2 MSTORE PUSH1 0x20 ADD PUSH2 0x26A JUMP JUMPDEST PUSH2 0x2C7 PUSH2 0x362 CALLDATASIZE PUSH1 0x4 PUSH2 0x1EDB JUMP JUMPDEST PUSH2 0x139F JUMP JUMPDEST PUSH2 0x255 PUSH2 0x375 CALLDATASIZE PUSH1 0x4 PUSH2 0x1F7E JUMP JUMPDEST PUSH2 0x13AF JUMP JUMPDEST PUSH2 0x255 PUSH2 0x171B JUMP JUMPDEST PUSH2 0x260 PUSH2 0x390 CALLDATASIZE PUSH1 0x4 PUSH2 0x1F7E JUMP JUMPDEST PUSH1 0xD PUSH1 0x20 MSTORE PUSH1 0x0 SWAP1 DUP2 MSTORE PUSH1 0x40 SWAP1 KECCAK256 SLOAD DUP2 JUMP JUMPDEST PUSH2 0x260 PUSH1 0x14 SLOAD DUP2 JUMP JUMPDEST PUSH2 0x260 PUSH3 0x15180 DUP2 JUMP JUMPDEST PUSH2 0x344 PUSH2 0x3C3 CALLDATASIZE PUSH1 0x4 PUSH2 0x1F24 JUMP JUMPDEST PUSH1 0x1A PUSH1 0x20 SWAP1 DUP2 MSTORE PUSH1 0x0 SWAP3 DUP4 MSTORE PUSH1 0x40 DUP1 DUP5 KECCAK256 SWAP1 SWAP2 MSTORE SWAP1 DUP3 MSTORE SWAP1 KECCAK256 SLOAD PUSH1 0xFF AND DUP2 JUMP JUMPDEST PUSH2 0x255 PUSH2 0x3F1 CALLDATASIZE PUSH1 0x4 PUSH2 0x1EDB JUMP JUMPDEST PUSH2 0x182C JUMP JUMPDEST PUSH1 0x7 SLOAD PUSH2 0x2C7 SWAP1 PUSH1 0x1 PUSH1 0x1 PUSH1 0xA0 SHL SUB AND DUP2 JUMP JUMPDEST PUSH2 0x260 PUSH1 0xE SLOAD DUP2 JUMP JUMPDEST PUSH2 0x260 PUSH1 0x1B SLOAD DUP2 JUMP JUMPDEST PUSH1 0x6 SLOAD PUSH2 0x2C7 SWAP1 PUSH1 0x1 PUSH1 0x1 PUSH1 0xA0 SHL SUB AND DUP2 JUMP JUMPDEST PUSH2 0x255 PUSH2 0x43C CALLDATASIZE PUSH1 0x4 PUSH2 0x1EDB JUMP JUMPDEST PUSH2 0x1A24 JUMP JUMPDEST PUSH2 0x494 PUSH2 0x44F CALLDATASIZE PUSH1 0x4 PUSH2 0x1EDB JUMP JUMPDEST PUSH1 0x10 PUSH1 0x20 MSTORE PUSH1 0x0 SWAP1 DUP2 MSTORE PUSH1 0x40 SWAP1 KECCAK256 DUP1 SLOAD PUSH1 0x1 DUP3 ADD SLOAD PUSH1 0x2 DUP4 ADD SLOAD PUSH1 0x3 DUP5 ADD SLOAD PUSH1 0x4 DUP6 ADD SLOAD PUSH1 0x5 SWAP1 SWAP6 ADD SLOAD SWAP4 SWAP5 SWAP3 SWAP4 PUSH1 0x1 PUSH1 0x1 PUSH1 0xA0 SHL SUB SWAP3 DUP4 AND SWAP4 SWAP2 SWAP1 SWAP3 AND SWAP2 PUSH1 0xFF AND DUP7 JUMP JUMPDEST PUSH1 0x40 DUP1 MLOAD SWAP7 DUP8 MSTORE PUSH1 0x20 DUP8 ADD SWAP6 SWAP1 SWAP6 MSTORE PUSH1 0x1 PUSH1 0x1 PUSH1 0xA0 SHL SUB SWAP4 DUP5 AND SWAP5 DUP7 ADD SWAP5 SWAP1 SWAP5 MSTORE SWAP2 AND PUSH1 0x60 DUP5 ADD MSTORE PUSH1 0x80 DUP4 ADD MSTORE ISZERO ISZERO PUSH1 0xA0 DUP3 ADD MSTORE PUSH1 0xC0 ADD PUSH2 0x26A JUMP JUMPDEST PUSH2 0x260 PUSH2 0x4DE CALLDATASIZE PUSH1 0x4 PUSH2 0x1F50 JUMP JUMPDEST PUSH1 0xB PUSH1 0x20 SWAP1 DUP2 MSTORE PUSH1 0x0 SWAP3 DUP4 MSTORE PUSH1 0x40 DUP1 DUP5 KECCAK256 SWAP1 SWAP2 MSTORE SWAP1 DUP3 MSTORE SWAP1 KECCAK256 SLOAD DUP2 JUMP JUMPDEST PUSH2 0x52D PUSH2 0x509 CALLDATASIZE PUSH1 0x4 PUSH2 0x1EDB JUMP JUMPDEST PUSH1 0x19 PUSH1 0x20 MSTORE PUSH1 0x0 SWAP1 DUP2 MSTORE PUSH1 0x40 SWAP1 KECCAK256 DUP1 SLOAD PUSH1 0x1 DUP3 ADD SLOAD PUSH1 0x2 SWAP1 SWAP3 ADD SLOAD SWAP1 SWAP2 SWAP1 PUSH1 0xFF AND DUP4 JUMP JUMPDEST PUSH1 0x40 DUP1 MLOAD SWAP4 DUP5 MSTORE PUSH1 0x20 DUP5 ADD SWAP3 SWAP1 SWAP3 MSTORE ISZERO ISZERO SWAP1 DUP3 ADD MSTORE PUSH1 0x60 ADD PUSH2 0x26A JUMP JUMPDEST PUSH2 0x260 PUSH1 0x1 SLOAD DUP2 JUMP JUMPDEST PUSH1 0x0 SLOAD PUSH2 0x560 SWAP1 PUSH1 0xFF AND DUP2 JUMP JUMPDEST PUSH1 0x40 MLOAD PUSH2 0x26A SWAP2 SWAP1 PUSH2 0x1FB1 JUMP JUMPDEST PUSH2 0x344 PUSH2 0x57B CALLDATASIZE PUSH1 0x4 PUSH2 0x1F24 JUMP JUMPDEST PUSH1 0x17 PUSH1 0x20 SWAP1 DUP2 MSTORE PUSH1 0x0 SWAP3 DUP4 MSTORE PUSH1 0x40 DUP1 DUP5 KECCAK256 SWAP1 SWAP2 MSTORE SWAP1 DUP3 MSTORE SWAP1 KECCAK256 SLOAD PUSH1 0xFF AND DUP2 JUMP JUMPDEST PUSH2 0x260 PUSH2 0x5A9 CALLDATASIZE PUSH1 0x4 PUSH2 0x1F7E JUMP JUMPDEST PUSH1 0x15 PUSH1 0x20 MSTORE PUSH1 0x0 SWAP1 DUP2 MSTORE PUSH1 0x40 SWAP1 KECCAK256 SLOAD DUP2 JUMP JUMPDEST PUSH2 0x255 PUSH2 0x1CCC JUMP JUMPDEST PUSH2 0x60D PUSH2 0x5D1 CALLDATASIZE PUSH1 0x4 PUSH2 0x1F7E JUMP JUMPDEST PUSH1 0xC PUSH1 0x20 MSTORE PUSH1 0x0 SWAP1 DUP2 MSTORE PUSH1 0x40 SWAP1 KECCAK256 DUP1 SLOAD PUSH1 0x1 DUP3 ADD SLOAD PUSH1 0x2 DUP4 ADD SLOAD PUSH1 0x3 DUP5 ADD SLOAD PUSH1 0x4 SWAP1 SWAP5 ADD SLOAD SWAP3 SWAP4 SWAP2 SWAP3 PUSH1 0x1 PUSH1 0x1 PUSH1 0xA0 SHL SUB SWAP1 SWAP2 AND SWAP2 SWAP1 PUSH1 0xFF AND DUP6 JUMP JUMPDEST PUSH1 0x40 DUP1 MLOAD SWAP6 DUP7 MSTORE PUSH1 0x20 DUP7 ADD SWAP5 SWAP1 SWAP5 MSTORE PUSH1 0x1 PUSH1 0x1 PUSH1 0xA0 SHL SUB SWAP1 SWAP3 AND SWAP3 DUP5 ADD SWAP3 SWAP1 SWAP3 MSTORE PUSH1 0x60 DUP4 ADD SWAP2 SWAP1 SWAP2 MSTORE ISZERO ISZERO PUSH1 0x80 DUP3 ADD MSTORE PUSH1 0xA0 ADD PUSH2 0x26A JUMP JUMPDEST PUSH2 0x344 PUSH2 0x653 CALLDATASIZE PUSH1 0x4 PUSH2 0x1F50 JUMP JUMPDEST PUSH1 0xA PUSH1 0x20 SWAP1 DUP2 MSTORE PUSH1 0x0 SWAP3 DUP4 MSTORE PUSH1 0x40 DUP1 DUP5 KECCAK256 SWAP1 SWAP2 MSTORE SWAP1 DUP3 MSTORE SWAP1 KECCAK256 SLOAD PUSH1 0xFF AND DUP2 JUMP JUMPDEST PUSH2 0x2C7 PUSH2 0x681 CALLDATASIZE PUSH1 0x4 PUSH2 0x1EDB JUMP JUMPDEST PUSH2 0x1DFF JUMP JUMPDEST PUSH2 0x52D PUSH2 0x694 CALLDATASIZE PUSH1 0x4 PUSH2 0x1EDB JUMP JUMPDEST PUSH1 0x16 PUSH1 0x20 MSTORE PUSH1 0x0 SWAP1 DUP2 MSTORE PUSH1 0x40 SWAP1 KECCAK256 DUP1 SLOAD PUSH1 0x1 DUP3 ADD SLOAD PUSH1 0x2 SWAP1 SWAP3 ADD SLOAD SWAP1 SWAP2 SWAP1 PUSH1 0xFF AND DUP4 JUMP JUMPDEST PUSH2 0x344 PUSH2 0x6C6 CALLDATASIZE PUSH1 0x4 PUSH2 0x1F24 JUMP JUMPDEST PUSH1 0x12 PUSH1 0x20 SWAP1 DUP2 MSTORE PUSH1 0x0 SWAP3 DUP4 MSTORE PUSH1 0x40 DUP1 DUP5 KECCAK256 SWAP1 SWAP2 MSTORE SWAP1 DUP3 MSTORE SWAP1 KECCAK256 SLOAD PUSH1 0xFF AND DUP2 JUMP JUMPDEST DUP1 PUSH1 0x0 DUP1 JUMPDEST PUSH1 0x5 SLOAD DUP2 LT ISZERO PUSH2 0x73E JUMPI PUSH1 0x5 DUP2 DUP2 SLOAD DUP2 LT PUSH2 0x708 JUMPI PUSH2 0x708 PUSH2 0x1FD9 JUMP JUMPDEST PUSH1 0x0 SWAP2 DUP3 MSTORE PUSH1 0x20 SWAP1 SWAP2 KECCAK256 ADD SLOAD PUSH1 0x1 PUSH1 0x1 PUSH1 0xA0 SHL SUB DUP5 DUP2 AND SWAP2 AND EQ ISZERO PUSH2 0x72C JUMPI PUSH1 0x1 SWAP2 POP JUMPDEST DUP1 PUSH2 0x736 DUP2 PUSH2 0x2005 JUMP JUMPDEST SWAP2 POP POP PUSH2 0x6EB JUMP JUMPDEST POP DUP1 PUSH2 0x765 JUMPI PUSH1 0x40 MLOAD PUSH3 0x461BCD PUSH1 0xE5 SHL DUP2 MSTORE PUSH1 0x4 ADD PUSH2 0x75C SWAP1 PUSH2 0x2020 JUMP JUMPDEST PUSH1 0x40 MLOAD DUP1 SWAP2 SUB SWAP1 REVERT JUMPDEST PUSH1 0x0 DUP1 JUMPDEST PUSH1 0x11 SLOAD DUP2 LT ISZERO PUSH2 0x7C2 JUMPI CALLER PUSH1 0x1 PUSH1 0x1 PUSH1 0xA0 SHL SUB AND PUSH1 0x11 DUP3 DUP2 SLOAD DUP2 LT PUSH2 0x790 JUMPI PUSH2 0x790 PUSH2 0x1FD9 JUMP JUMPDEST PUSH1 0x0 SWAP2 DUP3 MSTORE PUSH1 0x20 SWAP1 SWAP2 KECCAK256 ADD SLOAD PUSH1 0x1 PUSH1 0x1 PUSH1 0xA0 SHL SUB AND EQ ISZERO PUSH2 0x7B0 JUMPI PUSH1 0x1 SWAP2 POP JUMPDEST DUP1 PUSH2 0x7BA DUP2 PUSH2 0x2005 JUMP JUMPDEST SWAP2 POP POP PUSH2 0x769 JUMP JUMPDEST POP DUP1 PUSH2 0x7E0 JUMPI PUSH1 0x40 MLOAD PUSH3 0x461BCD PUSH1 0xE5 SHL DUP2 MSTORE PUSH1 0x4 ADD PUSH2 0x75C SWAP1 PUSH2 0x2057 JUMP JUMPDEST PUSH1 0x0 DUP1 JUMPDEST PUSH1 0x13 SLOAD DUP2 LT ISZERO PUSH2 0x837 JUMPI PUSH1 0x13 DUP2 DUP2 SLOAD DUP2 LT PUSH2 0x801 JUMPI PUSH2 0x801 PUSH2 0x1FD9 JUMP JUMPDEST PUSH1 0x0 SWAP2 DUP3 MSTORE PUSH1 0x20 SWAP1 SWAP2 KECCAK256 ADD SLOAD PUSH1 0x1 PUSH1 0x1 PUSH1 0xA0 SHL SUB DUP9 DUP2 AND SWAP2 AND EQ ISZERO PUSH2 0x825 JUMPI PUSH1 0x1 SWAP2 POP JUMPDEST DUP1 PUSH2 0x82F DUP2 PUSH2 0x2005 JUMP JUMPDEST SWAP2 POP POP PUSH2 0x7E4 JUMP JUMPDEST POP PUSH1 0x1 DUP2 ISZERO ISZERO EQ PUSH2 0x88A JUMPI PUSH1 0x40 MLOAD PUSH3 0x461BCD PUSH1 0xE5 SHL DUP2 MSTORE PUSH1 0x20 PUSH1 0x4 DUP3 ADD DUP2 SWAP1 MSTORE PUSH1 0x24 DUP3 ADD MSTORE PUSH32 0x7769746864726177616C2061646472657373206973206E6F74206C6973746564 PUSH1 0x44 DUP3 ADD MSTORE PUSH1 0x64 ADD PUSH2 0x75C JUMP JUMPDEST PUSH1 0x40 MLOAD PUSH4 0x70A08231 PUSH1 0xE0 SHL DUP2 MSTORE ADDRESS PUSH1 0x4 DUP3 ADD MSTORE DUP6 SWAP1 DUP9 SWAP1 PUSH1 0x1 PUSH1 0x1 PUSH1 0xA0 SHL SUB DUP4 AND SWAP1 PUSH4 0x70A08231 SWAP1 PUSH1 0x24 ADD PUSH1 0x20 PUSH1 0x40 MLOAD DUP1 DUP4 SUB DUP2 DUP7 GAS STATICCALL ISZERO DUP1 ISZERO PUSH2 0x8D2 JUMPI RETURNDATASIZE PUSH1 0x0 DUP1 RETURNDATACOPY RETURNDATASIZE PUSH1 0x0 REVERT JUMPDEST POP POP POP POP PUSH1 0x40 MLOAD RETURNDATASIZE PUSH1 0x1F NOT PUSH1 0x1F DUP3 ADD AND DUP3 ADD DUP1 PUSH1 0x40 MSTORE POP DUP2 ADD SWAP1 PUSH2 0x8F6 SWAP2 SWAP1 PUSH2 0x208E JUMP JUMPDEST GT PUSH2 0x943 JUMPI PUSH1 0x40 MLOAD PUSH3 0x461BCD PUSH1 0xE5 SHL DUP2 MSTORE PUSH1 0x20 PUSH1 0x4 DUP3 ADD MSTORE PUSH1 0x1E PUSH1 0x24 DUP3 ADD MSTORE PUSH32 0x696E737566666963656E7420737461626C65636F696E2062616C616E63650000 PUSH1 0x44 DUP3 ADD MSTORE PUSH1 0x64 ADD PUSH2 0x75C JUMP JUMPDEST PUSH1 0x40 DUP1 MLOAD PUSH1 0xC0 DUP2 ADD DUP3 MSTORE PUSH1 0x14 DUP1 SLOAD DUP1 DUP4 MSTORE PUSH1 0x20 DUP1 DUP5 ADD DUP14 DUP2 MSTORE PUSH1 0x1 PUSH1 0x1 PUSH1 0xA0 SHL SUB DUP13 DUP2 AND DUP7 DUP9 ADD SWAP1 DUP2 MSTORE DUP15 DUP3 AND PUSH1 0x60 DUP9 ADD SWAP1 DUP2 MSTORE PUSH1 0x0 PUSH1 0x80 DUP10 ADD DUP2 DUP2 MSTORE PUSH1 0xA0 DUP11 ADD DUP3 DUP2 MSTORE SWAP8 DUP3 MSTORE PUSH1 0x10 SWAP1 SWAP7 MSTORE SWAP9 DUP10 KECCAK256 SWAP8 MLOAD DUP9 SSTORE SWAP3 MLOAD PUSH1 0x1 DUP9 ADD SSTORE MLOAD PUSH1 0x2 DUP8 ADD DUP1 SLOAD PUSH1 0x1 PUSH1 0x1 PUSH1 0xA0 SHL SUB NOT SWAP1 DUP2 AND SWAP3 DUP5 AND SWAP3 SWAP1 SWAP3 OR SWAP1 SSTORE SWAP2 MLOAD PUSH1 0x3 DUP8 ADD DUP1 SLOAD SWAP1 SWAP4 AND SWAP2 AND OR SWAP1 SSTORE MLOAD PUSH1 0x4 DUP5 ADD SSTORE MLOAD PUSH1 0x5 SWAP1 SWAP3 ADD DUP1 SLOAD PUSH1 0xFF NOT AND SWAP3 ISZERO ISZERO SWAP3 SWAP1 SWAP3 OR SWAP1 SWAP2 SSTORE DUP1 SLOAD SWAP2 PUSH2 0x9F1 DUP4 PUSH2 0x2005 JUMP JUMPDEST SWAP2 SWAP1 POP SSTORE POP POP POP POP POP POP POP POP POP JUMP JUMPDEST PUSH1 0x0 DUP1 JUMPDEST PUSH1 0x11 SLOAD DUP2 LT ISZERO PUSH2 0xA5D JUMPI CALLER PUSH1 0x1 PUSH1 0x1 PUSH1 0xA0 SHL SUB AND PUSH1 0x11 DUP3 DUP2 SLOAD DUP2 LT PUSH2 0xA2B JUMPI PUSH2 0xA2B PUSH2 0x1FD9 JUMP JUMPDEST PUSH1 0x0 SWAP2 DUP3 MSTORE PUSH1 0x20 SWAP1 SWAP2 KECCAK256 ADD SLOAD PUSH1 0x1 PUSH1 0x1 PUSH1 0xA0 SHL SUB AND EQ ISZERO PUSH2 0xA4B JUMPI PUSH1 0x1 SWAP2 POP JUMPDEST DUP1 PUSH2 0xA55 DUP2 PUSH2 0x2005 JUMP JUMPDEST SWAP2 POP POP PUSH2 0xA04 JUMP JUMPDEST POP DUP1 PUSH2 0xA7B JUMPI PUSH1 0x40 MLOAD PUSH3 0x461BCD PUSH1 0xE5 SHL DUP2 MSTORE PUSH1 0x4 ADD PUSH2 0x75C SWAP1 PUSH2 0x2057 JUMP JUMPDEST PUSH1 0x0 DUP1 SLOAD PUSH1 0xFF AND PUSH1 0x1 DUP2 GT ISZERO PUSH2 0xA93 JUMPI PUSH2 0xA93 PUSH2 0x1F9B JUMP JUMPDEST EQ PUSH2 0xAB0 JUMPI PUSH1 0x40 MLOAD PUSH3 0x461BCD PUSH1 0xE5 SHL DUP2 MSTORE PUSH1 0x4 ADD PUSH2 0x75C SWAP1 PUSH2 0x20A7 JUMP JUMPDEST PUSH1 0x0 DUP3 DUP2 MSTORE PUSH1 0x16 PUSH1 0x20 MSTORE PUSH1 0x40 SWAP1 KECCAK256 PUSH1 0x2 ADD SLOAD PUSH1 0xFF AND ISZERO PUSH2 0xB25 JUMPI PUSH1 0x40 MLOAD PUSH3 0x461BCD PUSH1 0xE5 SHL DUP2 MSTORE PUSH1 0x20 PUSH1 0x4 DUP3 ADD MSTORE PUSH1 0x2A PUSH1 0x24 DUP3 ADD MSTORE PUSH32 0x73746174652068617320617265616479206265656E2073776974636865642074 PUSH1 0x44 DUP3 ADD MSTORE PUSH10 0x6F20494E414354495645 PUSH1 0xB0 SHL PUSH1 0x64 DUP3 ADD MSTORE PUSH1 0x84 ADD PUSH2 0x75C JUMP JUMPDEST CALLER PUSH1 0x0 SWAP1 DUP2 MSTORE PUSH1 0x17 PUSH1 0x20 SWAP1 DUP2 MSTORE PUSH1 0x40 DUP1 DUP4 KECCAK256 DUP6 DUP5 MSTORE SWAP1 SWAP2 MSTORE SWAP1 KECCAK256 SLOAD PUSH1 0xFF AND PUSH2 0xB89 JUMPI CALLER PUSH1 0x0 SWAP1 DUP2 MSTORE PUSH1 0x17 PUSH1 0x20 SWAP1 DUP2 MSTORE PUSH1 0x40 DUP1 DUP4 KECCAK256 DUP6 DUP5 MSTORE DUP3 MSTORE DUP1 DUP4 KECCAK256 DUP1 SLOAD PUSH1 0xFF NOT AND PUSH1 0x1 SWAP1 DUP2 OR SWAP1 SWAP2 SSTORE PUSH1 0x16 SWAP1 SWAP3 MSTORE DUP3 KECCAK256 ADD DUP1 SLOAD SWAP2 PUSH2 0xB83 DUP4 PUSH2 0x2005 JUMP JUMPDEST SWAP2 SWAP1 POP SSTORE POP JUMPDEST PUSH1 0xF SLOAD PUSH1 0x0 DUP4 DUP2 MSTORE PUSH1 0x16 PUSH1 0x20 MSTORE PUSH1 0x40 SWAP1 KECCAK256 PUSH1 0x1 ADD SLOAD LT PUSH2 0xBD2 JUMPI PUSH1 0x0 DUP3 DUP2 MSTORE PUSH1 0x16 PUSH1 0x20 MSTORE PUSH1 0x40 DUP2 KECCAK256 PUSH1 0x2 ADD DUP1 SLOAD PUSH1 0x1 PUSH1 0xFF NOT SWAP2 DUP3 AND DUP2 OR SWAP1 SWAP3 SSTORE DUP3 SLOAD SWAP2 SWAP3 SWAP2 AND DUP3 DUP1 JUMPDEST MUL OR SWAP1 SSTORE POP JUMPDEST POP POP JUMP JUMPDEST DUP1 PUSH1 0x0 DUP1 JUMPDEST PUSH1 0x5 SLOAD DUP2 LT ISZERO PUSH2 0xC2E JUMPI PUSH1 0x5 DUP2 DUP2 SLOAD DUP2 LT PUSH2 0xBF8 JUMPI PUSH2 0xBF8 PUSH2 0x1FD9 JUMP JUMPDEST PUSH1 0x0 SWAP2 DUP3 MSTORE PUSH1 0x20 SWAP1 SWAP2 KECCAK256 ADD SLOAD PUSH1 0x1 PUSH1 0x1 PUSH1 0xA0 SHL SUB DUP5 DUP2 AND SWAP2 AND EQ ISZERO PUSH2 0xC1C JUMPI PUSH1 0x1 SWAP2 POP JUMPDEST DUP1 PUSH2 0xC26 DUP2 PUSH2 0x2005 JUMP JUMPDEST SWAP2 POP POP PUSH2 0xBDB JUMP JUMPDEST POP DUP1 PUSH2 0xC4C JUMPI PUSH1 0x40 MLOAD PUSH3 0x461BCD PUSH1 0xE5 SHL DUP2 MSTORE PUSH1 0x4 ADD PUSH2 0x75C SWAP1 PUSH2 0x2020 JUMP JUMPDEST PUSH1 0x0 DUP1 JUMPDEST PUSH1 0x11 SLOAD DUP2 LT ISZERO PUSH2 0xCA9 JUMPI CALLER PUSH1 0x1 PUSH1 0x1 PUSH1 0xA0 SHL SUB AND PUSH1 0x11 DUP3 DUP2 SLOAD DUP2 LT PUSH2 0xC77 JUMPI PUSH2 0xC77 PUSH2 0x1FD9 JUMP JUMPDEST PUSH1 0x0 SWAP2 DUP3 MSTORE PUSH1 0x20 SWAP1 SWAP2 KECCAK256 ADD SLOAD PUSH1 0x1 PUSH1 0x1 PUSH1 0xA0 SHL SUB AND EQ ISZERO PUSH2 0xC97 JUMPI PUSH1 0x1 SWAP2 POP JUMPDEST DUP1 PUSH2 0xCA1 DUP2 PUSH2 0x2005 JUMP JUMPDEST SWAP2 POP POP PUSH2 0xC50 JUMP JUMPDEST POP DUP1 PUSH2 0xCC7 JUMPI PUSH1 0x40 MLOAD PUSH3 0x461BCD PUSH1 0xE5 SHL DUP2 MSTORE PUSH1 0x4 ADD PUSH2 0x75C SWAP1 PUSH2 0x2057 JUMP JUMPDEST PUSH1 0x0 DUP6 GT PUSH2 0xD0C JUMPI PUSH1 0x40 MLOAD PUSH3 0x461BCD PUSH1 0xE5 SHL DUP2 MSTORE PUSH1 0x20 PUSH1 0x4 DUP3 ADD MSTORE PUSH1 0x12 PUSH1 0x24 DUP3 ADD MSTORE PUSH18 0x616D6F756E742063616E6E6F74206265203 PUSH1 0x74 SHL PUSH1 0x44 DUP3 ADD MSTORE PUSH1 0x64 ADD PUSH2 0x75C JUMP JUMPDEST PUSH1 0x40 MLOAD PUSH4 0x70A08231 PUSH1 0xE0 SHL DUP2 MSTORE CALLER PUSH1 0x4 DUP3 ADD MSTORE DUP6 SWAP1 PUSH1 0x1 PUSH1 0x1 PUSH1 0xA0 SHL SUB DUP7 AND SWAP1 PUSH4 0x70A08231 SWAP1 PUSH1 0x24 ADD PUSH1 0x20 PUSH1 0x40 MLOAD DUP1 DUP4 SUB DUP2 DUP7 GAS STATICCALL ISZERO DUP1 ISZERO PUSH2 0xD52 JUMPI RETURNDATASIZE PUSH1 0x0 DUP1 RETURNDATACOPY RETURNDATASIZE PUSH1 0x0 REVERT JUMPDEST POP POP POP POP PUSH1 0x40 MLOAD RETURNDATASIZE PUSH1 0x1F NOT PUSH1 0x1F DUP3 ADD AND DUP3 ADD DUP1 PUSH1 0x40 MSTORE POP DUP2 ADD SWAP1 PUSH2 0xD76 SWAP2 SWAP1 PUSH2 0x208E JUMP JUMPDEST LT ISZERO PUSH2 0xDC4 JUMPI PUSH1 0x40 MLOAD PUSH3 0x461BCD PUSH1 0xE5 SHL DUP2 MSTORE PUSH1 0x20 PUSH1 0x4 DUP3 ADD MSTORE PUSH1 0x1E PUSH1 0x24 DUP3 ADD MSTORE PUSH32 0x696E737566666369656E7420737461626C65636F696E2062616C616E63650000 PUSH1 0x44 DUP3 ADD MSTORE PUSH1 0x64 ADD PUSH2 0x75C JUMP JUMPDEST PUSH1 0x40 MLOAD PUSH4 0x23B872DD PUSH1 0xE0 SHL DUP2 MSTORE CALLER PUSH1 0x4 DUP3 ADD MSTORE ADDRESS PUSH1 0x24 DUP3 ADD MSTORE PUSH1 0x44 DUP2 ADD DUP7 SWAP1 MSTORE PUSH1 0x1 PUSH1 0x1 PUSH1 0xA0 SHL SUB DUP6 AND SWAP1 PUSH4 0x23B872DD SWAP1 PUSH1 0x64 ADD PUSH1 0x20 PUSH1 0x40 MLOAD DUP1 DUP4 SUB DUP2 PUSH1 0x0 DUP8 GAS CALL ISZERO DUP1 ISZERO PUSH2 0xE17 JUMPI RETURNDATASIZE PUSH1 0x0 DUP1 RETURNDATACOPY RETURNDATASIZE PUSH1 0x0 REVERT JUMPDEST POP POP POP POP PUSH1 0x40 MLOAD RETURNDATASIZE PUSH1 0x1F NOT PUSH1 0x1F DUP3 ADD AND DUP3 ADD DUP1 PUSH1 0x40 MSTORE POP DUP2 ADD SWAP1 PUSH2 0xE3B SWAP2 SWAP1 PUSH2 0x20D5 JUMP JUMPDEST POP PUSH1 0x1 PUSH1 0x1 PUSH1 0xA0 SHL SUB DUP5 AND PUSH1 0x0 SWAP1 DUP2 MSTORE PUSH1 0x15 PUSH1 0x20 MSTORE PUSH1 0x40 DUP2 KECCAK256 DUP1 SLOAD DUP8 SWAP3 SWAP1 PUSH2 0xE64 SWAP1 DUP5 SWAP1 PUSH2 0x20F7 JUMP JUMPDEST SWAP1 SWAP2 SSTORE POP POP PUSH1 0x1 PUSH1 0x1 PUSH1 0xA0 SHL SUB DUP5 AND PUSH1 0x0 SWAP1 DUP2 MSTORE PUSH1 0xD PUSH1 0x20 MSTORE PUSH1 0x40 DUP2 KECCAK256 DUP1 SLOAD DUP8 SWAP3 SWAP1 PUSH2 0xE91 SWAP1 DUP5 SWAP1 PUSH2 0x210E JUMP JUMPDEST SWAP1 SWAP2 SSTORE POP POP POP POP POP POP POP JUMP JUMPDEST PUSH1 0x5 DUP2 DUP2 SLOAD DUP2 LT PUSH2 0xEAD JUMPI PUSH1 0x0 DUP1 REVERT JUMPDEST PUSH1 0x0 SWAP2 DUP3 MSTORE PUSH1 0x20 SWAP1 SWAP2 KECCAK256 ADD SLOAD PUSH1 0x1 PUSH1 0x1 PUSH1 0xA0 SHL SUB AND SWAP1 POP DUP2 JUMP JUMPDEST PUSH2 0xED6 PUSH3 0x15180 PUSH2 0x16D PUSH2 0x2126 JUMP JUMPDEST DUP2 JUMP JUMPDEST PUSH1 0x8 DUP2 DUP2 SLOAD DUP2 LT PUSH2 0xEAD JUMPI PUSH1 0x0 DUP1 REVERT JUMPDEST DUP2 PUSH1 0x0 DUP1 JUMPDEST PUSH1 0x5 SLOAD DUP2 LT ISZERO PUSH2 0xF41 JUMPI PUSH1 0x5 DUP2 DUP2 SLOAD DUP2 LT PUSH2 0xF0B JUMPI PUSH2 0xF0B PUSH2 0x1FD9 JUMP JUMPDEST PUSH1 0x0 SWAP2 DUP3 MSTORE PUSH1 0x20 SWAP1 SWAP2 KECCAK256 ADD SLOAD PUSH1 0x1 PUSH1 0x1 PUSH1 0xA0 SHL SUB DUP5 DUP2 AND SWAP2 AND EQ ISZERO PUSH2 0xF2F JUMPI PUSH1 0x1 SWAP2 POP JUMPDEST DUP1 PUSH2 0xF39 DUP2 PUSH2 0x2005 JUMP JUMPDEST SWAP2 POP POP PUSH2 0xEEE JUMP JUMPDEST POP DUP1 PUSH2 0xF5F JUMPI PUSH1 0x40 MLOAD PUSH3 0x461BCD PUSH1 0xE5 SHL DUP2 MSTORE PUSH1 0x4 ADD PUSH2 0x75C SWAP1 PUSH2 0x2020 JUMP JUMPDEST PUSH1 0x0 DUP1 SLOAD PUSH1 0xFF AND PUSH1 0x1 DUP2 GT ISZERO PUSH2 0xF77 JUMPI PUSH2 0xF77 PUSH2 0x1F9B JUMP JUMPDEST EQ PUSH2 0xF94 JUMPI PUSH1 0x40 MLOAD PUSH3 0x461BCD PUSH1 0xE5 SHL DUP2 MSTORE PUSH1 0x4 ADD PUSH2 0x75C SWAP1 PUSH2 0x20A7 JUMP JUMPDEST PUSH1 0x1 SLOAD TIMESTAMP LT PUSH2 0xFD9 JUMPI PUSH1 0x40 MLOAD PUSH3 0x461BCD PUSH1 0xE5 SHL DUP2 MSTORE PUSH1 0x20 PUSH1 0x4 DUP3 ADD MSTORE PUSH1 0x11 PUSH1 0x24 DUP3 ADD MSTORE PUSH17 0x199D5B99081CDD185C9D081C185CDCD959 PUSH1 0x7A SHL PUSH1 0x44 DUP3 ADD MSTORE PUSH1 0x64 ADD PUSH2 0x75C JUMP JUMPDEST PUSH1 0x0 DUP4 GT PUSH2 0x101E JUMPI PUSH1 0x40 MLOAD PUSH3 0x461BCD PUSH1 0xE5 SHL DUP2 MSTORE PUSH1 0x20 PUSH1 0x4 DUP3 ADD MSTORE PUSH1 0x12 PUSH1 0x24 DUP3 ADD MSTORE PUSH18 0x616D6F756E742063616E6E6F74206265203 PUSH1 0x74 SHL PUSH1 0x44 DUP3 ADD MSTORE PUSH1 0x64 ADD PUSH2 0x75C JUMP JUMPDEST PUSH1 0x40 MLOAD PUSH4 0x70A08231 PUSH1 0xE0 SHL DUP2 MSTORE CALLER PUSH1 0x4 DUP3 ADD MSTORE DUP4 SWAP1 PUSH1 0x1 PUSH1 0x1 PUSH1 0xA0 SHL SUB DUP7 AND SWAP1 PUSH4 0x70A08231 SWAP1 PUSH1 0x24 ADD PUSH1 0x20 PUSH1 0x40 MLOAD DUP1 DUP4 SUB DUP2 DUP7 GAS STATICCALL ISZERO DUP1 ISZERO PUSH2 0x1064 JUMPI RETURNDATASIZE PUSH1 0x0 DUP1 RETURNDATACOPY RETURNDATASIZE PUSH1 0x0 REVERT JUMPDEST POP POP POP POP PUSH1 0x40 MLOAD RETURNDATASIZE PUSH1 0x1F NOT PUSH1 0x1F DUP3 ADD AND DUP3 ADD DUP1 PUSH1 0x40 MSTORE POP DUP2 ADD SWAP1 PUSH2 0x1088 SWAP2 SWAP1 PUSH2 0x208E JUMP JUMPDEST LT ISZERO PUSH2 0x10D6 JUMPI PUSH1 0x40 MLOAD PUSH3 0x461BCD PUSH1 0xE5 SHL DUP2 MSTORE PUSH1 0x20 PUSH1 0x4 DUP3 ADD MSTORE PUSH1 0x1E PUSH1 0x24 DUP3 ADD MSTORE PUSH32 0x696E737566666369656E7420737461626C65636F696E2062616C616E63650000 PUSH1 0x44 DUP3 ADD MSTORE PUSH1 0x64 ADD PUSH2 0x75C JUMP JUMPDEST PUSH1 0x40 MLOAD PUSH4 0x23B872DD PUSH1 0xE0 SHL DUP2 MSTORE CALLER PUSH1 0x4 DUP3 ADD MSTORE ADDRESS PUSH1 0x24 DUP3 ADD MSTORE PUSH1 0x44 DUP2 ADD DUP5 SWAP1 MSTORE PUSH1 0x1 PUSH1 0x1 PUSH1 0xA0 SHL SUB DUP6 AND SWAP1 PUSH4 0x23B872DD SWAP1 PUSH1 0x64 ADD PUSH1 0x20 PUSH1 0x40 MLOAD DUP1 DUP4 SUB DUP2 PUSH1 0x0 DUP8 GAS CALL ISZERO DUP1 ISZERO PUSH2 0x1129 JUMPI RETURNDATASIZE PUSH1 0x0 DUP1 RETURNDATACOPY RETURNDATASIZE PUSH1 0x0 REVERT JUMPDEST POP POP POP POP PUSH1 0x40 MLOAD RETURNDATASIZE PUSH1 0x1F NOT PUSH1 0x1F DUP3 ADD AND DUP3 ADD DUP1 PUSH1 0x40 MSTORE POP DUP2 ADD SWAP1 PUSH2 0x114D SWAP2 SWAP1 PUSH2 0x20D5 JUMP JUMPDEST POP PUSH1 0x40 DUP1 MLOAD PUSH1 0xA0 DUP2 ADD DUP3 MSTORE PUSH1 0xE SLOAD DUP2 MSTORE PUSH1 0x20 DUP1 DUP3 ADD DUP7 DUP2 MSTORE PUSH1 0x1 PUSH1 0x1 PUSH1 0xA0 SHL SUB DUP9 DUP2 AND DUP5 DUP7 ADD DUP2 DUP2 MSTORE TIMESTAMP PUSH1 0x60 DUP8 ADD SWAP1 DUP2 MSTORE PUSH1 0x1 PUSH1 0x80 DUP9 ADD DUP2 DUP2 MSTORE CALLER PUSH1 0x0 DUP2 DUP2 MSTORE PUSH1 0xC DUP11 MSTORE DUP12 DUP2 KECCAK256 SWAP11 MLOAD DUP12 SSTORE SWAP8 MLOAD SWAP3 DUP11 ADD SWAP3 SWAP1 SWAP3 SSTORE SWAP3 MLOAD PUSH1 0x2 DUP10 ADD DUP1 SLOAD PUSH1 0x1 PUSH1 0x1 PUSH1 0xA0 SHL SUB NOT AND SWAP2 SWAP1 SWAP7 AND OR SWAP1 SWAP5 SSTORE MLOAD PUSH1 0x3 DUP8 ADD SSTORE MLOAD PUSH1 0x4 SWAP1 SWAP6 ADD DUP1 SLOAD PUSH1 0xFF NOT AND SWAP6 ISZERO ISZERO SWAP6 SWAP1 SWAP6 OR SWAP1 SWAP5 SSTORE SWAP3 DUP2 MSTORE PUSH1 0xB DUP3 MSTORE DUP4 DUP2 KECCAK256 SWAP3 DUP2 MSTORE SWAP2 SWAP1 MSTORE SWAP1 DUP2 KECCAK256 DUP1 SLOAD DUP6 SWAP3 SWAP1 PUSH2 0x11FA SWAP1 DUP5 SWAP1 PUSH2 0x210E JUMP JUMPDEST SWAP1 SWAP2 SSTORE POP POP PUSH1 0xE DUP1 SLOAD SWAP1 PUSH1 0x0 PUSH2 0x120F DUP4 PUSH2 0x2005 JUMP JUMPDEST SWAP1 SWAP2 SSTORE POP POP PUSH1 0x1 PUSH1 0x1 PUSH1 0xA0 SHL SUB DUP5 AND PUSH1 0x0 SWAP1 DUP2 MSTORE PUSH1 0xD PUSH1 0x20 MSTORE PUSH1 0x40 DUP2 KECCAK256 DUP1 SLOAD DUP6 SWAP3 SWAP1 PUSH2 0x123C SWAP1 DUP5 SWAP1 PUSH2 0x210E JUMP JUMPDEST SWAP1 SWAP2 SSTORE POP POP PUSH1 0x1 PUSH1 0x1 PUSH1 0xA0 SHL SUB DUP5 AND PUSH1 0x0 SWAP1 DUP2 MSTORE PUSH1 0x9 PUSH1 0x20 SWAP1 DUP2 MSTORE PUSH1 0x40 DUP1 DUP4 KECCAK256 CALLER DUP5 MSTORE SWAP1 SWAP2 MSTORE SWAP1 KECCAK256 SLOAD PUSH1 0xFF AND PUSH2 0x12AF JUMPI PUSH1 0x8 DUP1 SLOAD PUSH1 0x1 DUP2 ADD DUP3 SSTORE PUSH1 0x0 SWAP2 SWAP1 SWAP2 MSTORE PUSH32 0xF3F7A9FE364FAAB93B216DA50A3214154F22A0A2B415B23A84C8169E8B636EE3 ADD DUP1 SLOAD PUSH1 0x1 PUSH1 0x1 PUSH1 0xA0 SHL SUB NOT AND CALLER OR SWAP1 SSTORE JUMPDEST PUSH1 0x1 PUSH1 0x1 PUSH1 0xA0 SHL SUB DUP5 DUP2 AND PUSH1 0x0 DUP2 DUP2 MSTORE PUSH1 0xA PUSH1 0x20 SWAP1 DUP2 MSTORE PUSH1 0x40 DUP1 DUP4 KECCAK256 CALLER DUP1 DUP6 MSTORE SWAP1 DUP4 MSTORE DUP2 DUP5 KECCAK256 DUP1 SLOAD PUSH1 0x1 PUSH1 0xFF NOT SWAP2 DUP3 AND DUP2 OR SWAP1 SWAP3 SSTORE SWAP6 DUP6 MSTORE PUSH1 0x9 DUP5 MSTORE DUP3 DUP6 KECCAK256 DUP3 DUP7 MSTORE SWAP1 SWAP4 MSTORE SWAP3 DUP2 SWAP1 KECCAK256 DUP1 SLOAD SWAP1 SWAP5 AND SWAP1 SWAP2 OR SWAP1 SWAP3 SSTORE PUSH1 0x6 SLOAD SWAP2 MLOAD PUSH4 0x40C10F19 PUSH1 0xE0 SHL DUP2 MSTORE PUSH1 0x4 DUP2 ADD SWAP2 SWAP1 SWAP2 MSTORE PUSH1 0x24 DUP2 ADD DUP7 SWAP1 MSTORE SWAP2 AND SWAP1 PUSH4 0x40C10F19 SWAP1 PUSH1 0x44 ADD PUSH1 0x0 PUSH1 0x40 MLOAD DUP1 DUP4 SUB DUP2 PUSH1 0x0 DUP8 DUP1 EXTCODESIZE ISZERO DUP1 ISZERO PUSH2 0x1347 JUMPI PUSH1 0x0 DUP1 REVERT JUMPDEST POP GAS CALL ISZERO DUP1 ISZERO PUSH2 0x135B JUMPI RETURNDATASIZE PUSH1 0x0 DUP1 RETURNDATACOPY RETURNDATASIZE PUSH1 0x0 REVERT JUMPDEST POP POP PUSH1 0x40 DUP1 MLOAD CALLER DUP2 MSTORE PUSH1 0x20 DUP2 ADD DUP8 SWAP1 MSTORE PUSH32 0xB9144C96C86541F6FA89C9F2F02495CCCF4B08CD6643E26D34EE00AA586558A8 SWAP4 POP ADD SWAP1 POP PUSH1 0x40 MLOAD DUP1 SWAP2 SUB SWAP1 LOG1 POP POP POP POP JUMP JUMPDEST PUSH1 0x11 DUP2 DUP2 SLOAD DUP2 LT PUSH2 0xEAD JUMPI PUSH1 0x0 DUP1 REVERT JUMPDEST PUSH1 0x0 DUP1 SLOAD PUSH1 0xFF AND PUSH1 0x1 DUP2 GT ISZERO PUSH2 0x13C7 JUMPI PUSH2 0x13C7 PUSH2 0x1F9B JUMP JUMPDEST EQ PUSH2 0x13E4 JUMPI PUSH1 0x40 MLOAD PUSH3 0x461BCD PUSH1 0xE5 SHL DUP2 MSTORE PUSH1 0x4 ADD PUSH2 0x75C SWAP1 PUSH2 0x20A7 JUMP JUMPDEST PUSH1 0x2 SLOAD TIMESTAMP LT ISZERO PUSH2 0x1436 JUMPI PUSH1 0x40 MLOAD PUSH3 0x461BCD PUSH1 0xE5 SHL DUP2 MSTORE PUSH1 0x20 PUSH1 0x4 DUP3 ADD MSTORE PUSH1 0x1D PUSH1 0x24 DUP3 ADD MSTORE PUSH32 0x646561646C696E6520686173206E6F74206265656E2072656163686564000000 PUSH1 0x44 DUP3 ADD MSTORE PUSH1 0x64 ADD PUSH2 0x75C JUMP JUMPDEST PUSH1 0x1 PUSH1 0x1 PUSH1 0xA0 SHL SUB DUP2 AND PUSH1 0x0 SWAP1 DUP2 MSTORE PUSH1 0xB PUSH1 0x20 SWAP1 DUP2 MSTORE PUSH1 0x40 DUP1 DUP4 KECCAK256 CALLER DUP5 MSTORE SWAP1 SWAP2 MSTORE SWAP1 KECCAK256 SLOAD DUP1 PUSH2 0x14A7 JUMPI PUSH1 0x40 MLOAD PUSH3 0x461BCD PUSH1 0xE5 SHL DUP2 MSTORE PUSH1 0x20 PUSH1 0x4 DUP3 ADD MSTORE PUSH1 0x1D PUSH1 0x24 DUP3 ADD MSTORE PUSH32 0x696E73756666696369656E7420696E766573746F722062616C616E6365000000 PUSH1 0x44 DUP3 ADD MSTORE PUSH1 0x64 ADD PUSH2 0x75C JUMP JUMPDEST DUP2 PUSH1 0x1 PUSH1 0x1 PUSH1 0xA0 SHL SUB AND PUSH4 0xA9059CBB CALLER PUSH2 0x14C0 DUP5 PUSH2 0x1E2E JUMP JUMPDEST PUSH2 0x14CA SWAP1 DUP6 PUSH2 0x210E JUMP JUMPDEST PUSH1 0x40 MLOAD PUSH1 0x1 PUSH1 0x1 PUSH1 0xE0 SHL SUB NOT PUSH1 0xE0 DUP6 SWAP1 SHL AND DUP2 MSTORE PUSH1 0x1 PUSH1 0x1 PUSH1 0xA0 SHL SUB SWAP1 SWAP3 AND PUSH1 0x4 DUP4 ADD MSTORE PUSH1 0x24 DUP3 ADD MSTORE PUSH1 0x44 ADD PUSH1 0x20 PUSH1 0x40 MLOAD DUP1 DUP4 SUB DUP2 PUSH1 0x0 DUP8 GAS CALL ISZERO DUP1 ISZERO PUSH2 0x1515 JUMPI RETURNDATASIZE PUSH1 0x0 DUP1 RETURNDATACOPY RETURNDATASIZE PUSH1 0x0 REVERT JUMPDEST POP POP POP POP PUSH1 0x40 MLOAD RETURNDATASIZE PUSH1 0x1F NOT PUSH1 0x1F DUP3 ADD AND DUP3 ADD DUP1 PUSH1 0x40 MSTORE POP DUP2 ADD SWAP1 PUSH2 0x1539 SWAP2 SWAP1 PUSH2 0x20D5 JUMP JUMPDEST POP PUSH1 0x40 DUP1 MLOAD PUSH1 0xA0 DUP2 ADD DUP3 MSTORE PUSH1 0xE SLOAD DUP2 MSTORE PUSH1 0x20 DUP1 DUP3 ADD DUP5 DUP2 MSTORE PUSH1 0x1 PUSH1 0x1 PUSH1 0xA0 SHL SUB DUP7 DUP2 AND DUP5 DUP7 ADD DUP2 DUP2 MSTORE TIMESTAMP PUSH1 0x60 DUP8 ADD SWAP1 DUP2 MSTORE PUSH1 0x0 PUSH1 0x80 DUP9 ADD DUP2 DUP2 MSTORE CALLER DUP1 DUP4 MSTORE PUSH1 0xC DUP10 MSTORE DUP11 DUP4 KECCAK256 SWAP10 MLOAD DUP11 SSTORE SWAP7 MLOAD PUSH1 0x1 DUP11 ADD SSTORE SWAP3 MLOAD PUSH1 0x2 DUP10 ADD DUP1 SLOAD PUSH1 0x1 PUSH1 0x1 PUSH1 0xA0 SHL SUB NOT AND SWAP2 SWAP1 SWAP7 AND OR SWAP1 SWAP5 SSTORE MLOAD PUSH1 0x3 DUP8 ADD SSTORE MLOAD PUSH1 0x4 SWAP1 SWAP6 ADD DUP1 SLOAD PUSH1 0xFF NOT AND SWAP6 ISZERO ISZERO SWAP6 SWAP1 SWAP6 OR SWAP1 SWAP5 SSTORE SWAP3 DUP4 MSTORE PUSH1 0xB DUP3 MSTORE DUP4 DUP4 KECCAK256 SWAP1 DUP4 MSTORE SWAP1 MSTORE SWAP1 DUP2 KECCAK256 DUP1 SLOAD DUP4 SWAP3 SWAP1 PUSH2 0x15E1 SWAP1 DUP5 SWAP1 PUSH2 0x20F7 JUMP JUMPDEST SWAP1 SWAP2 SSTORE POP POP PUSH1 0xE DUP1 SLOAD SWAP1 PUSH1 0x0 PUSH2 0x15F6 DUP4 PUSH2 0x2005 JUMP JUMPDEST SWAP1 SWAP2 SSTORE POP POP PUSH1 0x1 PUSH1 0x1 PUSH1 0xA0 SHL SUB DUP3 AND PUSH1 0x0 SWAP1 DUP2 MSTORE PUSH1 0xD PUSH1 0x20 MSTORE PUSH1 0x40 DUP2 KECCAK256 DUP1 SLOAD DUP4 SWAP3 SWAP1 PUSH2 0x1623 SWAP1 DUP5 SWAP1 PUSH2 0x20F7 JUMP JUMPDEST SWAP1 SWAP2 SSTORE POP POP PUSH1 0x6 SLOAD PUSH1 0x40 MLOAD PUSH4 0x2770A7EB PUSH1 0xE2 SHL DUP2 MSTORE CALLER PUSH1 0x4 DUP3 ADD MSTORE PUSH1 0x24 DUP2 ADD DUP4 SWAP1 MSTORE PUSH1 0x1 PUSH1 0x1 PUSH1 0xA0 SHL SUB SWAP1 SWAP2 AND SWAP1 PUSH4 0x9DC29FAC SWAP1 PUSH1 0x44 ADD PUSH1 0x0 PUSH1 0x40 MLOAD DUP1 DUP4 SUB DUP2 PUSH1 0x0 DUP8 DUP1 EXTCODESIZE ISZERO DUP1 ISZERO PUSH2 0x1674 JUMPI PUSH1 0x0 DUP1 REVERT JUMPDEST POP GAS CALL ISZERO DUP1 ISZERO PUSH2 0x1688 JUMPI RETURNDATASIZE PUSH1 0x0 DUP1 RETURNDATACOPY RETURNDATASIZE PUSH1 0x0 REVERT JUMPDEST POP POP PUSH1 0x40 DUP1 MLOAD CALLER DUP2 MSTORE PUSH1 0x20 DUP2 ADD DUP6 SWAP1 MSTORE PUSH32 0x1011952107DD9857C3FC7EE54AAEF4F9565140A58923D80C6E15162F7D40A415 SWAP4 POP ADD SWAP1 POP PUSH1 0x40 MLOAD DUP1 SWAP2 SUB SWAP1 LOG1 PUSH1 0x1 PUSH1 0x1 PUSH1 0xA0 SHL SUB DUP3 AND PUSH1 0x0 SWAP1 DUP2 MSTORE PUSH1 0xB PUSH1 0x20 SWAP1 DUP2 MSTORE PUSH1 0x40 DUP1 DUP4 KECCAK256 CALLER DUP5 MSTORE SWAP1 SWAP2 MSTORE SWAP1 KECCAK256 SLOAD PUSH2 0xBD2 JUMPI POP PUSH1 0x1 PUSH1 0x1 PUSH1 0xA0 SHL SUB AND PUSH1 0x0 SWAP1 DUP2 MSTORE PUSH1 0xA PUSH1 0x20 SWAP1 DUP2 MSTORE PUSH1 0x40 DUP1 DUP4 KECCAK256 CALLER DUP5 MSTORE SWAP1 SWAP2 MSTORE SWAP1 KECCAK256 DUP1 SLOAD PUSH1 0xFF NOT AND SWAP1 SSTORE JUMP JUMPDEST PUSH1 0x0 DUP1 JUMPDEST PUSH1 0x11 SLOAD DUP2 LT ISZERO PUSH2 0x1778 JUMPI CALLER PUSH1 0x1 PUSH1 0x1 PUSH1 0xA0 SHL SUB AND PUSH1 0x11 DUP3 DUP2 SLOAD DUP2 LT PUSH2 0x1746 JUMPI PUSH2 0x1746 PUSH2 0x1FD9 JUMP JUMPDEST PUSH1 0x0 SWAP2 DUP3 MSTORE PUSH1 0x20 SWAP1 SWAP2 KECCAK256 ADD SLOAD PUSH1 0x1 PUSH1 0x1 PUSH1 0xA0 SHL SUB AND EQ ISZERO PUSH2 0x1766 JUMPI PUSH1 0x1 SWAP2 POP JUMPDEST DUP1 PUSH2 0x1770 DUP2 PUSH2 0x2005 JUMP JUMPDEST SWAP2 POP POP PUSH2 0x171F JUMP JUMPDEST POP DUP1 PUSH2 0x1796 JUMPI PUSH1 0x40 MLOAD PUSH3 0x461BCD PUSH1 0xE5 SHL DUP2 MSTORE PUSH1 0x4 ADD PUSH2 0x75C SWAP1 PUSH2 0x2057 JUMP JUMPDEST PUSH1 0x0 DUP1 SLOAD PUSH1 0xFF AND PUSH1 0x1 DUP2 GT ISZERO PUSH2 0x17AE JUMPI PUSH2 0x17AE PUSH2 0x1F9B JUMP JUMPDEST EQ PUSH2 0x17CB JUMPI PUSH1 0x40 MLOAD PUSH3 0x461BCD PUSH1 0xE5 SHL DUP2 MSTORE PUSH1 0x4 ADD PUSH2 0x75C SWAP1 PUSH2 0x20A7 JUMP JUMPDEST PUSH1 0x40 DUP1 MLOAD PUSH1 0x60 DUP2 ADD DUP3 MSTORE PUSH1 0x18 DUP1 SLOAD DUP1 DUP4 MSTORE PUSH1 0x0 PUSH1 0x20 DUP1 DUP6 ADD DUP3 DUP2 MSTORE DUP6 DUP8 ADD DUP4 DUP2 MSTORE SWAP4 DUP4 MSTORE PUSH1 0x16 SWAP1 SWAP2 MSTORE SWAP5 DUP2 KECCAK256 SWAP4 MLOAD DUP5 SSTORE SWAP4 MLOAD PUSH1 0x1 DUP5 ADD SSTORE MLOAD PUSH1 0x2 SWAP1 SWAP3 ADD DUP1 SLOAD PUSH1 0xFF NOT AND SWAP3 ISZERO ISZERO SWAP3 SWAP1 SWAP3 OR SWAP1 SWAP2 SSTORE DUP1 SLOAD SWAP2 PUSH2 0x1824 DUP4 PUSH2 0x2005 JUMP JUMPDEST SWAP2 SWAP1 POP SSTORE POP POP JUMP JUMPDEST PUSH1 0x0 DUP1 JUMPDEST PUSH1 0x11 SLOAD DUP2 LT ISZERO PUSH2 0x1889 JUMPI CALLER PUSH1 0x1 PUSH1 0x1 PUSH1 0xA0 SHL SUB AND PUSH1 0x11 DUP3 DUP2 SLOAD DUP2 LT PUSH2 0x1857 JUMPI PUSH2 0x1857 PUSH2 0x1FD9 JUMP JUMPDEST PUSH1 0x0 SWAP2 DUP3 MSTORE PUSH1 0x20 SWAP1 SWAP2 KECCAK256 ADD SLOAD PUSH1 0x1 PUSH1 0x1 PUSH1 0xA0 SHL SUB AND EQ ISZERO PUSH2 0x1877 JUMPI PUSH1 0x1 SWAP2 POP JUMPDEST DUP1 PUSH2 0x1881 DUP2 PUSH2 0x2005 JUMP JUMPDEST SWAP2 POP POP PUSH2 0x1830 JUMP JUMPDEST POP DUP1 PUSH2 0x18A7 JUMPI PUSH1 0x40 MLOAD PUSH3 0x461BCD PUSH1 0xE5 SHL DUP2 MSTORE PUSH1 0x4 ADD PUSH2 0x75C SWAP1 PUSH2 0x2057 JUMP JUMPDEST PUSH1 0x1 PUSH1 0x0 SLOAD PUSH1 0xFF AND PUSH1 0x1 DUP2 GT ISZERO PUSH2 0x18C0 JUMPI PUSH2 0x18C0 PUSH2 0x1F9B JUMP JUMPDEST EQ PUSH2 0x1906 JUMPI PUSH1 0x40 MLOAD PUSH3 0x461BCD PUSH1 0xE5 SHL DUP2 MSTORE PUSH1 0x20 PUSH1 0x4 DUP3 ADD MSTORE PUSH1 0x16 PUSH1 0x24 DUP3 ADD MSTORE PUSH22 0x7374617465206D75737420626520494E414354495645 PUSH1 0x50 SHL PUSH1 0x44 DUP3 ADD MSTORE PUSH1 0x64 ADD PUSH2 0x75C JUMP JUMPDEST PUSH1 0x0 DUP3 DUP2 MSTORE PUSH1 0x19 PUSH1 0x20 MSTORE PUSH1 0x40 SWAP1 KECCAK256 PUSH1 0x2 ADD SLOAD PUSH1 0xFF AND ISZERO PUSH2 0x1979 JUMPI PUSH1 0x40 MLOAD PUSH3 0x461BCD PUSH1 0xE5 SHL DUP2 MSTORE PUSH1 0x20 PUSH1 0x4 DUP3 ADD MSTORE PUSH1 0x28 PUSH1 0x24 DUP3 ADD MSTORE PUSH32 0x73746174652068617320617265616479206265656E2073776974636865642074 PUSH1 0x44 DUP3 ADD MSTORE PUSH8 0x6F20414354495645 PUSH1 0xC0 SHL PUSH1 0x64 DUP3 ADD MSTORE PUSH1 0x84 ADD PUSH2 0x75C JUMP JUMPDEST CALLER PUSH1 0x0 SWAP1 DUP2 MSTORE PUSH1 0x1A PUSH1 0x20 SWAP1 DUP2 MSTORE PUSH1 0x40 DUP1 DUP4 KECCAK256 DUP6 DUP5 MSTORE SWAP1 SWAP2 MSTORE SWAP1 KECCAK256 SLOAD PUSH1 0xFF AND PUSH2 0x19DD JUMPI CALLER PUSH1 0x0 SWAP1 DUP2 MSTORE PUSH1 0x1A PUSH1 0x20 SWAP1 DUP2 MSTORE PUSH1 0x40 DUP1 DUP4 KECCAK256 DUP6 DUP5 MSTORE DUP3 MSTORE DUP1 DUP4 KECCAK256 DUP1 SLOAD PUSH1 0xFF NOT AND PUSH1 0x1 SWAP1 DUP2 OR SWAP1 SWAP2 SSTORE PUSH1 0x19 SWAP1 SWAP3 MSTORE DUP3 KECCAK256 ADD DUP1 SLOAD SWAP2 PUSH2 0x19D7 DUP4 PUSH2 0x2005 JUMP JUMPDEST SWAP2 SWAP1 POP SSTORE POP JUMPDEST PUSH1 0xF SLOAD PUSH1 0x0 DUP4 DUP2 MSTORE PUSH1 0x19 PUSH1 0x20 MSTORE PUSH1 0x40 SWAP1 KECCAK256 PUSH1 0x1 ADD SLOAD LT PUSH2 0xBD2 JUMPI PUSH1 0x0 DUP3 DUP2 MSTORE PUSH1 0x19 PUSH1 0x20 MSTORE PUSH1 0x40 DUP2 KECCAK256 PUSH1 0x2 ADD DUP1 SLOAD PUSH1 0x1 PUSH1 0xFF NOT SWAP2 DUP3 AND DUP2 OR SWAP1 SWAP3 SSTORE DUP3 SLOAD DUP4 SWAP3 SWAP2 AND SWAP1 DUP3 PUSH2 0xBCC JUMP JUMPDEST PUSH1 0x0 DUP1 JUMPDEST PUSH1 0x11 SLOAD DUP2 LT ISZERO PUSH2 0x1A81 JUMPI CALLER PUSH1 0x1 PUSH1 0x1 PUSH1 0xA0 SHL SUB AND PUSH1 0x11 DUP3 DUP2 SLOAD DUP2 LT PUSH2 0x1A4F JUMPI PUSH2 0x1A4F PUSH2 0x1FD9 JUMP JUMPDEST PUSH1 0x0 SWAP2 DUP3 MSTORE PUSH1 0x20 SWAP1 SWAP2 KECCAK256 ADD SLOAD PUSH1 0x1 PUSH1 0x1 PUSH1 0xA0 SHL SUB AND EQ ISZERO PUSH2 0x1A6F JUMPI PUSH1 0x1 SWAP2 POP JUMPDEST DUP1 PUSH2 0x1A79 DUP2 PUSH2 0x2005 JUMP JUMPDEST SWAP2 POP POP PUSH2 0x1A28 JUMP JUMPDEST POP DUP1 PUSH2 0x1A9F JUMPI PUSH1 0x40 MLOAD PUSH3 0x461BCD PUSH1 0xE5 SHL DUP2 MSTORE PUSH1 0x4 ADD PUSH2 0x75C SWAP1 PUSH2 0x2057 JUMP JUMPDEST PUSH1 0x0 DUP3 DUP2 MSTORE PUSH1 0x10 PUSH1 0x20 MSTORE PUSH1 0x40 SWAP1 KECCAK256 PUSH1 0x5 ADD SLOAD PUSH1 0xFF AND ISZERO PUSH2 0x1B01 JUMPI PUSH1 0x40 MLOAD PUSH3 0x461BCD PUSH1 0xE5 SHL DUP2 MSTORE PUSH1 0x20 PUSH1 0x4 DUP3 ADD MSTORE PUSH1 0x1E PUSH1 0x24 DUP3 ADD MSTORE PUSH32 0x7472616E736665722068617320616C7265616479206265656E2073656E740000 PUSH1 0x44 DUP3 ADD MSTORE PUSH1 0x64 ADD PUSH2 0x75C JUMP JUMPDEST CALLER PUSH1 0x0 SWAP1 DUP2 MSTORE PUSH1 0x12 PUSH1 0x20 SWAP1 DUP2 MSTORE PUSH1 0x40 DUP1 DUP4 KECCAK256 DUP6 DUP5 MSTORE SWAP1 SWAP2 MSTORE SWAP1 KECCAK256 SLOAD PUSH1 0xFF AND PUSH2 0x1B64 JUMPI CALLER PUSH1 0x0 SWAP1 DUP2 MSTORE PUSH1 0x12 PUSH1 0x20 SWAP1 DUP2 MSTORE PUSH1 0x40 DUP1 DUP4 KECCAK256 DUP6 DUP5 MSTORE DUP3 MSTORE DUP1 DUP4 KECCAK256 DUP1 SLOAD PUSH1 0xFF NOT AND PUSH1 0x1 OR SWAP1 SSTORE PUSH1 0x10 SWAP1 SWAP2 MSTORE DUP2 KECCAK256 PUSH1 0x4 ADD DUP1 SLOAD SWAP2 PUSH2 0x1B5E DUP4 PUSH2 0x2005 JUMP JUMPDEST SWAP2 SWAP1 POP SSTORE POP JUMPDEST PUSH1 0xF SLOAD PUSH1 0x0 DUP4 DUP2 MSTORE PUSH1 0x10 PUSH1 0x20 MSTORE PUSH1 0x40 SWAP1 KECCAK256 PUSH1 0x4 ADD SLOAD LT PUSH2 0xBD2 JUMPI PUSH1 0x0 DUP3 DUP2 MSTORE PUSH1 0x10 PUSH1 0x20 MSTORE PUSH1 0x40 SWAP1 DUP2 SWAP1 KECCAK256 PUSH1 0x5 DUP2 ADD DUP1 SLOAD PUSH1 0xFF NOT AND PUSH1 0x1 SWAP1 DUP2 OR SWAP1 SWAP2 SSTORE PUSH1 0x3 DUP3 ADD SLOAD SWAP1 DUP3 ADD SLOAD PUSH1 0x2 SWAP1 SWAP3 ADD SLOAD SWAP3 MLOAD PUSH4 0xA9059CBB PUSH1 0xE0 SHL DUP2 MSTORE PUSH1 0x1 PUSH1 0x1 PUSH1 0xA0 SHL SUB SWAP2 DUP3 AND PUSH1 0x4 DUP3 ADD DUP2 SWAP1 MSTORE PUSH1 0x24 DUP3 ADD DUP5 SWAP1 MSTORE SWAP4 SWAP2 SWAP1 SWAP2 AND SWAP1 DUP2 SWAP1 PUSH4 0xA9059CBB SWAP1 PUSH1 0x44 ADD PUSH1 0x20 PUSH1 0x40 MLOAD DUP1 DUP4 SUB DUP2 PUSH1 0x0 DUP8 GAS CALL ISZERO DUP1 ISZERO PUSH2 0x1C04 JUMPI RETURNDATASIZE PUSH1 0x0 DUP1 RETURNDATACOPY RETURNDATASIZE PUSH1 0x0 REVERT JUMPDEST POP POP POP POP PUSH1 0x40 MLOAD RETURNDATASIZE PUSH1 0x1F NOT PUSH1 0x1F DUP3 ADD AND DUP3 ADD DUP1 PUSH1 0x40 MSTORE POP DUP2 ADD SWAP1 PUSH2 0x1C28 SWAP2 SWAP1 PUSH2 0x20D5 JUMP JUMPDEST POP PUSH1 0x1 PUSH1 0x1 PUSH1 0xA0 SHL SUB DUP2 AND PUSH1 0x0 SWAP1 DUP2 MSTORE PUSH1 0x15 PUSH1 0x20 MSTORE PUSH1 0x40 DUP2 KECCAK256 DUP1 SLOAD DUP5 SWAP3 SWAP1 PUSH2 0x1C51 SWAP1 DUP5 SWAP1 PUSH2 0x210E JUMP JUMPDEST SWAP1 SWAP2 SSTORE POP POP PUSH1 0x1 PUSH1 0x1 PUSH1 0xA0 SHL SUB DUP2 AND PUSH1 0x0 SWAP1 DUP2 MSTORE PUSH1 0xD PUSH1 0x20 MSTORE PUSH1 0x40 DUP2 KECCAK256 DUP1 SLOAD DUP5 SWAP3 SWAP1 PUSH2 0x1C7E SWAP1 DUP5 SWAP1 PUSH2 0x20F7 JUMP JUMPDEST SWAP1 SWAP2 SSTORE POP POP PUSH1 0x40 DUP1 MLOAD PUSH1 0x1 PUSH1 0x1 PUSH1 0xA0 SHL SUB DUP6 AND DUP2 MSTORE PUSH1 0x20 DUP2 ADD DUP5 SWAP1 MSTORE PUSH32 0x7FCF532C15F0A6DB0BD6D0E038BEA71D30D808C7D98CB3BF7268A95BF5081B65 SWAP2 ADD PUSH1 0x40 MLOAD DUP1 SWAP2 SUB SWAP1 LOG1 POP POP POP POP POP JUMP JUMPDEST PUSH1 0x0 DUP1 JUMPDEST PUSH1 0x11 SLOAD DUP2 LT ISZERO PUSH2 0x1D29 JUMPI CALLER PUSH1 0x1 PUSH1 0x1 PUSH1 0xA0 SHL SUB AND PUSH1 0x11 DUP3 DUP2 SLOAD DUP2 LT PUSH2 0x1CF7 JUMPI PUSH2 0x1CF7 PUSH2 0x1FD9 JUMP JUMPDEST PUSH1 0x0 SWAP2 DUP3 MSTORE PUSH1 0x20 SWAP1 SWAP2 KECCAK256 ADD SLOAD PUSH1 0x1 PUSH1 0x1 PUSH1 0xA0 SHL SUB AND EQ ISZERO PUSH2 0x1D17 JUMPI PUSH1 0x1 SWAP2 POP JUMPDEST DUP1 PUSH2 0x1D21 DUP2 PUSH2 0x2005 JUMP JUMPDEST SWAP2 POP POP PUSH2 0x1CD0 JUMP JUMPDEST POP DUP1 PUSH2 0x1D47 JUMPI PUSH1 0x40 MLOAD PUSH3 0x461BCD PUSH1 0xE5 SHL DUP2 MSTORE PUSH1 0x4 ADD PUSH2 0x75C SWAP1 PUSH2 0x2057 JUMP JUMPDEST PUSH1 0x1 PUSH1 0x0 SLOAD PUSH1 0xFF AND PUSH1 0x1 DUP2 GT ISZERO PUSH2 0x1D60 JUMPI PUSH2 0x1D60 PUSH2 0x1F9B JUMP JUMPDEST EQ PUSH2 0x1DA6 JUMPI PUSH1 0x40 MLOAD PUSH3 0x461BCD PUSH1 0xE5 SHL DUP2 MSTORE PUSH1 0x20 PUSH1 0x4 DUP3 ADD MSTORE PUSH1 0x16 PUSH1 0x24 DUP3 ADD MSTORE PUSH22 0x7374617465206D75737420626520494E414354495645 PUSH1 0x50 SHL PUSH1 0x44 DUP3 ADD MSTORE PUSH1 0x64 ADD PUSH2 0x75C JUMP JUMPDEST PUSH1 0x40 DUP1 MLOAD PUSH1 0x60 DUP2 ADD DUP3 MSTORE PUSH1 0x1B DUP1 SLOAD DUP1 DUP4 MSTORE PUSH1 0x0 PUSH1 0x20 DUP1 DUP6 ADD DUP3 DUP2 MSTORE DUP6 DUP8 ADD DUP4 DUP2 MSTORE SWAP4 DUP4 MSTORE PUSH1 0x19 SWAP1 SWAP2 MSTORE SWAP5 DUP2 KECCAK256 SWAP4 MLOAD DUP5 SSTORE SWAP4 MLOAD PUSH1 0x1 DUP5 ADD SSTORE MLOAD PUSH1 0x2 SWAP1 SWAP3 ADD DUP1 SLOAD PUSH1 0xFF NOT AND SWAP3 ISZERO ISZERO SWAP3 SWAP1 SWAP3 OR SWAP1 SWAP2 SSTORE DUP1 SLOAD SWAP2 PUSH2 0x1824 DUP4 PUSH2 0x2005 JUMP JUMPDEST PUSH1 0x13 DUP2 DUP2 SLOAD DUP2 LT PUSH2 0xEAD JUMPI PUSH1 0x0 DUP1 REVERT JUMPDEST PUSH1 0x0 PUSH2 0x1E1B DUP3 DUP5 PUSH2 0x2126 JUMP JUMPDEST SWAP4 SWAP3 POP POP POP JUMP JUMPDEST PUSH1 0x0 PUSH2 0x1E1B DUP3 DUP5 PUSH2 0x20F7 JUMP JUMPDEST PUSH1 0x0 PUSH2 0x1E6F PUSH2 0x1E42 PUSH3 0x15180 PUSH2 0x16D PUSH2 0x2126 JUMP JUMPDEST PUSH2 0x1E63 PUSH1 0x3 SLOAD PUSH2 0x1E69 PUSH2 0x2710 PUSH2 0x1E63 PUSH1 0x4 SLOAD DUP10 PUSH2 0x1E0F SWAP1 SWAP2 SWAP1 PUSH4 0xFFFFFFFF AND JUMP JUMPDEST SWAP1 PUSH2 0x1E75 JUMP JUMPDEST SWAP1 PUSH2 0x1E0F JUMP JUMPDEST SWAP3 SWAP2 POP POP JUMP JUMPDEST PUSH1 0x0 PUSH2 0x1E1B DUP3 DUP5 PUSH2 0x2145 JUMP JUMPDEST PUSH1 0x1 PUSH1 0x1 PUSH1 0xA0 SHL SUB DUP2 AND DUP2 EQ PUSH2 0x1E96 JUMPI PUSH1 0x0 DUP1 REVERT JUMPDEST POP JUMP JUMPDEST PUSH1 0x0 DUP1 PUSH1 0x0 PUSH1 0x60 DUP5 DUP7 SUB SLT ISZERO PUSH2 0x1EAE JUMPI PUSH1 0x0 DUP1 REVERT JUMPDEST DUP4 CALLDATALOAD SWAP3 POP PUSH1 0x20 DUP5 ADD CALLDATALOAD PUSH2 0x1EC0 DUP2 PUSH2 0x1E81 JUMP JUMPDEST SWAP2 POP PUSH1 0x40 DUP5 ADD CALLDATALOAD PUSH2 0x1ED0 DUP2 PUSH2 0x1E81 JUMP JUMPDEST DUP1 SWAP2 POP POP SWAP3 POP SWAP3 POP SWAP3 JUMP JUMPDEST PUSH1 0x0 PUSH1 0x20 DUP3 DUP5 SUB SLT ISZERO PUSH2 0x1EED JUMPI PUSH1 0x0 DUP1 REVERT JUMPDEST POP CALLDATALOAD SWAP2 SWAP1 POP JUMP JUMPDEST PUSH1 0x0 DUP1 PUSH1 0x40 DUP4 DUP6 SUB SLT ISZERO PUSH2 0x1F07 JUMPI PUSH1 0x0 DUP1 REVERT JUMPDEST DUP3 CALLDATALOAD SWAP2 POP PUSH1 0x20 DUP4 ADD CALLDATALOAD PUSH2 0x1F19 DUP2 PUSH2 0x1E81 JUMP JUMPDEST DUP1 SWAP2 POP POP SWAP3 POP SWAP3 SWAP1 POP JUMP JUMPDEST PUSH1 0x0 DUP1 PUSH1 0x40 DUP4 DUP6 SUB SLT ISZERO PUSH2 0x1F37 JUMPI PUSH1 0x0 DUP1 REVERT JUMPDEST DUP3 CALLDATALOAD PUSH2 0x1F42 DUP2 PUSH2 0x1E81 JUMP JUMPDEST SWAP5 PUSH1 0x20 SWAP4 SWAP1 SWAP4 ADD CALLDATALOAD SWAP4 POP POP POP JUMP JUMPDEST PUSH1 0x0 DUP1 PUSH1 0x40 DUP4 DUP6 SUB SLT ISZERO PUSH2 0x1F63 JUMPI PUSH1 0x0 DUP1 REVERT JUMPDEST DUP3 CALLDATALOAD PUSH2 0x1F6E DUP2 PUSH2 0x1E81 JUMP JUMPDEST SWAP2 POP PUSH1 0x20 DUP4 ADD CALLDATALOAD PUSH2 0x1F19 DUP2 PUSH2 0x1E81 JUMP JUMPDEST PUSH1 0x0 PUSH1 0x20 DUP3 DUP5 SUB SLT ISZERO PUSH2 0x1F90 JUMPI PUSH1 0x0 DUP1 REVERT JUMPDEST DUP2 CALLDATALOAD PUSH2 0x1E1B DUP2 PUSH2 0x1E81 JUMP JUMPDEST PUSH4 0x4E487B71 PUSH1 0xE0 SHL PUSH1 0x0 MSTORE PUSH1 0x21 PUSH1 0x4 MSTORE PUSH1 0x24 PUSH1 0x0 REVERT JUMPDEST PUSH1 0x20 DUP2 ADD PUSH1 0x2 DUP4 LT PUSH2 0x1FD3 JUMPI PUSH4 0x4E487B71 PUSH1 0xE0 SHL PUSH1 0x0 MSTORE PUSH1 0x21 PUSH1 0x4 MSTORE PUSH1 0x24 PUSH1 0x0 REVERT JUMPDEST SWAP2 SWAP1 MSTORE SWAP1 JUMP JUMPDEST PUSH4 0x4E487B71 PUSH1 0xE0 SHL PUSH1 0x0 MSTORE PUSH1 0x32 PUSH1 0x4 MSTORE PUSH1 0x24 PUSH1 0x0 REVERT JUMPDEST PUSH4 0x4E487B71 PUSH1 0xE0 SHL PUSH1 0x0 MSTORE PUSH1 0x11 PUSH1 0x4 MSTORE PUSH1 0x24 PUSH1 0x0 REVERT JUMPDEST PUSH1 0x0 PUSH1 0x0 NOT DUP3 EQ ISZERO PUSH2 0x2019 JUMPI PUSH2 0x2019 PUSH2 0x1FEF JUMP JUMPDEST POP PUSH1 0x1 ADD SWAP1 JUMP JUMPDEST PUSH1 0x20 DUP1 DUP3 MSTORE PUSH1 0x1A SWAP1 DUP3 ADD MSTORE PUSH32 0x6F6E6C79207065726D697474656420737461626C65636F696E73000000000000 PUSH1 0x40 DUP3 ADD MSTORE PUSH1 0x60 ADD SWAP1 JUMP JUMPDEST PUSH1 0x20 DUP1 DUP3 MSTORE PUSH1 0x18 SWAP1 DUP3 ADD MSTORE PUSH32 0x6F6E6C7920666C6F772061646D696E7320616C6C6F7765640000000000000000 PUSH1 0x40 DUP3 ADD MSTORE PUSH1 0x60 ADD SWAP1 JUMP JUMPDEST PUSH1 0x0 PUSH1 0x20 DUP3 DUP5 SUB SLT ISZERO PUSH2 0x20A0 JUMPI PUSH1 0x0 DUP1 REVERT JUMPDEST POP MLOAD SWAP2 SWAP1 POP JUMP JUMPDEST PUSH1 0x20 DUP1 DUP3 MSTORE PUSH1 0x14 SWAP1 DUP3 ADD MSTORE PUSH20 0x7374617465206D75737420626520414354495645 PUSH1 0x60 SHL PUSH1 0x40 DUP3 ADD MSTORE PUSH1 0x60 ADD SWAP1 JUMP JUMPDEST PUSH1 0x0 PUSH1 0x20 DUP3 DUP5 SUB SLT ISZERO PUSH2 0x20E7 JUMPI PUSH1 0x0 DUP1 REVERT JUMPDEST DUP2 MLOAD DUP1 ISZERO ISZERO DUP2 EQ PUSH2 0x1E1B JUMPI PUSH1 0x0 DUP1 REVERT JUMPDEST PUSH1 0x0 DUP3 DUP3 LT ISZERO PUSH2 0x2109 JUMPI PUSH2 0x2109 PUSH2 0x1FEF JUMP JUMPDEST POP SUB SWAP1 JUMP JUMPDEST PUSH1 0x0 DUP3 NOT DUP3 GT ISZERO PUSH2 0x2121 JUMPI PUSH2 0x2121 PUSH2 0x1FEF JUMP JUMPDEST POP ADD SWAP1 JUMP JUMPDEST PUSH1 0x0 DUP2 PUSH1 0x0 NOT DIV DUP4 GT DUP3 ISZERO ISZERO AND ISZERO PUSH2 0x2140 JUMPI PUSH2 0x2140 PUSH2 0x1FEF JUMP JUMPDEST POP MUL SWAP1 JUMP JUMPDEST PUSH1 0x0 DUP3 PUSH2 0x2162 JUMPI PUSH4 0x4E487B71 PUSH1 0xE0 SHL PUSH1 0x0 MSTORE PUSH1 0x12 PUSH1 0x4 MSTORE PUSH1 0x24 PUSH1 0x0 REVERT JUMPDEST POP DIV SWAP1 JUMP INVALID LOG2 PUSH5 0x6970667358 0x22 SLT KECCAK256 CALLER LOG0 BALANCE RETURNDATACOPY DUP15 0xDF 0x5E PUSH19 0x82420AF4ED69A287E848543F015E3256BB794 COINBASE 0xBE 0xB4 0xCE MULMOD PUSH5 0x736F6C6343 STOP ADDMOD SIGNEXTEND STOP CALLER ",
  "sha1": "0a6edb28216806ec0afd12cd2a315961353bd4e1",
  "source": "pragma solidity ^0.8.11;\n\n// import \"./utils/SafeMath.sol\";\n// import \"./ERC20.sol\";\n// import \"./utils/Ownable.sol\";\n\nabstract contract Context {\n    function _msgSender() internal view virtual returns (address) {\n        return msg.sender;\n    }\n\n    function _msgData() internal view virtual returns (bytes calldata) {\n        return msg.data;\n    }\n}\n\nabstract contract Ownable is Context {\n    address private _owner;\n\n    event OwnershipTransferred(address indexed previousOwner, address indexed newOwner);\n\n    /**\n     * @dev Initializes the contract setting the deployer as the initial owner.\n     */\n    constructor() {\n        _transferOwnership(_msgSender());\n    }\n\n    /**\n     * @dev Returns the address of the current owner.\n     */\n    function owner() public view virtual returns (address) {\n        return _owner;\n    }\n\n    /**\n     * @dev Throws if called by any account other than the owner.\n     */\n    modifier onlyOwner() {\n        require(owner() == _msgSender(), \"Ownable: caller is not the owner\");\n        _;\n    }\n\n    /**\n     * @dev Leaves the contract without owner. It will not be possible to call\n     * `onlyOwner` functions anymore. Can only be called by the current owner.\n     *\n     * NOTE: Renouncing ownership will leave the contract without an owner,\n     * thereby removing any functionality that is only available to the owner.\n     */\n    function renounceOwnership() public virtual onlyOwner {\n        _transferOwnership(address(0));\n    }\n\n    /**\n     * @dev Transfers ownership of the contract to a new account (`newOwner`).\n     * Can only be called by the current owner.\n     */\n    function transferOwnership(address newOwner) public virtual onlyOwner {\n        require(newOwner != address(0), \"Ownable: new owner is the zero address\");\n        _transferOwnership(newOwner);\n    }\n\n    /**\n     * @dev Transfers ownership of the contract to a new account (`newOwner`).\n     * Internal function without access restriction.\n     */\n    function _transferOwnership(address newOwner) internal virtual {\n        address oldOwner = _owner;\n        _owner = newOwner;\n        emit OwnershipTransferred(oldOwner, newOwner);\n    }\n}\n\nlibrary SafeMath {\n    /**\n     * @dev Returns the addition of two unsigned integers, with an overflow flag.\n     *\n     * _Available since v3.4._\n     */\n    function tryAdd(uint256 a, uint256 b) internal pure returns (bool, uint256) {\n        unchecked {\n            uint256 c = a + b;\n            if (c < a) return (false, 0);\n            return (true, c);\n        }\n    }\n\n    /**\n     * @dev Returns the substraction of two unsigned integers, with an overflow flag.\n     *\n     * _Available since v3.4._\n     */\n    function trySub(uint256 a, uint256 b) internal pure returns (bool, uint256) {\n        unchecked {\n            if (b > a) return (false, 0);\n            return (true, a - b);\n        }\n    }\n\n    /**\n     * @dev Returns the multiplication of two unsigned integers, with an overflow flag.\n     *\n     * _Available since v3.4._\n     */\n    function tryMul(uint256 a, uint256 b) internal pure returns (bool, uint256) {\n        unchecked {\n            // Gas optimization: this is cheaper than requiring 'a' not being zero, but the\n            // benefit is lost if 'b' is also tested.\n            // See: https://github.com/OpenZeppelin/openzeppelin-contracts/pull/522\n            if (a == 0) return (true, 0);\n            uint256 c = a * b;\n            if (c / a != b) return (false, 0);\n            return (true, c);\n        }\n    }\n\n    /**\n     * @dev Returns the division of two unsigned integers, with a division by zero flag.\n     *\n     * _Available since v3.4._\n     */\n    function tryDiv(uint256 a, uint256 b) internal pure returns (bool, uint256) {\n        unchecked {\n            if (b == 0) return (false, 0);\n            return (true, a / b);\n        }\n    }\n\n    /**\n     * @dev Returns the remainder of dividing two unsigned integers, with a division by zero flag.\n     *\n     * _Available since v3.4._\n     */\n    function tryMod(uint256 a, uint256 b) internal pure returns (bool, uint256) {\n        unchecked {\n            if (b == 0) return (false, 0);\n            return (true, a % b);\n        }\n    }\n\n    /**\n     * @dev Returns the addition of two unsigned integers, reverting on\n     * overflow.\n     *\n     * Counterpart to Solidity's `+` operator.\n     *\n     * Requirements:\n     *\n     * - Addition cannot overflow.\n     */\n    function add(uint256 a, uint256 b) internal pure returns (uint256) {\n        return a + b;\n    }\n\n    /**\n     * @dev Returns the subtraction of two unsigned integers, reverting on\n     * overflow (when the result is negative).\n     *\n     * Counterpart to Solidity's `-` operator.\n     *\n     * Requirements:\n     *\n     * - Subtraction cannot overflow.\n     */\n    function sub(uint256 a, uint256 b) internal pure returns (uint256) {\n        return a - b;\n    }\n\n    /**\n     * @dev Returns the multiplication of two unsigned integers, reverting on\n     * overflow.\n     *\n     * Counterpart to Solidity's `*` operator.\n     *\n     * Requirements:\n     *\n     * - Multiplication cannot overflow.\n     */\n    function mul(uint256 a, uint256 b) internal pure returns (uint256) {\n        return a * b;\n    }\n\n    /**\n     * @dev Returns the integer division of two unsigned integers, reverting on\n     * division by zero. The result is rounded towards zero.\n     *\n     * Counterpart to Solidity's `/` operator.\n     *\n     * Requirements:\n     *\n     * - The divisor cannot be zero.\n     */\n    function div(uint256 a, uint256 b) internal pure returns (uint256) {\n        return a / b;\n    }\n\n    /**\n     * @dev Returns the remainder of dividing two unsigned integers. (unsigned integer modulo),\n     * reverting when dividing by zero.\n     *\n     * Counterpart to Solidity's `%` operator. This function uses a `revert`\n     * opcode (which leaves remaining gas untouched) while Solidity uses an\n     * invalid opcode to revert (consuming all remaining gas).\n     *\n     * Requirements:\n     *\n     * - The divisor cannot be zero.\n     */\n    function mod(uint256 a, uint256 b) internal pure returns (uint256) {\n        return a % b;\n    }\n\n    /**\n     * @dev Returns the subtraction of two unsigned integers, reverting with custom message on\n     * overflow (when the result is negative).\n     *\n     * CAUTION: This function is deprecated because it requires allocating memory for the error\n     * message unnecessarily. For custom revert reasons use {trySub}.\n     *\n     * Counterpart to Solidity's `-` operator.\n     *\n     * Requirements:\n     *\n     * - Subtraction cannot overflow.\n     */\n    function sub(\n        uint256 a,\n        uint256 b,\n        string memory errorMessage\n    ) internal pure returns (uint256) {\n        unchecked {\n            require(b <= a, errorMessage);\n            return a - b;\n        }\n    }\n\n    /**\n     * @dev Returns the integer division of two unsigned integers, reverting with custom message on\n     * division by zero. The result is rounded towards zero.\n     *\n     * Counterpart to Solidity's `/` operator. Note: this function uses a\n     * `revert` opcode (which leaves remaining gas untouched) while Solidity\n     * uses an invalid opcode to revert (consuming all remaining gas).\n     *\n     * Requirements:\n     *\n     * - The divisor cannot be zero.\n     */\n    function div(\n        uint256 a,\n        uint256 b,\n        string memory errorMessage\n    ) internal pure returns (uint256) {\n        unchecked {\n            require(b > 0, errorMessage);\n            return a / b;\n        }\n    }\n\n    /**\n     * @dev Returns the remainder of dividing two unsigned integers. (unsigned integer modulo),\n     * reverting with custom message when dividing by zero.\n     *\n     * CAUTION: This function is deprecated because it requires allocating memory for the error\n     * message unnecessarily. For custom revert reasons use {tryMod}.\n     *\n     * Counterpart to Solidity's `%` operator. This function uses a `revert`\n     * opcode (which leaves remaining gas untouched) while Solidity uses an\n     * invalid opcode to revert (consuming all remaining gas).\n     *\n     * Requirements:\n     *\n     * - The divisor cannot be zero.\n     */\n    function mod(\n        uint256 a,\n        uint256 b,\n        string memory errorMessage\n    ) internal pure returns (uint256) {\n        unchecked {\n            require(b > 0, errorMessage);\n            return a % b;\n        }\n    }\n}\n\ninterface IERC20 {\n    /**\n     * @dev Returns the amount of tokens in existence.\n     */\n    function totalSupply() external view returns (uint256);\n\n    /**\n     * @dev Returns the amount of tokens owned by `account`.\n     */\n    function balanceOf(address account) external view returns (uint256);\n\n    /**\n     * @dev Moves `amount` tokens from the caller's account to `recipient`.\n     *\n     * Returns a boolean value indicating whether the operation succeeded.\n     *\n     * Emits a {Transfer} event.\n     */\n    function transfer(address recipient, uint256 amount) external returns (bool);\n\n    /**\n     * @dev Returns the remaining number of tokens that `spender` will be\n     * allowed to spend on behalf of `owner` through {transferFrom}. This is\n     * zero by default.\n     *\n     * This value changes when {approve} or {transferFrom} are called.\n     */\n    function allowance(address owner, address spender) external view returns (uint256);\n\n    /**\n     * @dev Sets `amount` as the allowance of `spender` over the caller's tokens.\n     *\n     * Returns a boolean value indicating whether the operation succeeded.\n     *\n     * IMPORTANT: Beware that changing an allowance with this method brings the risk\n     * that someone may use both the old and the new allowance by unfortunate\n     * transaction ordering. One possible solution to mitigate this race\n     * condition is to first reduce the spender's allowance to 0 and set the\n     * desired value afterwards:\n     * https://github.com/ethereum/EIPs/issues/20#issuecomment-263524729\n     *\n     * Emits an {Approval} event.\n     */\n    function approve(address spender, uint256 amount) external returns (bool);\n\n    /**\n     * @dev Moves `amount` tokens from `sender` to `recipient` using the\n     * allowance mechanism. `amount` is then deducted from the caller's\n     * allowance.\n     *\n     * Returns a boolean value indicating whether the operation succeeded.\n     *\n     * Emits a {Transfer} event.\n     */\n    function transferFrom(\n        address sender,\n        address recipient,\n        uint256 amount\n    ) external returns (bool);\n\n    /**\n     * @dev Emitted when `value` tokens are moved from one account (`from`) to\n     * another (`to`).\n     *\n     * Note that `value` may be zero.\n     */\n    event Transfer(address indexed from, address indexed to, uint256 value);\n\n    /**\n     * @dev Emitted when the allowance of a `spender` for an `owner` is set by\n     * a call to {approve}. `value` is the new allowance.\n     */\n    event Approval(address indexed owner, address indexed spender, uint256 value);\n}\n\n\ninterface IERC20Metadata is IERC20 {\n    /**\n     * @dev Returns the name of the token.\n     */\n    function name() external view returns (string memory);\n\n    /**\n     * @dev Returns the symbol of the token.\n     */\n    function symbol() external view returns (string memory);\n\n    /**\n     * @dev Returns the decimals places of the token.\n     */\n    function decimals() external view returns (uint8);\n}\n\ncontract ERC20 is Context, IERC20, IERC20Metadata {\n    mapping(address => uint256) private _balances;\n\n    mapping(address => mapping(address => uint256)) private _allowances;\n\n    uint256 private _totalSupply;\n\n    string private _name;\n    string private _symbol;\n\n    /**\n     * @dev Sets the values for {name} and {symbol}.\n     *\n     * The default value of {decimals} is 18. To select a different value for\n     * {decimals} you should overload it.\n     *\n     * All two of these values are immutable: they can only be set once during\n     * construction.\n     */\n    constructor(string memory name_, string memory symbol_) {\n        _name = name_;\n        _symbol = symbol_;\n    }\n\n    /**\n     * @dev Returns the name of the token.\n     */\n    function name() public view virtual override returns (string memory) {\n        return _name;\n    }\n\n    /**\n     * @dev Returns the symbol of the token, usually a shorter version of the\n     * name.\n     */\n    function symbol() public view virtual override returns (string memory) {\n        return _symbol;\n    }\n\n    /**\n     * @dev Returns the number of decimals used to get its user representation.\n     * For example, if `decimals` equals `2`, a balance of `505` tokens should\n     * be displayed to a user as `5.05` (`505 / 10 ** 2`).\n     *\n     * Tokens usually opt for a value of 18, imitating the relationship between\n     * Ether and Wei. This is the value {ERC20} uses, unless this function is\n     * overridden;\n     *\n     * NOTE: This information is only used for _display_ purposes: it in\n     * no way affects any of the arithmetic of the contract, including\n     * {IERC20-balanceOf} and {IERC20-transfer}.\n     */\n    function decimals() public view virtual override returns (uint8) {\n        return 18;\n    }\n\n    /**\n     * @dev See {IERC20-totalSupply}.\n     */\n    function totalSupply() public view virtual override returns (uint256) {\n        return _totalSupply;\n    }\n\n    /**\n     * @dev See {IERC20-balanceOf}.\n     */\n    function balanceOf(address account) public view virtual override returns (uint256) {\n        return _balances[account];\n    }\n\n    /**\n     * @dev See {IERC20-transfer}.\n     *\n     * Requirements:\n     *\n     * - `recipient` cannot be the zero address.\n     * - the caller must have a balance of at least `amount`.\n     */\n    function transfer(address recipient, uint256 amount) public virtual override returns (bool) {\n        _transfer(_msgSender(), recipient, amount);\n        return true;\n    }\n\n    /**\n     * @dev See {IERC20-allowance}.\n     */\n    function allowance(address owner, address spender) public view virtual override returns (uint256) {\n        return _allowances[owner][spender];\n    }\n\n    /**\n     * @dev See {IERC20-approve}.\n     *\n     * NOTE: If `amount` is the maximum `uint256`, the allowance is not updated on\n     * `transferFrom`. This is semantically equivalent to an infinite approval.\n     *\n     * Requirements:\n     *\n     * - `spender` cannot be the zero address.\n     */\n    function approve(address spender, uint256 amount) public virtual override returns (bool) {\n        _approve(_msgSender(), spender, amount);\n        return true;\n    }\n\n    /**\n     * @dev See {IERC20-transferFrom}.\n     *\n     * Emits an {Approval} event indicating the updated allowance. This is not\n     * required by the EIP. See the note at the beginning of {ERC20}.\n     *\n     * NOTE: Does not update the allowance if the current allowance\n     * is the maximum `uint256`.\n     *\n     * Requirements:\n     *\n     * - `sender` and `recipient` cannot be the zero address.\n     * - `sender` must have a balance of at least `amount`.\n     * - the caller must have allowance for ``sender``'s tokens of at least\n     * `amount`.\n     */\n    function transferFrom(\n        address sender,\n        address recipient,\n        uint256 amount\n    ) public virtual override returns (bool) {\n        uint256 currentAllowance = _allowances[sender][_msgSender()];\n        if (currentAllowance != type(uint256).max) {\n            require(currentAllowance >= amount, \"ERC20: transfer amount exceeds allowance\");\n            unchecked {\n                _approve(sender, _msgSender(), currentAllowance - amount);\n            }\n        }\n\n        _transfer(sender, recipient, amount);\n\n        return true;\n    }\n\n    /**\n     * @dev Atomically increases the allowance granted to `spender` by the caller.\n     *\n     * This is an alternative to {approve} that can be used as a mitigation for\n     * problems described in {IERC20-approve}.\n     *\n     * Emits an {Approval} event indicating the updated allowance.\n     *\n     * Requirements:\n     *\n     * - `spender` cannot be the zero address.\n     */\n    function increaseAllowance(address spender, uint256 addedValue) public virtual returns (bool) {\n        _approve(_msgSender(), spender, _allowances[_msgSender()][spender] + addedValue);\n        return true;\n    }\n\n    /**\n     * @dev Atomically decreases the allowance granted to `spender` by the caller.\n     *\n     * This is an alternative to {approve} that can be used as a mitigation for\n     * problems described in {IERC20-approve}.\n     *\n     * Emits an {Approval} event indicating the updated allowance.\n     *\n     * Requirements:\n     *\n     * - `spender` cannot be the zero address.\n     * - `spender` must have allowance for the caller of at least\n     * `subtractedValue`.\n     */\n    function decreaseAllowance(address spender, uint256 subtractedValue) public virtual returns (bool) {\n        uint256 currentAllowance = _allowances[_msgSender()][spender];\n        require(currentAllowance >= subtractedValue, \"ERC20: decreased allowance below zero\");\n        unchecked {\n            _approve(_msgSender(), spender, currentAllowance - subtractedValue);\n        }\n\n        return true;\n    }\n\n    /**\n     * @dev Moves `amount` of tokens from `sender` to `recipient`.\n     *\n     * This internal function is equivalent to {transfer}, and can be used to\n     * e.g. implement automatic token fees, slashing mechanisms, etc.\n     *\n     * Emits a {Transfer} event.\n     *\n     * Requirements:\n     *\n     * - `sender` cannot be the zero address.\n     * - `recipient` cannot be the zero address.\n     * - `sender` must have a balance of at least `amount`.\n     */\n    function _transfer(\n        address sender,\n        address recipient,\n        uint256 amount\n    ) internal virtual {\n        require(sender != address(0), \"ERC20: transfer from the zero address\");\n        require(recipient != address(0), \"ERC20: transfer to the zero address\");\n\n        _beforeTokenTransfer(sender, recipient, amount);\n\n        uint256 senderBalance = _balances[sender];\n        require(senderBalance >= amount, \"ERC20: transfer amount exceeds balance\");\n        unchecked {\n            _balances[sender] = senderBalance - amount;\n        }\n        _balances[recipient] += amount;\n\n        emit Transfer(sender, recipient, amount);\n\n        _afterTokenTransfer(sender, recipient, amount);\n    }\n\n    /** @dev Creates `amount` tokens and assigns them to `account`, increasing\n     * the total supply.\n     *\n     * Emits a {Transfer} event with `from` set to the zero address.\n     *\n     * Requirements:\n     *\n     * - `account` cannot be the zero address.\n     */\n    function _mint(address account, uint256 amount) internal virtual {\n        require(account != address(0), \"ERC20: mint to the zero address\");\n\n        _beforeTokenTransfer(address(0), account, amount);\n\n        _totalSupply += amount;\n        _balances[account] += amount;\n        emit Transfer(address(0), account, amount);\n\n        _afterTokenTransfer(address(0), account, amount);\n    }\n\n    /**\n     * @dev Destroys `amount` tokens from `account`, reducing the\n     * total supply.\n     *\n     * Emits a {Transfer} event with `to` set to the zero address.\n     *\n     * Requirements:\n     *\n     * - `account` cannot be the zero address.\n     * - `account` must have at least `amount` tokens.\n     */\n    function _burn(address account, uint256 amount) internal virtual {\n        require(account != address(0), \"ERC20: burn from the zero address\");\n\n        _beforeTokenTransfer(account, address(0), amount);\n\n        uint256 accountBalance = _balances[account];\n        require(accountBalance >= amount, \"ERC20: burn amount exceeds balance\");\n        unchecked {\n            _balances[account] = accountBalance - amount;\n        }\n        _totalSupply -= amount;\n\n        emit Transfer(account, address(0), amount);\n\n        _afterTokenTransfer(account, address(0), amount);\n    }\n\n    /**\n     * @dev Sets `amount` as the allowance of `spender` over the `owner` s tokens.\n     *\n     * This internal function is equivalent to `approve`, and can be used to\n     * e.g. set automatic allowances for certain subsystems, etc.\n     *\n     * Emits an {Approval} event.\n     *\n     * Requirements:\n     *\n     * - `owner` cannot be the zero address.\n     * - `spender` cannot be the zero address.\n     */\n    function _approve(\n        address owner,\n        address spender,\n        uint256 amount\n    ) internal virtual {\n        require(owner != address(0), \"ERC20: approve from the zero address\");\n        require(spender != address(0), \"ERC20: approve to the zero address\");\n\n        _allowances[owner][spender] = amount;\n        emit Approval(owner, spender, amount);\n    }\n\n    /**\n     * @dev Hook that is called before any transfer of tokens. This includes\n     * minting and burning.\n     *\n     * Calling conditions:\n     *\n     * - when `from` and `to` are both non-zero, `amount` of ``from``'s tokens\n     * will be transferred to `to`.\n     * - when `from` is zero, `amount` tokens will be minted for `to`.\n     * - when `to` is zero, `amount` of ``from``'s tokens will be burned.\n     * - `from` and `to` are never both zero.\n     *\n     * To learn more about hooks, head to xref:ROOT:extending-contracts.adoc#using-hooks[Using Hooks].\n     */\n    function _beforeTokenTransfer(\n        address from,\n        address to,\n        uint256 amount\n    ) internal virtual {}\n\n    /**\n     * @dev Hook that is called after any transfer of tokens. This includes\n     * minting and burning.\n     *\n     * Calling conditions:\n     *\n     * - when `from` and `to` are both non-zero, `amount` of ``from``'s tokens\n     * has been transferred to `to`.\n     * - when `from` is zero, `amount` tokens have been minted for `to`.\n     * - when `to` is zero, `amount` of ``from``'s tokens have been burned.\n     * - `from` and `to` are never both zero.\n     *\n     * To learn more about hooks, head to xref:ROOT:extending-contracts.adoc#using-hooks[Using Hooks].\n     */\n    function _afterTokenTransfer(\n        address from,\n        address to,\n        uint256 amount\n    ) internal virtual {}\n}\n\ncontract FlowReceiptToken is ERC20, Ownable {\n\n  constructor () ERC20 (\"Flow Receipt Token\", \"FRT\") {}\n\n  function mint(address to, uint amount) onlyOwner() external {\n    _mint(to, amount);\n  }\n\n  function burn(address from, uint amount) onlyOwner() external {\n    _burn(from, amount);\n  }\n}\n\ncontract Flow {\n  using SafeMath for uint;\n  // State Machine\n  enum State {\n    ACTIVE, // deposits and withdrawals allowed\n    INACTIVE // deposits and withdrawals not allowed\n  }\n  State public state = State.ACTIVE;\n\n  // Fund\n  uint public start;\n  uint public deadline;\n  uint public duration;\n  uint public rate; // in % bp\n  uint public constant daysToSeconds = 24 * 60 * 60; \n  uint public constant secondsInYear = 365 * daysToSeconds;\n  address[] public permittedStablecoins;\n  FlowReceiptToken public flowReceiptToken;\n  address public flowReceiptTokenAddress;\n  \n  struct Stake {\n    uint id;\n    uint amount;\n    address stablecoin;\n    uint timestamp;\n    bool isDeposit;\n  }\n  // Investors\n  address[] public investors;\n  mapping (address => mapping (address => bool)) public hasInvested;\n  mapping (address => mapping (address => bool)) public isInvesting;\n  mapping (address => mapping (address => uint)) public investorStake;\n  mapping (address => Stake) public investorStakeRecord;\n  mapping(address => uint) public availableFunds;\n  uint public nextStakeId;\n\n  // Multi-sig\n  uint public quorum;\n  struct Transfer {\n    uint id;\n    uint amount;\n    address stablecoin;\n    address payable to;\n    uint approvals;\n    bool sent;\n  }\n  mapping(uint => Transfer) public flowTransfers;\n  address[] public flowAdmins; // approvers\n  mapping (address => mapping (uint => bool)) public approvals;\n  address[] public flowWithdrawalAddresses;\n  uint public nextId;\n\n  // mapping (address => bool) public flowAdminsMap;\n  mapping (address => uint) public flowActivity;\n\n  // Flow Stop multi-sig\n  struct Stop {\n      uint id;\n      uint approvals;\n      bool stopped;\n  }\n  mapping (uint => Stop) public flowStop;\n  mapping (address => mapping (uint => bool)) public stopApprovals;\n  uint public stopNextId;\n\n  // Flow Start multi-sig\n  struct Start {\n      uint id;\n      uint approvals;\n      bool started;\n  }\n  mapping (uint => Start) public flowStart;\n  mapping (address => mapping (uint => bool)) public startApprovals;\n  uint public startNextId;\n\n  // Events\n  event TokenMinted (\n    address to,\n    uint amt\n  );\n  event TokenBurnt (\n    address to,\n    uint amt\n  );\n  event Withdrawal (\n    address to,\n    uint amt \n  );\n  event Debug (\n    uint amt\n  );\n\n  constructor (\n    uint _quorum,\n    uint _start,\n    uint tenor,\n    uint _rate,\n    address[] memory _flowAdmins,\n    address[] memory _flowWithdrawalAddresses, \n    address[] memory _permittedStablecoins)\n    {\n      require (_flowAdmins.length <= 4, \"maximum 4 admins\");\n      require (_flowAdmins.length >= 2, \"minimum 2 admins\");\n      require (_quorum >= 2, \"minimum quorum 2\");\n      require (_quorum <= 3, \"maximum quorum 3\");\n      require(tenor > 0, \"tenor must be greater than 0\");\n      require(_rate > 500, \"minimum rate is 5%\");\n      require(_quorum < _flowAdmins.length, \"quorum must be less than number of flow admins\");\n      require(_flowWithdrawalAddresses.length == 2, \"must have 2 withdrawal addresses\");\n      bool isStablecoinZeroAddr = false;\n      for (uint i = 0; i < _permittedStablecoins.length; i++) {\n        if (address(_permittedStablecoins[i]) == address(0)) {\n            isStablecoinZeroAddr = true;\n        }\n      }\n      // require that stablecoins are not address(0)\n      require(!isStablecoinZeroAddr, \"permitted stablecoin cannot be the zero address\");\n      quorum = _quorum;\n      start = block.timestamp + _start.mul(daysToSeconds); // fund start in unix time\n      deadline = start + tenor.mul(daysToSeconds); // fund end in unix time\n      duration = deadline.sub(start); // in secs\n      rate = _rate; // interest in bps\n      flowAdmins = _flowAdmins;\n      // _initFlowAdmins(_flowAdmins);\n      flowWithdrawalAddresses = _flowWithdrawalAddresses;\n      permittedStablecoins = _permittedStablecoins;\n      FlowReceiptToken _flowReceiptToken = new FlowReceiptToken();\n      flowReceiptToken = _flowReceiptToken;\n      flowReceiptTokenAddress = address(flowReceiptToken);\n  }\n\n  modifier flowAdminOnly () {\n    bool allowed = false;\n    for (uint i = 0; i < flowAdmins.length; i++) {\n      if (flowAdmins[i] == msg.sender) {\n        allowed = true;\n      }\n    }\n    require(allowed, 'only flow admins allowed');\n    _;\n  }\n\n  modifier permittedStablecoinsOnly (address _stablecoin) {\n    bool isStablePermitted = false;\n    for (uint i = 0; i < permittedStablecoins.length; i++) {\n      if (_stablecoin == permittedStablecoins[i]) {\n        isStablePermitted = true;\n      }\n    }\n    require(isStablePermitted, \"only permitted stablecoins\");\n    _;\n  }\n\n  // function _initFlowAdmins(address[] memory _flowAdmins) internal {\n  //   for (uint i = 0; i < _flowAdmins.length; i++) {\n  //     flowAdminsMap[_flowAdmins[i]] = true;\n  //   }\n  // }\n\n  // 1. Deposit Stables (Investor)\n\n  function deposit(address _stablecoin, uint _amount) permittedStablecoinsOnly(_stablecoin) public {\n    // Require State Active\n    require(state == State.ACTIVE, \"state must be ACTIVE\");\n    // Require before start\n    require(block.timestamp < start, \"fund start passed\");\n    // Require deadline passed\n    // require(block.timestamp < deadline, \"deadline passed\");\n    require(_amount > 0, \"amount cannot be 0\");\n\n    require(IERC20(_stablecoin).balanceOf(msg.sender) >= _amount, \"insuffcient stablecoin balance\");\n\n    // Transfer stablecoin to this contract  \n    IERC20(_stablecoin).transferFrom(msg.sender, address(this), _amount);\n\n    // Update invested balance\n    investorStakeRecord[msg.sender] = Stake(\n        nextStakeId,\n        _amount,\n        _stablecoin,\n        block.timestamp,\n        true\n    );\n    investorStake[_stablecoin][msg.sender] += _amount;\n    nextStakeId++; // increment next stake id\n    // Update available funds\n    availableFunds[_stablecoin] += _amount;\n\n    // Add user to investors array *only* if they haven't invested before\n    if (!hasInvested[_stablecoin][msg.sender]) {\n      investors.push(msg.sender);\n    }\n\n    // Update investing status\n    isInvesting[_stablecoin][msg.sender] = true;\n    hasInvested[_stablecoin][msg.sender] = true;\n\n    // Mint receipt token\n    flowReceiptToken.mint(msg.sender, _amount);\n\n    emit TokenMinted(msg.sender, _amount);\n  }\n\n  // 2. Withdraw Stables (Investor)\n  \n  function withdraw(address _stablecoin) public {\n    // Require State Active\n    require(state == State.ACTIVE, \"state must be ACTIVE\");\n    // Require deadline passed\n    require(block.timestamp >= deadline, \"deadline has not been reached\");\n\n    // Fetch investing balance\n    uint balance = investorStake[_stablecoin][msg.sender];\n\n    // Require amount greater than 0\n    require(balance > 0, \"insufficient investor balance\");\n\n    // transfer stablecoin\n    IERC20(_stablecoin).transfer(msg.sender, balance + _getRewards(balance));\n\n    // Update investor stake\n    investorStakeRecord[msg.sender] = Stake(\n        nextStakeId,\n        balance,\n        _stablecoin,\n        block.timestamp,\n        false\n    );\n    investorStake[_stablecoin][msg.sender] -= balance;\n    nextStakeId ++; // increment next stake id\n    // Update available funds\n    availableFunds[_stablecoin] -= balance;\n\n    // Burn receipt token\n    flowReceiptToken.burn(msg.sender, balance);\n\n    emit TokenBurnt(msg.sender, balance);\n\n    // Update investing status\n    if (investorStake[_stablecoin][msg.sender] == 0) {\n      isInvesting[_stablecoin][msg.sender] = false;\n    }\n\n  }\n\n    // 3a. Create Flow Admin Transfer\n  function flowCreateTransfer(\n    uint _amount,\n    address payable _to,\n    address _stablecoin)\n    external permittedStablecoinsOnly(_stablecoin) flowAdminOnly() {\n      // Require State Active\n    //   require(state == State.ACTIVE);\n      // Require address is listed\n      bool isWithdrawAddress = false;\n      for (uint i = 0; i < flowWithdrawalAddresses.length; i++) {\n        if (_to == flowWithdrawalAddresses[i]) {\n          isWithdrawAddress = true;\n        }\n      }\n      require(isWithdrawAddress == true, \"withdrawal address is not listed\");\n      // Require balance is greater than amount\n      IERC20 stablecoin = IERC20(_stablecoin);\n      require(stablecoin.balanceOf(address(this)) > _amount, \"insufficent stablecoin balance\");\n      flowTransfers[nextId] = Transfer(\n        nextId,\n        _amount,\n        _stablecoin,\n        _to,\n        0,\n        false\n      );\n      nextId ++;\n  }\n\n  // 3b. Send Flow Transfer\n  function flowTransferTo(uint id) flowAdminOnly() external {\n    // Require State Active\n    // require(state == State.ACTIVE);\n    // require transfer has not been sent\n    require(flowTransfers[id].sent == false, 'transfer has already been sent');\n\n    if (approvals[msg.sender][id] == false) {\n      approvals[msg.sender][id] = true;\n      flowTransfers[id].approvals++;\n    }\n    // check sufficent approvals received\n    if (flowTransfers[id].approvals >= quorum) {\n      flowTransfers[id].sent = true;\n      address payable to = flowTransfers[id].to;\n      uint amount = flowTransfers[id].amount;\n\n      IERC20 stablecoin = IERC20(flowTransfers[id].stablecoin);\n      stablecoin.transfer(to, amount); // make transfer\n\n      flowActivity[address(stablecoin)] += amount; // update total flow activity\n\n      availableFunds[address(stablecoin)] -= amount; // Update available funds\n      emit Withdrawal(to, amount);\n\n      return;\n    }\n  }\n\n  // 4. Flow Deposit\n\n  function flowDeposit(uint _amount, address _stablecoin) \n    external permittedStablecoinsOnly(_stablecoin) flowAdminOnly() {\n      // \n      require(_amount > 0, \"amount cannot be 0\");\n      require(IERC20(_stablecoin).balanceOf(msg.sender) >= _amount, \"insuffcient stablecoin balance\");\n\n      // Transfer stablecoin to this contract  \n      IERC20(_stablecoin).transferFrom(msg.sender, address(this), _amount);\n      \n      flowActivity[_stablecoin] -= _amount; // Update total flow activity\n      availableFunds[_stablecoin] += _amount; // Update available funds\n      \n  }\n\n  // 5a. Emergency STOP\n\n  function flowCreateStop() external flowAdminOnly() {\n    // Require State is Active\n    require(state == State.ACTIVE, \"state must be ACTIVE\");\n    flowStop[stopNextId] = Stop(\n      stopNextId,\n      0,\n      false\n    );\n    stopNextId ++;\n  }\n\n  function flowSetStop(uint id) flowAdminOnly() external {\n    require(state == State.ACTIVE, \"state must be ACTIVE\");\n    require(flowStop[id].stopped == false, 'state has aready been switched to INACTIVE');\n    if (stopApprovals[msg.sender][id] == false) {\n      stopApprovals[msg.sender][id] = true;\n      flowStop[id].approvals++;\n    }\n    if (flowStop[id].approvals >= quorum) {\n      flowStop[id].stopped = true;\n      state = State.INACTIVE;\n      return;\n    }\n  }\n  \n  // 5b. RESTART\n  function flowCreateRestart() external flowAdminOnly() {\n    // Require State is Inactive\n    require(state == State.INACTIVE, \"state must be INACTIVE\");\n    flowStart[startNextId] = Start(\n      startNextId,\n      0,\n      false\n    );\n    startNextId ++;\n  }\n\n  function flowSetRestart(uint id) flowAdminOnly() external {\n    require(state == State.INACTIVE, \"state must be INACTIVE\");\n    require(flowStart[id].started == false, 'state has aready been switched to ACTIVE');\n    if (startApprovals[msg.sender][id] == false) {\n      startApprovals[msg.sender][id] = true;\n      flowStart[id].approvals++;\n    }\n    if (flowStart[id].approvals >= quorum) {\n      flowStart[id].started = true;\n      state = State.ACTIVE;\n      return;\n    }\n  }\n\n  // 6. Get Accured Interest\n  // function getAccruedInterest(address _stablecoin) external view returns(uint accrued) {\n  //   require(isInvesting[_stablecoin][msg.sender] == true, \"investors only\");\n  //   uint balance = investorStake[_stablecoin][msg.sender];\n    \n  //   uint duration = deadline.sub(start);\n  //   uint durationBasis = duration.mul(100 * 100).div(secondsInYear); // in % bp\n\n  //   uint timePassed = block.timestamp.sub(start);\n  //   uint timePassedBasis = timePassed.mul(100 * 100).div(secondsInYear); // in % bp\n\n  //   uint durationReturn = rate.mul(balance).mul(durationBasis).div(100 * 100 * 100 * 100); // in % bp\n  //   uint timePassedReturn = rate.mul(balance).mul(timePassedBasis).div(100 * 100 * 100 * 100); // in % bp\n\n  //   accrued = block.timestamp >= deadline ? durationReturn : timePassedReturn;\n\n  //   return accrued;\n  // }\n\n  function _getRewards(uint balance) internal view returns(uint rewards) {\n    // uint duration = deadline.sub(start);\n    rewards = balance.mul(rate).div(10000).mul(duration).div(secondsInYear);\n    return rewards;\n  }\n\n}",
  "sourcePath": "contracts/Flow.sol",
  "type": "contract"
}