{
  "abi": [
    {
      "inputs": [
        {
          "internalType": "uint256",
          "name": "_quorum",
          "type": "uint256"
        },
        {
          "internalType": "uint256",
          "name": "maturity",
          "type": "uint256"
        },
        {
          "internalType": "address[]",
          "name": "_flowAdmins",
          "type": "address[]"
        },
        {
          "internalType": "address[]",
          "name": "_flowWithdrawalAddresses",
          "type": "address[]"
        },
        {
          "internalType": "address[]",
          "name": "_permittedStablecoins",
          "type": "address[]"
        }
      ],
      "stateMutability": "nonpayable",
      "type": "constructor"
    },
    {
      "anonymous": false,
      "inputs": [
        {
          "indexed": false,
          "internalType": "uint256",
          "name": "amt",
          "type": "uint256"
        }
      ],
      "name": "Debug",
      "type": "event"
    },
    {
      "anonymous": false,
      "inputs": [
        {
          "indexed": false,
          "internalType": "address",
          "name": "to",
          "type": "address"
        },
        {
          "indexed": false,
          "internalType": "uint256",
          "name": "amt",
          "type": "uint256"
        }
      ],
      "name": "TokenBurnt",
      "type": "event"
    },
    {
      "anonymous": false,
      "inputs": [
        {
          "indexed": false,
          "internalType": "address",
          "name": "to",
          "type": "address"
        },
        {
          "indexed": false,
          "internalType": "uint256",
          "name": "amt",
          "type": "uint256"
        }
      ],
      "name": "TokenMinted",
      "type": "event"
    },
    {
      "anonymous": false,
      "inputs": [
        {
          "indexed": false,
          "internalType": "address",
          "name": "to",
          "type": "address"
        },
        {
          "indexed": false,
          "internalType": "uint256",
          "name": "amt",
          "type": "uint256"
        }
      ],
      "name": "Withdrawal",
      "type": "event"
    },
    {
      "inputs": [
        {
          "internalType": "address",
          "name": "",
          "type": "address"
        },
        {
          "internalType": "uint256",
          "name": "",
          "type": "uint256"
        }
      ],
      "name": "approvals",
      "outputs": [
        {
          "internalType": "bool",
          "name": "",
          "type": "bool"
        }
      ],
      "stateMutability": "view",
      "type": "function"
    },
    {
      "inputs": [],
      "name": "availableFunds",
      "outputs": [
        {
          "internalType": "uint256",
          "name": "",
          "type": "uint256"
        }
      ],
      "stateMutability": "view",
      "type": "function"
    },
    {
      "inputs": [],
      "name": "deadline",
      "outputs": [
        {
          "internalType": "uint256",
          "name": "",
          "type": "uint256"
        }
      ],
      "stateMutability": "view",
      "type": "function"
    },
    {
      "inputs": [
        {
          "internalType": "address",
          "name": "_stablecoin",
          "type": "address"
        },
        {
          "internalType": "uint256",
          "name": "_amount",
          "type": "uint256"
        }
      ],
      "name": "deposit",
      "outputs": [],
      "stateMutability": "nonpayable",
      "type": "function"
    },
    {
      "inputs": [
        {
          "internalType": "uint256",
          "name": "",
          "type": "uint256"
        }
      ],
      "name": "flowAdmins",
      "outputs": [
        {
          "internalType": "address",
          "name": "",
          "type": "address"
        }
      ],
      "stateMutability": "view",
      "type": "function"
    },
    {
      "inputs": [
        {
          "internalType": "uint256",
          "name": "_amount",
          "type": "uint256"
        },
        {
          "internalType": "address payable",
          "name": "_to",
          "type": "address"
        },
        {
          "internalType": "address",
          "name": "_stablecoin",
          "type": "address"
        }
      ],
      "name": "flowCreateTransfer",
      "outputs": [],
      "stateMutability": "nonpayable",
      "type": "function"
    },
    {
      "inputs": [],
      "name": "flowReceiptToken",
      "outputs": [
        {
          "internalType": "contract FlowReceiptToken",
          "name": "",
          "type": "address"
        }
      ],
      "stateMutability": "view",
      "type": "function"
    },
    {
      "inputs": [],
      "name": "flowReceiptTokenAddress",
      "outputs": [
        {
          "internalType": "address",
          "name": "",
          "type": "address"
        }
      ],
      "stateMutability": "view",
      "type": "function"
    },
    {
      "inputs": [],
      "name": "flowRestart",
      "outputs": [],
      "stateMutability": "nonpayable",
      "type": "function"
    },
    {
      "inputs": [],
      "name": "flowStop",
      "outputs": [],
      "stateMutability": "nonpayable",
      "type": "function"
    },
    {
      "inputs": [
        {
          "internalType": "uint256",
          "name": "id",
          "type": "uint256"
        }
      ],
      "name": "flowTransferTo",
      "outputs": [],
      "stateMutability": "nonpayable",
      "type": "function"
    },
    {
      "inputs": [
        {
          "internalType": "uint256",
          "name": "",
          "type": "uint256"
        }
      ],
      "name": "flowTransfers",
      "outputs": [
        {
          "internalType": "uint256",
          "name": "id",
          "type": "uint256"
        },
        {
          "internalType": "uint256",
          "name": "amount",
          "type": "uint256"
        },
        {
          "internalType": "address",
          "name": "stablecoin",
          "type": "address"
        },
        {
          "internalType": "address payable",
          "name": "to",
          "type": "address"
        },
        {
          "internalType": "uint256",
          "name": "approvals",
          "type": "uint256"
        },
        {
          "internalType": "bool",
          "name": "sent",
          "type": "bool"
        }
      ],
      "stateMutability": "view",
      "type": "function"
    },
    {
      "inputs": [
        {
          "internalType": "uint256",
          "name": "",
          "type": "uint256"
        }
      ],
      "name": "flowWithdrawalAddresses",
      "outputs": [
        {
          "internalType": "address",
          "name": "",
          "type": "address"
        }
      ],
      "stateMutability": "view",
      "type": "function"
    },
    {
      "inputs": [
        {
          "internalType": "address",
          "name": "",
          "type": "address"
        },
        {
          "internalType": "address",
          "name": "",
          "type": "address"
        }
      ],
      "name": "flowWithdrawals",
      "outputs": [
        {
          "internalType": "uint256",
          "name": "",
          "type": "uint256"
        }
      ],
      "stateMutability": "view",
      "type": "function"
    },
    {
      "inputs": [
        {
          "internalType": "address",
          "name": "_stablecoin",
          "type": "address"
        }
      ],
      "name": "getAccruedInterest",
      "outputs": [
        {
          "internalType": "uint256",
          "name": "accrued",
          "type": "uint256"
        }
      ],
      "stateMutability": "view",
      "type": "function"
    },
    {
      "inputs": [
        {
          "internalType": "address",
          "name": "",
          "type": "address"
        },
        {
          "internalType": "address",
          "name": "",
          "type": "address"
        }
      ],
      "name": "hasInvested",
      "outputs": [
        {
          "internalType": "bool",
          "name": "",
          "type": "bool"
        }
      ],
      "stateMutability": "view",
      "type": "function"
    },
    {
      "inputs": [
        {
          "internalType": "address",
          "name": "",
          "type": "address"
        },
        {
          "internalType": "address",
          "name": "",
          "type": "address"
        }
      ],
      "name": "investorStake",
      "outputs": [
        {
          "internalType": "uint256",
          "name": "",
          "type": "uint256"
        }
      ],
      "stateMutability": "view",
      "type": "function"
    },
    {
      "inputs": [
        {
          "internalType": "uint256",
          "name": "",
          "type": "uint256"
        }
      ],
      "name": "investors",
      "outputs": [
        {
          "internalType": "address",
          "name": "",
          "type": "address"
        }
      ],
      "stateMutability": "view",
      "type": "function"
    },
    {
      "inputs": [
        {
          "internalType": "address",
          "name": "",
          "type": "address"
        },
        {
          "internalType": "address",
          "name": "",
          "type": "address"
        }
      ],
      "name": "isInvesting",
      "outputs": [
        {
          "internalType": "bool",
          "name": "",
          "type": "bool"
        }
      ],
      "stateMutability": "view",
      "type": "function"
    },
    {
      "inputs": [],
      "name": "nextId",
      "outputs": [
        {
          "internalType": "uint256",
          "name": "",
          "type": "uint256"
        }
      ],
      "stateMutability": "view",
      "type": "function"
    },
    {
      "inputs": [
        {
          "internalType": "uint256",
          "name": "",
          "type": "uint256"
        }
      ],
      "name": "permittedStablecoins",
      "outputs": [
        {
          "internalType": "address",
          "name": "",
          "type": "address"
        }
      ],
      "stateMutability": "view",
      "type": "function"
    },
    {
      "inputs": [],
      "name": "quorum",
      "outputs": [
        {
          "internalType": "uint256",
          "name": "",
          "type": "uint256"
        }
      ],
      "stateMutability": "view",
      "type": "function"
    },
    {
      "inputs": [],
      "name": "rate",
      "outputs": [
        {
          "internalType": "uint256",
          "name": "",
          "type": "uint256"
        }
      ],
      "stateMutability": "view",
      "type": "function"
    },
    {
      "inputs": [],
      "name": "start",
      "outputs": [
        {
          "internalType": "uint256",
          "name": "",
          "type": "uint256"
        }
      ],
      "stateMutability": "view",
      "type": "function"
    },
    {
      "inputs": [],
      "name": "state",
      "outputs": [
        {
          "internalType": "enum Flow.State",
          "name": "",
          "type": "uint8"
        }
      ],
      "stateMutability": "view",
      "type": "function"
    },
    {
      "inputs": [
        {
          "internalType": "address",
          "name": "_stablecoin",
          "type": "address"
        },
        {
          "internalType": "uint256",
          "name": "_amount",
          "type": "uint256"
        }
      ],
      "name": "withdraw",
      "outputs": [],
      "stateMutability": "nonpayable",
      "type": "function"
    }
  ],
  "bytecode": "60806040526000805460ff191690556113886002553480156200002157600080fd5b5060405162002d0e38038062002d0e8339810160408190526200004491620004c8565b6004835111156200008f5760405162461bcd60e51b815260206004820152601060248201526f6d6178696d756d20342061646d696e7360801b60448201526064015b60405180910390fd5b600283511015620000d65760405162461bcd60e51b815260206004820152601060248201526f6d696e696d756d20322061646d696e7360801b604482015260640162000086565b60028510156200011c5760405162461bcd60e51b815260206004820152601060248201526f36b4b734b6bab69038bab7b93ab6901960811b604482015260640162000086565b6003851115620001625760405162461bcd60e51b815260206004820152601060248201526f6d6178696d756d2071756f72756d203360801b604482015260640162000086565b60008411620001b45760405162461bcd60e51b815260206004820152601f60248201527f6d61747572697479206d7573742062652067726561746572207468616e203000604482015260640162000086565b825185106200021d5760405162461bcd60e51b815260206004820152602e60248201527f71756f72756d206d757374206265206c657373207468616e206e756d6265722060448201526d6f6620666c6f772061646d696e7360901b606482015260840162000086565b8151600214620002705760405162461bcd60e51b815260206004820181905260248201527f6d75737420686176652032207769746864726177616c20616464726573736573604482015260640162000086565b600c859055426003556200028684601862000584565b6200029390603c62000584565b620002a090603c62000584565b600354620002af9190620005a6565b6001558251620002c790600e90602086019062000359565b508151620002dd90601090602085019062000359565b508051620002f390600490602084019062000359565b5060006040516200030490620003c3565b604051809103906000f08015801562000321573d6000803e3d6000fd5b50600580546001600160a01b039092166001600160a01b031992831681179091556006805490921617905550620005c1945050505050565b828054828255906000526020600020908101928215620003b1579160200282015b82811115620003b157825182546001600160a01b0319166001600160a01b039091161782556020909201916001909101906200037a565b50620003bf929150620003d1565b5090565b610f7c8062001d9283390190565b5b80821115620003bf5760008155600101620003d2565b634e487b7160e01b600052604160045260246000fd5b80516001600160a01b03811681146200041657600080fd5b919050565b600082601f8301126200042d57600080fd5b815160206001600160401b03808311156200044c576200044c620003e8565b8260051b604051601f19603f83011681018181108482111715620004745762000474620003e8565b6040529384528581018301938381019250878511156200049357600080fd5b83870191505b84821015620004bd57620004ad82620003fe565b8352918301919083019062000499565b979650505050505050565b600080600080600060a08688031215620004e157600080fd5b85516020870151604088015191965094506001600160401b03808211156200050857600080fd5b6200051689838a016200041b565b945060608801519150808211156200052d57600080fd5b6200053b89838a016200041b565b935060808801519150808211156200055257600080fd5b5062000561888289016200041b565b9150509295509295909350565b634e487b7160e01b600052601160045260246000fd5b6000816000190483118215151615620005a157620005a16200056e565b500290565b60008219821115620005bc57620005bc6200056e565b500190565b6117c180620005d16000396000f3fe608060405234801561001057600080fd5b506004361061018e5760003560e01c8063830a5b70116100de578063be9a655511610097578063ecc1a84a11610071578063ecc1a84a146103ee578063ed05336d1461041c578063f3fef3a31461042f578063ffabc6731461044257600080fd5b8063be9a6555146103a0578063c19d93fb146103a9578063c5f61ee8146103c357600080fd5b8063830a5b70146102a55780638a606a1c146102ad57806390467b15146102c05780639d914f0a146102d3578063a92f51b914610362578063bbf14e741461038d57600080fd5b80633feb5f2b1161014b5780634b745c36116101255780634b745c36146102385780634d5571061461027657806361b8ce8c1461028957806373884f471461029257600080fd5b80633feb5f2b1461020957806346fcff4c1461021c57806347e7ef241461022557600080fd5b8063086427e0146101935780631703a018146101a857806329dcb0cf146101c45780632c4e722e146101cd5780633aa3b160146101d65780633ba1132114610201575b600080fd5b6101a66101a1366004611547565b610470565b005b6101b1600c5481565b6040519081526020015b60405180910390f35b6101b160015481565b6101b160025481565b6101e96101e4366004611589565b6107d8565b6040516001600160a01b0390911681526020016101bb565b6101a6610802565b6101e9610217366004611589565b6108f2565b6101b1600b5481565b6101a66102333660046115a2565b610902565b6102666102463660046115ce565b600860209081526000928352604080842090915290825290205460ff1681565b60405190151581526020016101bb565b6101e9610284366004611589565b610d31565b6101b160115481565b6006546101e9906001600160a01b031681565b6101a6610d41565b6005546101e9906001600160a01b031681565b6101a66102ce366004611589565b610e2d565b6103266102e1366004611589565b600d60205260009081526040902080546001820154600283015460038401546004850154600590950154939492936001600160a01b0392831693919092169160ff1686565b6040805196875260208701959095526001600160a01b0393841694860194909452911660608401526080830152151560a082015260c0016101bb565b6101b16103703660046115ce565b600a60209081526000928352604080842090915290825290205481565b6101b161039b366004611607565b6110f3565b6101b160035481565b6000546103b69060ff1681565b6040516101bb919061163a565b6101b16103d13660046115ce565b601260209081526000928352604080842090915290825290205481565b6102666103fc3660046115ce565b600960209081526000928352604080842090915290825290205460ff1681565b6101e961042a366004611589565b611252565b6101a661043d3660046115a2565b611262565b6102666104503660046115a2565b600f60209081526000928352604080842090915290825290205460ff1681565b806000805b6004548110156104c8576004818154811061049257610492611662565b6000918252602090912001546001600160a01b03848116911614156104b657600191505b806104c08161168e565b915050610475565b508061051b5760405162461bcd60e51b815260206004820152601a60248201527f6f6e6c79207065726d697474656420737461626c65636f696e7300000000000060448201526064015b60405180910390fd5b6000805b600e5481101561057857336001600160a01b0316600e828154811061054657610546611662565b6000918252602090912001546001600160a01b0316141561056657600191505b806105708161168e565b91505061051f565b50806105965760405162461bcd60e51b8152600401610512906116a9565b6000805460ff1660018111156105ae576105ae611624565b146105b857600080fd5b6000805b60105481101561060f57601081815481106105d9576105d9611662565b6000918252602090912001546001600160a01b03888116911614156105fd57600191505b806106078161168e565b9150506105bc565b506001811515146106625760405162461bcd60e51b815260206004820181905260248201527f7769746864726177616c2061646472657373206973206e6f74206c69737465646044820152606401610512565b6040516370a0823160e01b8152306004820152859088906001600160a01b038316906370a0823190602401602060405180830381865afa1580156106aa573d6000803e3d6000fd5b505050506040513d601f19601f820116820180604052508101906106ce91906116e0565b1161071b5760405162461bcd60e51b815260206004820152601e60248201527f696e737566666963656e7420737461626c65636f696e2062616c616e636500006044820152606401610512565b6040805160c0810182526011805480835260208084018d81526001600160a01b038c81168688019081528e82166060880190815260006080890181815260a08a01828152978252600d9096529889209751885592516001880155516002870180546001600160a01b031990811692841692909217905591516003870180549093169116179055516004840155516005909201805460ff1916921515929092179091558054916107c98361168e565b91905055505050505050505050565b600481815481106107e857600080fd5b6000918252602090912001546001600160a01b0316905081565b6000805b600e5481101561085f57336001600160a01b0316600e828154811061082d5761082d611662565b6000918252602090912001546001600160a01b0316141561084d57600191505b806108578161168e565b915050610806565b508061087d5760405162461bcd60e51b8152600401610512906116a9565b600160005460ff16600181111561089657610896611624565b14156108db5760405162461bcd60e51b81526020600482015260146024820152737374617465206d7573742062652041435449564560601b6044820152606401610512565b600080546001919060ff191682805b021790555050565b600781815481106107e857600080fd5b816000805b60045481101561095a576004818154811061092457610924611662565b6000918252602090912001546001600160a01b038481169116141561094857600191505b806109528161168e565b915050610907565b50806109a85760405162461bcd60e51b815260206004820152601a60248201527f6f6e6c79207065726d697474656420737461626c65636f696e730000000000006044820152606401610512565b6000805460ff1660018111156109c0576109c0611624565b146109ca57600080fd5b6001544210610a0d5760405162461bcd60e51b815260206004820152600f60248201526e191958591b1a5b99481c185cdcd959608a1b6044820152606401610512565b60008311610a525760405162461bcd60e51b81526020600482015260126024820152710616d6f756e742063616e6e6f7420626520360741b6044820152606401610512565b6040516370a0823160e01b815233600482015283906001600160a01b038616906370a0823190602401602060405180830381865afa158015610a98573d6000803e3d6000fd5b505050506040513d601f19601f82011682018060405250810190610abc91906116e0565b1015610b0a5760405162461bcd60e51b815260206004820152601e60248201527f696e737566666369656e7420737461626c65636f696e2062616c616e636500006044820152606401610512565b6040516323b872dd60e01b8152336004820152306024820152604481018490526001600160a01b038516906323b872dd906064016020604051808303816000875af1158015610b5d573d6000803e3d6000fd5b505050506040513d601f19601f82011682018060405250810190610b8191906116f9565b506001600160a01b0384166000908152600a6020908152604080832033845290915281208054859290610bb590849061171b565b9250508190555082600b6000828254610bce919061171b565b90915550506001600160a01b038416600090815260086020908152604080832033845290915290205460ff16610c4157600780546001810182556000919091527fa66cc928b5edb82af9bd49922954155ab7b0942694bea4ce44661d9a8736c6880180546001600160a01b031916331790555b6001600160a01b038481166000818152600960209081526040808320338085529083528184208054600160ff1991821681179092559585526008845282852082865290935292819020805490941690911790925560055491516340c10f1960e01b81526004810191909152602481018690529116906340c10f1990604401600060405180830381600087803b158015610cd957600080fd5b505af1158015610ced573d6000803e3d6000fd5b505060408051338152602081018790527fb9144c96c86541f6fa89c9f2f02495cccf4b08cd6643e26d34ee00aa586558a8935001905060405180910390a150505050565b600e81815481106107e857600080fd5b6000805b600e54811015610d9e57336001600160a01b0316600e8281548110610d6c57610d6c611662565b6000918252602090912001546001600160a01b03161415610d8c57600191505b80610d968161168e565b915050610d45565b5080610dbc5760405162461bcd60e51b8152600401610512906116a9565b6000805460ff166001811115610dd457610dd4611624565b1415610e1b5760405162461bcd60e51b81526020600482015260166024820152757374617465206d75737420626520494e41435449564560501b6044820152606401610512565b60008054819060ff19166001826108ea565b6000805b600e54811015610e8a57336001600160a01b0316600e8281548110610e5857610e58611662565b6000918252602090912001546001600160a01b03161415610e7857600191505b80610e828161168e565b915050610e31565b5080610ea85760405162461bcd60e51b8152600401610512906116a9565b6000805460ff166001811115610ec057610ec0611624565b14610eca57600080fd5b6000828152600d602052604090206005015460ff1615610f2c5760405162461bcd60e51b815260206004820152601e60248201527f7472616e736665722068617320616c7265616479206265656e2073656e7400006044820152606401610512565b336000908152600f6020908152604080832085845290915290205460ff16610f8f57336000908152600f602090815260408083208584528252808320805460ff19166001179055600d9091528120600401805491610f898361168e565b91905055505b600c546000838152600d6020526040902060040154106110ef576000828152600d60205260409081902060058101805460ff19166001908117909155600382015490820154600290920154925163a9059cbb60e01b81526001600160a01b039182166004820181905260248201849052939190911690819063a9059cbb906044016020604051808303816000875af115801561102f573d6000803e3d6000fd5b505050506040513d601f19601f8201168201806040525081019061105391906116f9565b506001600160a01b0380821660009081526012602090815260408083209387168352929052908120805484929061108b90849061171b565b9250508190555081600b60008282546110a49190611733565b9091555050604080516001600160a01b0385168152602081018490527f7fcf532c15f0a6db0bd6d0e038bea71d30d808c7d98cb3bf7268a95bf5081b65910160405180910390a15050505b5050565b6001600160a01b038116600090815260096020908152604080832033845290915281205460ff16151560011461115c5760405162461bcd60e51b815260206004820152600e60248201526d696e766573746f7273206f6e6c7960901b6044820152606401610512565b6001600160a01b0382166000908152600a6020908152604080832033845290915281205460035460015491929161119291611504565b905060006111b06301e133806111aa84612710611517565b90611523565b905060006111c96003544261150490919063ffffffff16565b905060006111e16301e133806111aa84612710611517565b9050600061120c6305f5e1006111aa866112068a60025461151790919063ffffffff16565b90611517565b905060006112316305f5e1006111aa856112068b60025461151790919063ffffffff16565b90506001544210156112435780611245565b815b9998505050505050505050565b601081815481106107e857600080fd5b6000805460ff16600181111561127a5761127a611624565b1461128457600080fd5b6001544210156112d65760405162461bcd60e51b815260206004820152601d60248201527f646561646c696e6520686173206e6f74206265656e20726561636865640000006044820152606401610512565b6001600160a01b0382166000908152600a602090815260408083203384529091529020548181101561134a5760405162461bcd60e51b815260206004820152601d60248201527f696e73756666696369656e7420696e766573746f722062616c616e63650000006044820152606401610512565b60405163a9059cbb60e01b8152336004820152602481018390526001600160a01b0384169063a9059cbb906044016020604051808303816000875af1158015611397573d6000803e3d6000fd5b505050506040513d601f19601f820116820180604052508101906113bb91906116f9565b506001600160a01b0383166000908152600a60209081526040808320338452909152812080548492906113ef908490611733565b9250508190555081600b60008282546114089190611733565b9091555050600554604051632770a7eb60e21b8152336004820152602481018490526001600160a01b0390911690639dc29fac90604401600060405180830381600087803b15801561145957600080fd5b505af115801561146d573d6000803e3d6000fd5b505060408051338152602081018690527f1011952107dd9857c3fc7ee54aaef4f9565140a58923d80c6e15162f7d40a415935001905060405180910390a16001600160a01b0383166000908152600a602090815260408083203384529091529020546114ff576001600160a01b03831660009081526009602090815260408083203384529091529020805460ff191690555b505050565b60006115108284611733565b9392505050565b6000611510828461174a565b60006115108284611769565b6001600160a01b038116811461154457600080fd5b50565b60008060006060848603121561155c57600080fd5b83359250602084013561156e8161152f565b9150604084013561157e8161152f565b809150509250925092565b60006020828403121561159b57600080fd5b5035919050565b600080604083850312156115b557600080fd5b82356115c08161152f565b946020939093013593505050565b600080604083850312156115e157600080fd5b82356115ec8161152f565b915060208301356115fc8161152f565b809150509250929050565b60006020828403121561161957600080fd5b81356115108161152f565b634e487b7160e01b600052602160045260246000fd5b602081016002831061165c57634e487b7160e01b600052602160045260246000fd5b91905290565b634e487b7160e01b600052603260045260246000fd5b634e487b7160e01b600052601160045260246000fd5b60006000198214156116a2576116a2611678565b5060010190565b60208082526018908201527f6f6e6c7920666c6f772061646d696e7320616c6c6f7765640000000000000000604082015260600190565b6000602082840312156116f257600080fd5b5051919050565b60006020828403121561170b57600080fd5b8151801515811461151057600080fd5b6000821982111561172e5761172e611678565b500190565b60008282101561174557611745611678565b500390565b600081600019048311821515161561176457611764611678565b500290565b60008261178657634e487b7160e01b600052601260045260246000fd5b50049056fea264697066735822122042858f2423f2c9d9829d8b21ff216e8368b02c3d5a279e2e3345cb2cf72fac1864736f6c634300080b003360806040523480156200001157600080fd5b5060405180604001604052806012815260200171233637bb902932b1b2b4b83a102a37b5b2b760711b8152506040518060400160405280600381526020016211949560ea1b81525081600390805190602001906200007192919062000100565b5080516200008790600490602084019062000100565b505050620000a46200009e620000aa60201b60201c565b620000ae565b620001e3565b3390565b600580546001600160a01b038381166001600160a01b0319831681179093556040519116919082907f8be0079c531659141344cd1fd0a4f28419497f9722a3daafe3b4186f6b6457e090600090a35050565b8280546200010e90620001a6565b90600052602060002090601f0160209004810192826200013257600085556200017d565b82601f106200014d57805160ff19168380011785556200017d565b828001600101855582156200017d579182015b828111156200017d57825182559160200191906001019062000160565b506200018b9291506200018f565b5090565b5b808211156200018b576000815560010162000190565b600181811c90821680620001bb57607f821691505b60208210811415620001dd57634e487b7160e01b600052602260045260246000fd5b50919050565b610d8980620001f36000396000f3fe608060405234801561001057600080fd5b50600436106101005760003560e01c8063715018a611610097578063a457c2d711610066578063a457c2d714610209578063a9059cbb1461021c578063dd62ed3e1461022f578063f2fde38b1461026857600080fd5b8063715018a6146101cb5780638da5cb5b146101d357806395d89b41146101ee5780639dc29fac146101f657600080fd5b8063313ce567116100d3578063313ce5671461016b578063395093511461017a57806340c10f191461018d57806370a08231146101a257600080fd5b806306fdde0314610105578063095ea7b31461012357806318160ddd1461014657806323b872dd14610158575b600080fd5b61010d61027b565b60405161011a9190610b72565b60405180910390f35b610136610131366004610be3565b61030d565b604051901515815260200161011a565b6002545b60405190815260200161011a565b610136610166366004610c0d565b610323565b6040516012815260200161011a565b610136610188366004610be3565b6103d9565b6101a061019b366004610be3565b610415565b005b61014a6101b0366004610c49565b6001600160a01b031660009081526020819052604090205490565b6101a061044d565b6005546040516001600160a01b03909116815260200161011a565b61010d610483565b6101a0610204366004610be3565b610492565b610136610217366004610be3565b6104c6565b61013661022a366004610be3565b61055f565b61014a61023d366004610c6b565b6001600160a01b03918216600090815260016020908152604080832093909416825291909152205490565b6101a0610276366004610c49565b61056c565b60606003805461028a90610c9e565b80601f01602080910402602001604051908101604052809291908181526020018280546102b690610c9e565b80156103035780601f106102d857610100808354040283529160200191610303565b820191906000526020600020905b8154815290600101906020018083116102e657829003601f168201915b5050505050905090565b600061031a338484610607565b50600192915050565b6001600160a01b038316600090815260016020908152604080832033845290915281205460001981146103c357828110156103b65760405162461bcd60e51b815260206004820152602860248201527f45524332303a207472616e7366657220616d6f756e74206578636565647320616044820152676c6c6f77616e636560c01b60648201526084015b60405180910390fd5b6103c38533858403610607565b6103ce85858561072c565b506001949350505050565b3360008181526001602090815260408083206001600160a01b0387168452909152812054909161031a918590610410908690610cef565b610607565b6005546001600160a01b0316331461043f5760405162461bcd60e51b81526004016103ad90610d07565b61044982826108fb565b5050565b6005546001600160a01b031633146104775760405162461bcd60e51b81526004016103ad90610d07565b61048160006109da565b565b60606004805461028a90610c9e565b6005546001600160a01b031633146104bc5760405162461bcd60e51b81526004016103ad90610d07565b6104498282610a2c565b3360009081526001602090815260408083206001600160a01b0386168452909152812054828110156105485760405162461bcd60e51b815260206004820152602560248201527f45524332303a2064656372656173656420616c6c6f77616e63652062656c6f77604482015264207a65726f60d81b60648201526084016103ad565b6105553385858403610607565b5060019392505050565b600061031a33848461072c565b6005546001600160a01b031633146105965760405162461bcd60e51b81526004016103ad90610d07565b6001600160a01b0381166105fb5760405162461bcd60e51b815260206004820152602660248201527f4f776e61626c653a206e6577206f776e657220697320746865207a65726f206160448201526564647265737360d01b60648201526084016103ad565b610604816109da565b50565b6001600160a01b0383166106695760405162461bcd60e51b8152602060048201526024808201527f45524332303a20617070726f76652066726f6d20746865207a65726f206164646044820152637265737360e01b60648201526084016103ad565b6001600160a01b0382166106ca5760405162461bcd60e51b815260206004820152602260248201527f45524332303a20617070726f766520746f20746865207a65726f206164647265604482015261737360f01b60648201526084016103ad565b6001600160a01b0383811660008181526001602090815260408083209487168084529482529182902085905590518481527f8c5be1e5ebec7d5bd14f71427d1e84f3dd0314c0f7b2291e5b200ac8c7c3b92591015b60405180910390a3505050565b6001600160a01b0383166107905760405162461bcd60e51b815260206004820152602560248201527f45524332303a207472616e736665722066726f6d20746865207a65726f206164604482015264647265737360d81b60648201526084016103ad565b6001600160a01b0382166107f25760405162461bcd60e51b815260206004820152602360248201527f45524332303a207472616e7366657220746f20746865207a65726f206164647260448201526265737360e81b60648201526084016103ad565b6001600160a01b0383166000908152602081905260409020548181101561086a5760405162461bcd60e51b815260206004820152602660248201527f45524332303a207472616e7366657220616d6f756e7420657863656564732062604482015265616c616e636560d01b60648201526084016103ad565b6001600160a01b038085166000908152602081905260408082208585039055918516815290812080548492906108a1908490610cef565b92505081905550826001600160a01b0316846001600160a01b03167fddf252ad1be2c89b69c2b068fc378daa952ba7f163c4a11628f55a4df523b3ef846040516108ed91815260200190565b60405180910390a350505050565b6001600160a01b0382166109515760405162461bcd60e51b815260206004820152601f60248201527f45524332303a206d696e7420746f20746865207a65726f20616464726573730060448201526064016103ad565b80600260008282546109639190610cef565b90915550506001600160a01b03821660009081526020819052604081208054839290610990908490610cef565b90915550506040518181526001600160a01b038316906000907fddf252ad1be2c89b69c2b068fc378daa952ba7f163c4a11628f55a4df523b3ef9060200160405180910390a35050565b600580546001600160a01b038381166001600160a01b0319831681179093556040519116919082907f8be0079c531659141344cd1fd0a4f28419497f9722a3daafe3b4186f6b6457e090600090a35050565b6001600160a01b038216610a8c5760405162461bcd60e51b815260206004820152602160248201527f45524332303a206275726e2066726f6d20746865207a65726f206164647265736044820152607360f81b60648201526084016103ad565b6001600160a01b03821660009081526020819052604090205481811015610b005760405162461bcd60e51b815260206004820152602260248201527f45524332303a206275726e20616d6f756e7420657863656564732062616c616e604482015261636560f01b60648201526084016103ad565b6001600160a01b0383166000908152602081905260408120838303905560028054849290610b2f908490610d3c565b90915550506040518281526000906001600160a01b038516907fddf252ad1be2c89b69c2b068fc378daa952ba7f163c4a11628f55a4df523b3ef9060200161071f565b600060208083528351808285015260005b81811015610b9f57858101830151858201604001528201610b83565b81811115610bb1576000604083870101525b50601f01601f1916929092016040019392505050565b80356001600160a01b0381168114610bde57600080fd5b919050565b60008060408385031215610bf657600080fd5b610bff83610bc7565b946020939093013593505050565b600080600060608486031215610c2257600080fd5b610c2b84610bc7565b9250610c3960208501610bc7565b9150604084013590509250925092565b600060208284031215610c5b57600080fd5b610c6482610bc7565b9392505050565b60008060408385031215610c7e57600080fd5b610c8783610bc7565b9150610c9560208401610bc7565b90509250929050565b600181811c90821680610cb257607f821691505b60208210811415610cd357634e487b7160e01b600052602260045260246000fd5b50919050565b634e487b7160e01b600052601160045260246000fd5b60008219821115610d0257610d02610cd9565b500190565b6020808252818101527f4f776e61626c653a2063616c6c6572206973206e6f7420746865206f776e6572604082015260600190565b600082821015610d4e57610d4e610cd9565b50039056fea26469706673582212205a2a72a23855ccdeae189e8bdba4144987a653e2d2870f482b9e7ac7c2a07dbe64736f6c634300080b0033",
  "bytecodeSha1": "8d0979a118217370ab51f4fc9f247d70ff52fbd0",
  "compiler": {
    "evm_version": "istanbul",
    "optimizer": {
      "enabled": true,
      "runs": 200
    },
    "version": "0.8.11+commit.d7f03943"
  },
  "contractName": "Flow",
  "language": "Solidity",
  "natspec": {
    "kind": "dev",
    "methods": {},
    "version": 1
  },
  "opcodes": "PUSH1 0x80 PUSH1 0x40 MSTORE CALLVALUE DUP1 ISZERO PUSH2 0x10 JUMPI PUSH1 0x0 DUP1 REVERT JUMPDEST POP PUSH1 0x4 CALLDATASIZE LT PUSH2 0x18E JUMPI PUSH1 0x0 CALLDATALOAD PUSH1 0xE0 SHR DUP1 PUSH4 0x830A5B70 GT PUSH2 0xDE JUMPI DUP1 PUSH4 0xBE9A6555 GT PUSH2 0x97 JUMPI DUP1 PUSH4 0xECC1A84A GT PUSH2 0x71 JUMPI DUP1 PUSH4 0xECC1A84A EQ PUSH2 0x3EE JUMPI DUP1 PUSH4 0xED05336D EQ PUSH2 0x41C JUMPI DUP1 PUSH4 0xF3FEF3A3 EQ PUSH2 0x42F JUMPI DUP1 PUSH4 0xFFABC673 EQ PUSH2 0x442 JUMPI PUSH1 0x0 DUP1 REVERT JUMPDEST DUP1 PUSH4 0xBE9A6555 EQ PUSH2 0x3A0 JUMPI DUP1 PUSH4 0xC19D93FB EQ PUSH2 0x3A9 JUMPI DUP1 PUSH4 0xC5F61EE8 EQ PUSH2 0x3C3 JUMPI PUSH1 0x0 DUP1 REVERT JUMPDEST DUP1 PUSH4 0x830A5B70 EQ PUSH2 0x2A5 JUMPI DUP1 PUSH4 0x8A606A1C EQ PUSH2 0x2AD JUMPI DUP1 PUSH4 0x90467B15 EQ PUSH2 0x2C0 JUMPI DUP1 PUSH4 0x9D914F0A EQ PUSH2 0x2D3 JUMPI DUP1 PUSH4 0xA92F51B9 EQ PUSH2 0x362 JUMPI DUP1 PUSH4 0xBBF14E74 EQ PUSH2 0x38D JUMPI PUSH1 0x0 DUP1 REVERT JUMPDEST DUP1 PUSH4 0x3FEB5F2B GT PUSH2 0x14B JUMPI DUP1 PUSH4 0x4B745C36 GT PUSH2 0x125 JUMPI DUP1 PUSH4 0x4B745C36 EQ PUSH2 0x238 JUMPI DUP1 PUSH4 0x4D557106 EQ PUSH2 0x276 JUMPI DUP1 PUSH4 0x61B8CE8C EQ PUSH2 0x289 JUMPI DUP1 PUSH4 0x73884F47 EQ PUSH2 0x292 JUMPI PUSH1 0x0 DUP1 REVERT JUMPDEST DUP1 PUSH4 0x3FEB5F2B EQ PUSH2 0x209 JUMPI DUP1 PUSH4 0x46FCFF4C EQ PUSH2 0x21C JUMPI DUP1 PUSH4 0x47E7EF24 EQ PUSH2 0x225 JUMPI PUSH1 0x0 DUP1 REVERT JUMPDEST DUP1 PUSH4 0x86427E0 EQ PUSH2 0x193 JUMPI DUP1 PUSH4 0x1703A018 EQ PUSH2 0x1A8 JUMPI DUP1 PUSH4 0x29DCB0CF EQ PUSH2 0x1C4 JUMPI DUP1 PUSH4 0x2C4E722E EQ PUSH2 0x1CD JUMPI DUP1 PUSH4 0x3AA3B160 EQ PUSH2 0x1D6 JUMPI DUP1 PUSH4 0x3BA11321 EQ PUSH2 0x201 JUMPI JUMPDEST PUSH1 0x0 DUP1 REVERT JUMPDEST PUSH2 0x1A6 PUSH2 0x1A1 CALLDATASIZE PUSH1 0x4 PUSH2 0x1547 JUMP JUMPDEST PUSH2 0x470 JUMP JUMPDEST STOP JUMPDEST PUSH2 0x1B1 PUSH1 0xC SLOAD DUP2 JUMP JUMPDEST PUSH1 0x40 MLOAD SWAP1 DUP2 MSTORE PUSH1 0x20 ADD JUMPDEST PUSH1 0x40 MLOAD DUP1 SWAP2 SUB SWAP1 RETURN JUMPDEST PUSH2 0x1B1 PUSH1 0x1 SLOAD DUP2 JUMP JUMPDEST PUSH2 0x1B1 PUSH1 0x2 SLOAD DUP2 JUMP JUMPDEST PUSH2 0x1E9 PUSH2 0x1E4 CALLDATASIZE PUSH1 0x4 PUSH2 0x1589 JUMP JUMPDEST PUSH2 0x7D8 JUMP JUMPDEST PUSH1 0x40 MLOAD PUSH1 0x1 PUSH1 0x1 PUSH1 0xA0 SHL SUB SWAP1 SWAP2 AND DUP2 MSTORE PUSH1 0x20 ADD PUSH2 0x1BB JUMP JUMPDEST PUSH2 0x1A6 PUSH2 0x802 JUMP JUMPDEST PUSH2 0x1E9 PUSH2 0x217 CALLDATASIZE PUSH1 0x4 PUSH2 0x1589 JUMP JUMPDEST PUSH2 0x8F2 JUMP JUMPDEST PUSH2 0x1B1 PUSH1 0xB SLOAD DUP2 JUMP JUMPDEST PUSH2 0x1A6 PUSH2 0x233 CALLDATASIZE PUSH1 0x4 PUSH2 0x15A2 JUMP JUMPDEST PUSH2 0x902 JUMP JUMPDEST PUSH2 0x266 PUSH2 0x246 CALLDATASIZE PUSH1 0x4 PUSH2 0x15CE JUMP JUMPDEST PUSH1 0x8 PUSH1 0x20 SWAP1 DUP2 MSTORE PUSH1 0x0 SWAP3 DUP4 MSTORE PUSH1 0x40 DUP1 DUP5 KECCAK256 SWAP1 SWAP2 MSTORE SWAP1 DUP3 MSTORE SWAP1 KECCAK256 SLOAD PUSH1 0xFF AND DUP2 JUMP JUMPDEST PUSH1 0x40 MLOAD SWAP1 ISZERO ISZERO DUP2 MSTORE PUSH1 0x20 ADD PUSH2 0x1BB JUMP JUMPDEST PUSH2 0x1E9 PUSH2 0x284 CALLDATASIZE PUSH1 0x4 PUSH2 0x1589 JUMP JUMPDEST PUSH2 0xD31 JUMP JUMPDEST PUSH2 0x1B1 PUSH1 0x11 SLOAD DUP2 JUMP JUMPDEST PUSH1 0x6 SLOAD PUSH2 0x1E9 SWAP1 PUSH1 0x1 PUSH1 0x1 PUSH1 0xA0 SHL SUB AND DUP2 JUMP JUMPDEST PUSH2 0x1A6 PUSH2 0xD41 JUMP JUMPDEST PUSH1 0x5 SLOAD PUSH2 0x1E9 SWAP1 PUSH1 0x1 PUSH1 0x1 PUSH1 0xA0 SHL SUB AND DUP2 JUMP JUMPDEST PUSH2 0x1A6 PUSH2 0x2CE CALLDATASIZE PUSH1 0x4 PUSH2 0x1589 JUMP JUMPDEST PUSH2 0xE2D JUMP JUMPDEST PUSH2 0x326 PUSH2 0x2E1 CALLDATASIZE PUSH1 0x4 PUSH2 0x1589 JUMP JUMPDEST PUSH1 0xD PUSH1 0x20 MSTORE PUSH1 0x0 SWAP1 DUP2 MSTORE PUSH1 0x40 SWAP1 KECCAK256 DUP1 SLOAD PUSH1 0x1 DUP3 ADD SLOAD PUSH1 0x2 DUP4 ADD SLOAD PUSH1 0x3 DUP5 ADD SLOAD PUSH1 0x4 DUP6 ADD SLOAD PUSH1 0x5 SWAP1 SWAP6 ADD SLOAD SWAP4 SWAP5 SWAP3 SWAP4 PUSH1 0x1 PUSH1 0x1 PUSH1 0xA0 SHL SUB SWAP3 DUP4 AND SWAP4 SWAP2 SWAP1 SWAP3 AND SWAP2 PUSH1 0xFF AND DUP7 JUMP JUMPDEST PUSH1 0x40 DUP1 MLOAD SWAP7 DUP8 MSTORE PUSH1 0x20 DUP8 ADD SWAP6 SWAP1 SWAP6 MSTORE PUSH1 0x1 PUSH1 0x1 PUSH1 0xA0 SHL SUB SWAP4 DUP5 AND SWAP5 DUP7 ADD SWAP5 SWAP1 SWAP5 MSTORE SWAP2 AND PUSH1 0x60 DUP5 ADD MSTORE PUSH1 0x80 DUP4 ADD MSTORE ISZERO ISZERO PUSH1 0xA0 DUP3 ADD MSTORE PUSH1 0xC0 ADD PUSH2 0x1BB JUMP JUMPDEST PUSH2 0x1B1 PUSH2 0x370 CALLDATASIZE PUSH1 0x4 PUSH2 0x15CE JUMP JUMPDEST PUSH1 0xA PUSH1 0x20 SWAP1 DUP2 MSTORE PUSH1 0x0 SWAP3 DUP4 MSTORE PUSH1 0x40 DUP1 DUP5 KECCAK256 SWAP1 SWAP2 MSTORE SWAP1 DUP3 MSTORE SWAP1 KECCAK256 SLOAD DUP2 JUMP JUMPDEST PUSH2 0x1B1 PUSH2 0x39B CALLDATASIZE PUSH1 0x4 PUSH2 0x1607 JUMP JUMPDEST PUSH2 0x10F3 JUMP JUMPDEST PUSH2 0x1B1 PUSH1 0x3 SLOAD DUP2 JUMP JUMPDEST PUSH1 0x0 SLOAD PUSH2 0x3B6 SWAP1 PUSH1 0xFF AND DUP2 JUMP JUMPDEST PUSH1 0x40 MLOAD PUSH2 0x1BB SWAP2 SWAP1 PUSH2 0x163A JUMP JUMPDEST PUSH2 0x1B1 PUSH2 0x3D1 CALLDATASIZE PUSH1 0x4 PUSH2 0x15CE JUMP JUMPDEST PUSH1 0x12 PUSH1 0x20 SWAP1 DUP2 MSTORE PUSH1 0x0 SWAP3 DUP4 MSTORE PUSH1 0x40 DUP1 DUP5 KECCAK256 SWAP1 SWAP2 MSTORE SWAP1 DUP3 MSTORE SWAP1 KECCAK256 SLOAD DUP2 JUMP JUMPDEST PUSH2 0x266 PUSH2 0x3FC CALLDATASIZE PUSH1 0x4 PUSH2 0x15CE JUMP JUMPDEST PUSH1 0x9 PUSH1 0x20 SWAP1 DUP2 MSTORE PUSH1 0x0 SWAP3 DUP4 MSTORE PUSH1 0x40 DUP1 DUP5 KECCAK256 SWAP1 SWAP2 MSTORE SWAP1 DUP3 MSTORE SWAP1 KECCAK256 SLOAD PUSH1 0xFF AND DUP2 JUMP JUMPDEST PUSH2 0x1E9 PUSH2 0x42A CALLDATASIZE PUSH1 0x4 PUSH2 0x1589 JUMP JUMPDEST PUSH2 0x1252 JUMP JUMPDEST PUSH2 0x1A6 PUSH2 0x43D CALLDATASIZE PUSH1 0x4 PUSH2 0x15A2 JUMP JUMPDEST PUSH2 0x1262 JUMP JUMPDEST PUSH2 0x266 PUSH2 0x450 CALLDATASIZE PUSH1 0x4 PUSH2 0x15A2 JUMP JUMPDEST PUSH1 0xF PUSH1 0x20 SWAP1 DUP2 MSTORE PUSH1 0x0 SWAP3 DUP4 MSTORE PUSH1 0x40 DUP1 DUP5 KECCAK256 SWAP1 SWAP2 MSTORE SWAP1 DUP3 MSTORE SWAP1 KECCAK256 SLOAD PUSH1 0xFF AND DUP2 JUMP JUMPDEST DUP1 PUSH1 0x0 DUP1 JUMPDEST PUSH1 0x4 SLOAD DUP2 LT ISZERO PUSH2 0x4C8 JUMPI PUSH1 0x4 DUP2 DUP2 SLOAD DUP2 LT PUSH2 0x492 JUMPI PUSH2 0x492 PUSH2 0x1662 JUMP JUMPDEST PUSH1 0x0 SWAP2 DUP3 MSTORE PUSH1 0x20 SWAP1 SWAP2 KECCAK256 ADD SLOAD PUSH1 0x1 PUSH1 0x1 PUSH1 0xA0 SHL SUB DUP5 DUP2 AND SWAP2 AND EQ ISZERO PUSH2 0x4B6 JUMPI PUSH1 0x1 SWAP2 POP JUMPDEST DUP1 PUSH2 0x4C0 DUP2 PUSH2 0x168E JUMP JUMPDEST SWAP2 POP POP PUSH2 0x475 JUMP JUMPDEST POP DUP1 PUSH2 0x51B JUMPI PUSH1 0x40 MLOAD PUSH3 0x461BCD PUSH1 0xE5 SHL DUP2 MSTORE PUSH1 0x20 PUSH1 0x4 DUP3 ADD MSTORE PUSH1 0x1A PUSH1 0x24 DUP3 ADD MSTORE PUSH32 0x6F6E6C79207065726D697474656420737461626C65636F696E73000000000000 PUSH1 0x44 DUP3 ADD MSTORE PUSH1 0x64 ADD JUMPDEST PUSH1 0x40 MLOAD DUP1 SWAP2 SUB SWAP1 REVERT JUMPDEST PUSH1 0x0 DUP1 JUMPDEST PUSH1 0xE SLOAD DUP2 LT ISZERO PUSH2 0x578 JUMPI CALLER PUSH1 0x1 PUSH1 0x1 PUSH1 0xA0 SHL SUB AND PUSH1 0xE DUP3 DUP2 SLOAD DUP2 LT PUSH2 0x546 JUMPI PUSH2 0x546 PUSH2 0x1662 JUMP JUMPDEST PUSH1 0x0 SWAP2 DUP3 MSTORE PUSH1 0x20 SWAP1 SWAP2 KECCAK256 ADD SLOAD PUSH1 0x1 PUSH1 0x1 PUSH1 0xA0 SHL SUB AND EQ ISZERO PUSH2 0x566 JUMPI PUSH1 0x1 SWAP2 POP JUMPDEST DUP1 PUSH2 0x570 DUP2 PUSH2 0x168E JUMP JUMPDEST SWAP2 POP POP PUSH2 0x51F JUMP JUMPDEST POP DUP1 PUSH2 0x596 JUMPI PUSH1 0x40 MLOAD PUSH3 0x461BCD PUSH1 0xE5 SHL DUP2 MSTORE PUSH1 0x4 ADD PUSH2 0x512 SWAP1 PUSH2 0x16A9 JUMP JUMPDEST PUSH1 0x0 DUP1 SLOAD PUSH1 0xFF AND PUSH1 0x1 DUP2 GT ISZERO PUSH2 0x5AE JUMPI PUSH2 0x5AE PUSH2 0x1624 JUMP JUMPDEST EQ PUSH2 0x5B8 JUMPI PUSH1 0x0 DUP1 REVERT JUMPDEST PUSH1 0x0 DUP1 JUMPDEST PUSH1 0x10 SLOAD DUP2 LT ISZERO PUSH2 0x60F JUMPI PUSH1 0x10 DUP2 DUP2 SLOAD DUP2 LT PUSH2 0x5D9 JUMPI PUSH2 0x5D9 PUSH2 0x1662 JUMP JUMPDEST PUSH1 0x0 SWAP2 DUP3 MSTORE PUSH1 0x20 SWAP1 SWAP2 KECCAK256 ADD SLOAD PUSH1 0x1 PUSH1 0x1 PUSH1 0xA0 SHL SUB DUP9 DUP2 AND SWAP2 AND EQ ISZERO PUSH2 0x5FD JUMPI PUSH1 0x1 SWAP2 POP JUMPDEST DUP1 PUSH2 0x607 DUP2 PUSH2 0x168E JUMP JUMPDEST SWAP2 POP POP PUSH2 0x5BC JUMP JUMPDEST POP PUSH1 0x1 DUP2 ISZERO ISZERO EQ PUSH2 0x662 JUMPI PUSH1 0x40 MLOAD PUSH3 0x461BCD PUSH1 0xE5 SHL DUP2 MSTORE PUSH1 0x20 PUSH1 0x4 DUP3 ADD DUP2 SWAP1 MSTORE PUSH1 0x24 DUP3 ADD MSTORE PUSH32 0x7769746864726177616C2061646472657373206973206E6F74206C6973746564 PUSH1 0x44 DUP3 ADD MSTORE PUSH1 0x64 ADD PUSH2 0x512 JUMP JUMPDEST PUSH1 0x40 MLOAD PUSH4 0x70A08231 PUSH1 0xE0 SHL DUP2 MSTORE ADDRESS PUSH1 0x4 DUP3 ADD MSTORE DUP6 SWAP1 DUP9 SWAP1 PUSH1 0x1 PUSH1 0x1 PUSH1 0xA0 SHL SUB DUP4 AND SWAP1 PUSH4 0x70A08231 SWAP1 PUSH1 0x24 ADD PUSH1 0x20 PUSH1 0x40 MLOAD DUP1 DUP4 SUB DUP2 DUP7 GAS STATICCALL ISZERO DUP1 ISZERO PUSH2 0x6AA JUMPI RETURNDATASIZE PUSH1 0x0 DUP1 RETURNDATACOPY RETURNDATASIZE PUSH1 0x0 REVERT JUMPDEST POP POP POP POP PUSH1 0x40 MLOAD RETURNDATASIZE PUSH1 0x1F NOT PUSH1 0x1F DUP3 ADD AND DUP3 ADD DUP1 PUSH1 0x40 MSTORE POP DUP2 ADD SWAP1 PUSH2 0x6CE SWAP2 SWAP1 PUSH2 0x16E0 JUMP JUMPDEST GT PUSH2 0x71B JUMPI PUSH1 0x40 MLOAD PUSH3 0x461BCD PUSH1 0xE5 SHL DUP2 MSTORE PUSH1 0x20 PUSH1 0x4 DUP3 ADD MSTORE PUSH1 0x1E PUSH1 0x24 DUP3 ADD MSTORE PUSH32 0x696E737566666963656E7420737461626C65636F696E2062616C616E63650000 PUSH1 0x44 DUP3 ADD MSTORE PUSH1 0x64 ADD PUSH2 0x512 JUMP JUMPDEST PUSH1 0x40 DUP1 MLOAD PUSH1 0xC0 DUP2 ADD DUP3 MSTORE PUSH1 0x11 DUP1 SLOAD DUP1 DUP4 MSTORE PUSH1 0x20 DUP1 DUP5 ADD DUP14 DUP2 MSTORE PUSH1 0x1 PUSH1 0x1 PUSH1 0xA0 SHL SUB DUP13 DUP2 AND DUP7 DUP9 ADD SWAP1 DUP2 MSTORE DUP15 DUP3 AND PUSH1 0x60 DUP9 ADD SWAP1 DUP2 MSTORE PUSH1 0x0 PUSH1 0x80 DUP10 ADD DUP2 DUP2 MSTORE PUSH1 0xA0 DUP11 ADD DUP3 DUP2 MSTORE SWAP8 DUP3 MSTORE PUSH1 0xD SWAP1 SWAP7 MSTORE SWAP9 DUP10 KECCAK256 SWAP8 MLOAD DUP9 SSTORE SWAP3 MLOAD PUSH1 0x1 DUP9 ADD SSTORE MLOAD PUSH1 0x2 DUP8 ADD DUP1 SLOAD PUSH1 0x1 PUSH1 0x1 PUSH1 0xA0 SHL SUB NOT SWAP1 DUP2 AND SWAP3 DUP5 AND SWAP3 SWAP1 SWAP3 OR SWAP1 SSTORE SWAP2 MLOAD PUSH1 0x3 DUP8 ADD DUP1 SLOAD SWAP1 SWAP4 AND SWAP2 AND OR SWAP1 SSTORE MLOAD PUSH1 0x4 DUP5 ADD SSTORE MLOAD PUSH1 0x5 SWAP1 SWAP3 ADD DUP1 SLOAD PUSH1 0xFF NOT AND SWAP3 ISZERO ISZERO SWAP3 SWAP1 SWAP3 OR SWAP1 SWAP2 SSTORE DUP1 SLOAD SWAP2 PUSH2 0x7C9 DUP4 PUSH2 0x168E JUMP JUMPDEST SWAP2 SWAP1 POP SSTORE POP POP POP POP POP POP POP POP POP JUMP JUMPDEST PUSH1 0x4 DUP2 DUP2 SLOAD DUP2 LT PUSH2 0x7E8 JUMPI PUSH1 0x0 DUP1 REVERT JUMPDEST PUSH1 0x0 SWAP2 DUP3 MSTORE PUSH1 0x20 SWAP1 SWAP2 KECCAK256 ADD SLOAD PUSH1 0x1 PUSH1 0x1 PUSH1 0xA0 SHL SUB AND SWAP1 POP DUP2 JUMP JUMPDEST PUSH1 0x0 DUP1 JUMPDEST PUSH1 0xE SLOAD DUP2 LT ISZERO PUSH2 0x85F JUMPI CALLER PUSH1 0x1 PUSH1 0x1 PUSH1 0xA0 SHL SUB AND PUSH1 0xE DUP3 DUP2 SLOAD DUP2 LT PUSH2 0x82D JUMPI PUSH2 0x82D PUSH2 0x1662 JUMP JUMPDEST PUSH1 0x0 SWAP2 DUP3 MSTORE PUSH1 0x20 SWAP1 SWAP2 KECCAK256 ADD SLOAD PUSH1 0x1 PUSH1 0x1 PUSH1 0xA0 SHL SUB AND EQ ISZERO PUSH2 0x84D JUMPI PUSH1 0x1 SWAP2 POP JUMPDEST DUP1 PUSH2 0x857 DUP2 PUSH2 0x168E JUMP JUMPDEST SWAP2 POP POP PUSH2 0x806 JUMP JUMPDEST POP DUP1 PUSH2 0x87D JUMPI PUSH1 0x40 MLOAD PUSH3 0x461BCD PUSH1 0xE5 SHL DUP2 MSTORE PUSH1 0x4 ADD PUSH2 0x512 SWAP1 PUSH2 0x16A9 JUMP JUMPDEST PUSH1 0x1 PUSH1 0x0 SLOAD PUSH1 0xFF AND PUSH1 0x1 DUP2 GT ISZERO PUSH2 0x896 JUMPI PUSH2 0x896 PUSH2 0x1624 JUMP JUMPDEST EQ ISZERO PUSH2 0x8DB JUMPI PUSH1 0x40 MLOAD PUSH3 0x461BCD PUSH1 0xE5 SHL DUP2 MSTORE PUSH1 0x20 PUSH1 0x4 DUP3 ADD MSTORE PUSH1 0x14 PUSH1 0x24 DUP3 ADD MSTORE PUSH20 0x7374617465206D75737420626520414354495645 PUSH1 0x60 SHL PUSH1 0x44 DUP3 ADD MSTORE PUSH1 0x64 ADD PUSH2 0x512 JUMP JUMPDEST PUSH1 0x0 DUP1 SLOAD PUSH1 0x1 SWAP2 SWAP1 PUSH1 0xFF NOT AND DUP3 DUP1 JUMPDEST MUL OR SWAP1 SSTORE POP POP JUMP JUMPDEST PUSH1 0x7 DUP2 DUP2 SLOAD DUP2 LT PUSH2 0x7E8 JUMPI PUSH1 0x0 DUP1 REVERT JUMPDEST DUP2 PUSH1 0x0 DUP1 JUMPDEST PUSH1 0x4 SLOAD DUP2 LT ISZERO PUSH2 0x95A JUMPI PUSH1 0x4 DUP2 DUP2 SLOAD DUP2 LT PUSH2 0x924 JUMPI PUSH2 0x924 PUSH2 0x1662 JUMP JUMPDEST PUSH1 0x0 SWAP2 DUP3 MSTORE PUSH1 0x20 SWAP1 SWAP2 KECCAK256 ADD SLOAD PUSH1 0x1 PUSH1 0x1 PUSH1 0xA0 SHL SUB DUP5 DUP2 AND SWAP2 AND EQ ISZERO PUSH2 0x948 JUMPI PUSH1 0x1 SWAP2 POP JUMPDEST DUP1 PUSH2 0x952 DUP2 PUSH2 0x168E JUMP JUMPDEST SWAP2 POP POP PUSH2 0x907 JUMP JUMPDEST POP DUP1 PUSH2 0x9A8 JUMPI PUSH1 0x40 MLOAD PUSH3 0x461BCD PUSH1 0xE5 SHL DUP2 MSTORE PUSH1 0x20 PUSH1 0x4 DUP3 ADD MSTORE PUSH1 0x1A PUSH1 0x24 DUP3 ADD MSTORE PUSH32 0x6F6E6C79207065726D697474656420737461626C65636F696E73000000000000 PUSH1 0x44 DUP3 ADD MSTORE PUSH1 0x64 ADD PUSH2 0x512 JUMP JUMPDEST PUSH1 0x0 DUP1 SLOAD PUSH1 0xFF AND PUSH1 0x1 DUP2 GT ISZERO PUSH2 0x9C0 JUMPI PUSH2 0x9C0 PUSH2 0x1624 JUMP JUMPDEST EQ PUSH2 0x9CA JUMPI PUSH1 0x0 DUP1 REVERT JUMPDEST PUSH1 0x1 SLOAD TIMESTAMP LT PUSH2 0xA0D JUMPI PUSH1 0x40 MLOAD PUSH3 0x461BCD PUSH1 0xE5 SHL DUP2 MSTORE PUSH1 0x20 PUSH1 0x4 DUP3 ADD MSTORE PUSH1 0xF PUSH1 0x24 DUP3 ADD MSTORE PUSH15 0x191958591B1A5B99481C185CDCD959 PUSH1 0x8A SHL PUSH1 0x44 DUP3 ADD MSTORE PUSH1 0x64 ADD PUSH2 0x512 JUMP JUMPDEST PUSH1 0x0 DUP4 GT PUSH2 0xA52 JUMPI PUSH1 0x40 MLOAD PUSH3 0x461BCD PUSH1 0xE5 SHL DUP2 MSTORE PUSH1 0x20 PUSH1 0x4 DUP3 ADD MSTORE PUSH1 0x12 PUSH1 0x24 DUP3 ADD MSTORE PUSH18 0x616D6F756E742063616E6E6F74206265203 PUSH1 0x74 SHL PUSH1 0x44 DUP3 ADD MSTORE PUSH1 0x64 ADD PUSH2 0x512 JUMP JUMPDEST PUSH1 0x40 MLOAD PUSH4 0x70A08231 PUSH1 0xE0 SHL DUP2 MSTORE CALLER PUSH1 0x4 DUP3 ADD MSTORE DUP4 SWAP1 PUSH1 0x1 PUSH1 0x1 PUSH1 0xA0 SHL SUB DUP7 AND SWAP1 PUSH4 0x70A08231 SWAP1 PUSH1 0x24 ADD PUSH1 0x20 PUSH1 0x40 MLOAD DUP1 DUP4 SUB DUP2 DUP7 GAS STATICCALL ISZERO DUP1 ISZERO PUSH2 0xA98 JUMPI RETURNDATASIZE PUSH1 0x0 DUP1 RETURNDATACOPY RETURNDATASIZE PUSH1 0x0 REVERT JUMPDEST POP POP POP POP PUSH1 0x40 MLOAD RETURNDATASIZE PUSH1 0x1F NOT PUSH1 0x1F DUP3 ADD AND DUP3 ADD DUP1 PUSH1 0x40 MSTORE POP DUP2 ADD SWAP1 PUSH2 0xABC SWAP2 SWAP1 PUSH2 0x16E0 JUMP JUMPDEST LT ISZERO PUSH2 0xB0A JUMPI PUSH1 0x40 MLOAD PUSH3 0x461BCD PUSH1 0xE5 SHL DUP2 MSTORE PUSH1 0x20 PUSH1 0x4 DUP3 ADD MSTORE PUSH1 0x1E PUSH1 0x24 DUP3 ADD MSTORE PUSH32 0x696E737566666369656E7420737461626C65636F696E2062616C616E63650000 PUSH1 0x44 DUP3 ADD MSTORE PUSH1 0x64 ADD PUSH2 0x512 JUMP JUMPDEST PUSH1 0x40 MLOAD PUSH4 0x23B872DD PUSH1 0xE0 SHL DUP2 MSTORE CALLER PUSH1 0x4 DUP3 ADD MSTORE ADDRESS PUSH1 0x24 DUP3 ADD MSTORE PUSH1 0x44 DUP2 ADD DUP5 SWAP1 MSTORE PUSH1 0x1 PUSH1 0x1 PUSH1 0xA0 SHL SUB DUP6 AND SWAP1 PUSH4 0x23B872DD SWAP1 PUSH1 0x64 ADD PUSH1 0x20 PUSH1 0x40 MLOAD DUP1 DUP4 SUB DUP2 PUSH1 0x0 DUP8 GAS CALL ISZERO DUP1 ISZERO PUSH2 0xB5D JUMPI RETURNDATASIZE PUSH1 0x0 DUP1 RETURNDATACOPY RETURNDATASIZE PUSH1 0x0 REVERT JUMPDEST POP POP POP POP PUSH1 0x40 MLOAD RETURNDATASIZE PUSH1 0x1F NOT PUSH1 0x1F DUP3 ADD AND DUP3 ADD DUP1 PUSH1 0x40 MSTORE POP DUP2 ADD SWAP1 PUSH2 0xB81 SWAP2 SWAP1 PUSH2 0x16F9 JUMP JUMPDEST POP PUSH1 0x1 PUSH1 0x1 PUSH1 0xA0 SHL SUB DUP5 AND PUSH1 0x0 SWAP1 DUP2 MSTORE PUSH1 0xA PUSH1 0x20 SWAP1 DUP2 MSTORE PUSH1 0x40 DUP1 DUP4 KECCAK256 CALLER DUP5 MSTORE SWAP1 SWAP2 MSTORE DUP2 KECCAK256 DUP1 SLOAD DUP6 SWAP3 SWAP1 PUSH2 0xBB5 SWAP1 DUP5 SWAP1 PUSH2 0x171B JUMP JUMPDEST SWAP3 POP POP DUP2 SWAP1 SSTORE POP DUP3 PUSH1 0xB PUSH1 0x0 DUP3 DUP3 SLOAD PUSH2 0xBCE SWAP2 SWAP1 PUSH2 0x171B JUMP JUMPDEST SWAP1 SWAP2 SSTORE POP POP PUSH1 0x1 PUSH1 0x1 PUSH1 0xA0 SHL SUB DUP5 AND PUSH1 0x0 SWAP1 DUP2 MSTORE PUSH1 0x8 PUSH1 0x20 SWAP1 DUP2 MSTORE PUSH1 0x40 DUP1 DUP4 KECCAK256 CALLER DUP5 MSTORE SWAP1 SWAP2 MSTORE SWAP1 KECCAK256 SLOAD PUSH1 0xFF AND PUSH2 0xC41 JUMPI PUSH1 0x7 DUP1 SLOAD PUSH1 0x1 DUP2 ADD DUP3 SSTORE PUSH1 0x0 SWAP2 SWAP1 SWAP2 MSTORE PUSH32 0xA66CC928B5EDB82AF9BD49922954155AB7B0942694BEA4CE44661D9A8736C688 ADD DUP1 SLOAD PUSH1 0x1 PUSH1 0x1 PUSH1 0xA0 SHL SUB NOT AND CALLER OR SWAP1 SSTORE JUMPDEST PUSH1 0x1 PUSH1 0x1 PUSH1 0xA0 SHL SUB DUP5 DUP2 AND PUSH1 0x0 DUP2 DUP2 MSTORE PUSH1 0x9 PUSH1 0x20 SWAP1 DUP2 MSTORE PUSH1 0x40 DUP1 DUP4 KECCAK256 CALLER DUP1 DUP6 MSTORE SWAP1 DUP4 MSTORE DUP2 DUP5 KECCAK256 DUP1 SLOAD PUSH1 0x1 PUSH1 0xFF NOT SWAP2 DUP3 AND DUP2 OR SWAP1 SWAP3 SSTORE SWAP6 DUP6 MSTORE PUSH1 0x8 DUP5 MSTORE DUP3 DUP6 KECCAK256 DUP3 DUP7 MSTORE SWAP1 SWAP4 MSTORE SWAP3 DUP2 SWAP1 KECCAK256 DUP1 SLOAD SWAP1 SWAP5 AND SWAP1 SWAP2 OR SWAP1 SWAP3 SSTORE PUSH1 0x5 SLOAD SWAP2 MLOAD PUSH4 0x40C10F19 PUSH1 0xE0 SHL DUP2 MSTORE PUSH1 0x4 DUP2 ADD SWAP2 SWAP1 SWAP2 MSTORE PUSH1 0x24 DUP2 ADD DUP7 SWAP1 MSTORE SWAP2 AND SWAP1 PUSH4 0x40C10F19 SWAP1 PUSH1 0x44 ADD PUSH1 0x0 PUSH1 0x40 MLOAD DUP1 DUP4 SUB DUP2 PUSH1 0x0 DUP8 DUP1 EXTCODESIZE ISZERO DUP1 ISZERO PUSH2 0xCD9 JUMPI PUSH1 0x0 DUP1 REVERT JUMPDEST POP GAS CALL ISZERO DUP1 ISZERO PUSH2 0xCED JUMPI RETURNDATASIZE PUSH1 0x0 DUP1 RETURNDATACOPY RETURNDATASIZE PUSH1 0x0 REVERT JUMPDEST POP POP PUSH1 0x40 DUP1 MLOAD CALLER DUP2 MSTORE PUSH1 0x20 DUP2 ADD DUP8 SWAP1 MSTORE PUSH32 0xB9144C96C86541F6FA89C9F2F02495CCCF4B08CD6643E26D34EE00AA586558A8 SWAP4 POP ADD SWAP1 POP PUSH1 0x40 MLOAD DUP1 SWAP2 SUB SWAP1 LOG1 POP POP POP POP JUMP JUMPDEST PUSH1 0xE DUP2 DUP2 SLOAD DUP2 LT PUSH2 0x7E8 JUMPI PUSH1 0x0 DUP1 REVERT JUMPDEST PUSH1 0x0 DUP1 JUMPDEST PUSH1 0xE SLOAD DUP2 LT ISZERO PUSH2 0xD9E JUMPI CALLER PUSH1 0x1 PUSH1 0x1 PUSH1 0xA0 SHL SUB AND PUSH1 0xE DUP3 DUP2 SLOAD DUP2 LT PUSH2 0xD6C JUMPI PUSH2 0xD6C PUSH2 0x1662 JUMP JUMPDEST PUSH1 0x0 SWAP2 DUP3 MSTORE PUSH1 0x20 SWAP1 SWAP2 KECCAK256 ADD SLOAD PUSH1 0x1 PUSH1 0x1 PUSH1 0xA0 SHL SUB AND EQ ISZERO PUSH2 0xD8C JUMPI PUSH1 0x1 SWAP2 POP JUMPDEST DUP1 PUSH2 0xD96 DUP2 PUSH2 0x168E JUMP JUMPDEST SWAP2 POP POP PUSH2 0xD45 JUMP JUMPDEST POP DUP1 PUSH2 0xDBC JUMPI PUSH1 0x40 MLOAD PUSH3 0x461BCD PUSH1 0xE5 SHL DUP2 MSTORE PUSH1 0x4 ADD PUSH2 0x512 SWAP1 PUSH2 0x16A9 JUMP JUMPDEST PUSH1 0x0 DUP1 SLOAD PUSH1 0xFF AND PUSH1 0x1 DUP2 GT ISZERO PUSH2 0xDD4 JUMPI PUSH2 0xDD4 PUSH2 0x1624 JUMP JUMPDEST EQ ISZERO PUSH2 0xE1B JUMPI PUSH1 0x40 MLOAD PUSH3 0x461BCD PUSH1 0xE5 SHL DUP2 MSTORE PUSH1 0x20 PUSH1 0x4 DUP3 ADD MSTORE PUSH1 0x16 PUSH1 0x24 DUP3 ADD MSTORE PUSH22 0x7374617465206D75737420626520494E414354495645 PUSH1 0x50 SHL PUSH1 0x44 DUP3 ADD MSTORE PUSH1 0x64 ADD PUSH2 0x512 JUMP JUMPDEST PUSH1 0x0 DUP1 SLOAD DUP2 SWAP1 PUSH1 0xFF NOT AND PUSH1 0x1 DUP3 PUSH2 0x8EA JUMP JUMPDEST PUSH1 0x0 DUP1 JUMPDEST PUSH1 0xE SLOAD DUP2 LT ISZERO PUSH2 0xE8A JUMPI CALLER PUSH1 0x1 PUSH1 0x1 PUSH1 0xA0 SHL SUB AND PUSH1 0xE DUP3 DUP2 SLOAD DUP2 LT PUSH2 0xE58 JUMPI PUSH2 0xE58 PUSH2 0x1662 JUMP JUMPDEST PUSH1 0x0 SWAP2 DUP3 MSTORE PUSH1 0x20 SWAP1 SWAP2 KECCAK256 ADD SLOAD PUSH1 0x1 PUSH1 0x1 PUSH1 0xA0 SHL SUB AND EQ ISZERO PUSH2 0xE78 JUMPI PUSH1 0x1 SWAP2 POP JUMPDEST DUP1 PUSH2 0xE82 DUP2 PUSH2 0x168E JUMP JUMPDEST SWAP2 POP POP PUSH2 0xE31 JUMP JUMPDEST POP DUP1 PUSH2 0xEA8 JUMPI PUSH1 0x40 MLOAD PUSH3 0x461BCD PUSH1 0xE5 SHL DUP2 MSTORE PUSH1 0x4 ADD PUSH2 0x512 SWAP1 PUSH2 0x16A9 JUMP JUMPDEST PUSH1 0x0 DUP1 SLOAD PUSH1 0xFF AND PUSH1 0x1 DUP2 GT ISZERO PUSH2 0xEC0 JUMPI PUSH2 0xEC0 PUSH2 0x1624 JUMP JUMPDEST EQ PUSH2 0xECA JUMPI PUSH1 0x0 DUP1 REVERT JUMPDEST PUSH1 0x0 DUP3 DUP2 MSTORE PUSH1 0xD PUSH1 0x20 MSTORE PUSH1 0x40 SWAP1 KECCAK256 PUSH1 0x5 ADD SLOAD PUSH1 0xFF AND ISZERO PUSH2 0xF2C JUMPI PUSH1 0x40 MLOAD PUSH3 0x461BCD PUSH1 0xE5 SHL DUP2 MSTORE PUSH1 0x20 PUSH1 0x4 DUP3 ADD MSTORE PUSH1 0x1E PUSH1 0x24 DUP3 ADD MSTORE PUSH32 0x7472616E736665722068617320616C7265616479206265656E2073656E740000 PUSH1 0x44 DUP3 ADD MSTORE PUSH1 0x64 ADD PUSH2 0x512 JUMP JUMPDEST CALLER PUSH1 0x0 SWAP1 DUP2 MSTORE PUSH1 0xF PUSH1 0x20 SWAP1 DUP2 MSTORE PUSH1 0x40 DUP1 DUP4 KECCAK256 DUP6 DUP5 MSTORE SWAP1 SWAP2 MSTORE SWAP1 KECCAK256 SLOAD PUSH1 0xFF AND PUSH2 0xF8F JUMPI CALLER PUSH1 0x0 SWAP1 DUP2 MSTORE PUSH1 0xF PUSH1 0x20 SWAP1 DUP2 MSTORE PUSH1 0x40 DUP1 DUP4 KECCAK256 DUP6 DUP5 MSTORE DUP3 MSTORE DUP1 DUP4 KECCAK256 DUP1 SLOAD PUSH1 0xFF NOT AND PUSH1 0x1 OR SWAP1 SSTORE PUSH1 0xD SWAP1 SWAP2 MSTORE DUP2 KECCAK256 PUSH1 0x4 ADD DUP1 SLOAD SWAP2 PUSH2 0xF89 DUP4 PUSH2 0x168E JUMP JUMPDEST SWAP2 SWAP1 POP SSTORE POP JUMPDEST PUSH1 0xC SLOAD PUSH1 0x0 DUP4 DUP2 MSTORE PUSH1 0xD PUSH1 0x20 MSTORE PUSH1 0x40 SWAP1 KECCAK256 PUSH1 0x4 ADD SLOAD LT PUSH2 0x10EF JUMPI PUSH1 0x0 DUP3 DUP2 MSTORE PUSH1 0xD PUSH1 0x20 MSTORE PUSH1 0x40 SWAP1 DUP2 SWAP1 KECCAK256 PUSH1 0x5 DUP2 ADD DUP1 SLOAD PUSH1 0xFF NOT AND PUSH1 0x1 SWAP1 DUP2 OR SWAP1 SWAP2 SSTORE PUSH1 0x3 DUP3 ADD SLOAD SWAP1 DUP3 ADD SLOAD PUSH1 0x2 SWAP1 SWAP3 ADD SLOAD SWAP3 MLOAD PUSH4 0xA9059CBB PUSH1 0xE0 SHL DUP2 MSTORE PUSH1 0x1 PUSH1 0x1 PUSH1 0xA0 SHL SUB SWAP2 DUP3 AND PUSH1 0x4 DUP3 ADD DUP2 SWAP1 MSTORE PUSH1 0x24 DUP3 ADD DUP5 SWAP1 MSTORE SWAP4 SWAP2 SWAP1 SWAP2 AND SWAP1 DUP2 SWAP1 PUSH4 0xA9059CBB SWAP1 PUSH1 0x44 ADD PUSH1 0x20 PUSH1 0x40 MLOAD DUP1 DUP4 SUB DUP2 PUSH1 0x0 DUP8 GAS CALL ISZERO DUP1 ISZERO PUSH2 0x102F JUMPI RETURNDATASIZE PUSH1 0x0 DUP1 RETURNDATACOPY RETURNDATASIZE PUSH1 0x0 REVERT JUMPDEST POP POP POP POP PUSH1 0x40 MLOAD RETURNDATASIZE PUSH1 0x1F NOT PUSH1 0x1F DUP3 ADD AND DUP3 ADD DUP1 PUSH1 0x40 MSTORE POP DUP2 ADD SWAP1 PUSH2 0x1053 SWAP2 SWAP1 PUSH2 0x16F9 JUMP JUMPDEST POP PUSH1 0x1 PUSH1 0x1 PUSH1 0xA0 SHL SUB DUP1 DUP3 AND PUSH1 0x0 SWAP1 DUP2 MSTORE PUSH1 0x12 PUSH1 0x20 SWAP1 DUP2 MSTORE PUSH1 0x40 DUP1 DUP4 KECCAK256 SWAP4 DUP8 AND DUP4 MSTORE SWAP3 SWAP1 MSTORE SWAP1 DUP2 KECCAK256 DUP1 SLOAD DUP5 SWAP3 SWAP1 PUSH2 0x108B SWAP1 DUP5 SWAP1 PUSH2 0x171B JUMP JUMPDEST SWAP3 POP POP DUP2 SWAP1 SSTORE POP DUP2 PUSH1 0xB PUSH1 0x0 DUP3 DUP3 SLOAD PUSH2 0x10A4 SWAP2 SWAP1 PUSH2 0x1733 JUMP JUMPDEST SWAP1 SWAP2 SSTORE POP POP PUSH1 0x40 DUP1 MLOAD PUSH1 0x1 PUSH1 0x1 PUSH1 0xA0 SHL SUB DUP6 AND DUP2 MSTORE PUSH1 0x20 DUP2 ADD DUP5 SWAP1 MSTORE PUSH32 0x7FCF532C15F0A6DB0BD6D0E038BEA71D30D808C7D98CB3BF7268A95BF5081B65 SWAP2 ADD PUSH1 0x40 MLOAD DUP1 SWAP2 SUB SWAP1 LOG1 POP POP POP JUMPDEST POP POP JUMP JUMPDEST PUSH1 0x1 PUSH1 0x1 PUSH1 0xA0 SHL SUB DUP2 AND PUSH1 0x0 SWAP1 DUP2 MSTORE PUSH1 0x9 PUSH1 0x20 SWAP1 DUP2 MSTORE PUSH1 0x40 DUP1 DUP4 KECCAK256 CALLER DUP5 MSTORE SWAP1 SWAP2 MSTORE DUP2 KECCAK256 SLOAD PUSH1 0xFF AND ISZERO ISZERO PUSH1 0x1 EQ PUSH2 0x115C JUMPI PUSH1 0x40 MLOAD PUSH3 0x461BCD PUSH1 0xE5 SHL DUP2 MSTORE PUSH1 0x20 PUSH1 0x4 DUP3 ADD MSTORE PUSH1 0xE PUSH1 0x24 DUP3 ADD MSTORE PUSH14 0x696E766573746F7273206F6E6C79 PUSH1 0x90 SHL PUSH1 0x44 DUP3 ADD MSTORE PUSH1 0x64 ADD PUSH2 0x512 JUMP JUMPDEST PUSH1 0x1 PUSH1 0x1 PUSH1 0xA0 SHL SUB DUP3 AND PUSH1 0x0 SWAP1 DUP2 MSTORE PUSH1 0xA PUSH1 0x20 SWAP1 DUP2 MSTORE PUSH1 0x40 DUP1 DUP4 KECCAK256 CALLER DUP5 MSTORE SWAP1 SWAP2 MSTORE DUP2 KECCAK256 SLOAD PUSH1 0x3 SLOAD PUSH1 0x1 SLOAD SWAP2 SWAP3 SWAP2 PUSH2 0x1192 SWAP2 PUSH2 0x1504 JUMP JUMPDEST SWAP1 POP PUSH1 0x0 PUSH2 0x11B0 PUSH4 0x1E13380 PUSH2 0x11AA DUP5 PUSH2 0x2710 PUSH2 0x1517 JUMP JUMPDEST SWAP1 PUSH2 0x1523 JUMP JUMPDEST SWAP1 POP PUSH1 0x0 PUSH2 0x11C9 PUSH1 0x3 SLOAD TIMESTAMP PUSH2 0x1504 SWAP1 SWAP2 SWAP1 PUSH4 0xFFFFFFFF AND JUMP JUMPDEST SWAP1 POP PUSH1 0x0 PUSH2 0x11E1 PUSH4 0x1E13380 PUSH2 0x11AA DUP5 PUSH2 0x2710 PUSH2 0x1517 JUMP JUMPDEST SWAP1 POP PUSH1 0x0 PUSH2 0x120C PUSH4 0x5F5E100 PUSH2 0x11AA DUP7 PUSH2 0x1206 DUP11 PUSH1 0x2 SLOAD PUSH2 0x1517 SWAP1 SWAP2 SWAP1 PUSH4 0xFFFFFFFF AND JUMP JUMPDEST SWAP1 PUSH2 0x1517 JUMP JUMPDEST SWAP1 POP PUSH1 0x0 PUSH2 0x1231 PUSH4 0x5F5E100 PUSH2 0x11AA DUP6 PUSH2 0x1206 DUP12 PUSH1 0x2 SLOAD PUSH2 0x1517 SWAP1 SWAP2 SWAP1 PUSH4 0xFFFFFFFF AND JUMP JUMPDEST SWAP1 POP PUSH1 0x1 SLOAD TIMESTAMP LT ISZERO PUSH2 0x1243 JUMPI DUP1 PUSH2 0x1245 JUMP JUMPDEST DUP2 JUMPDEST SWAP10 SWAP9 POP POP POP POP POP POP POP POP POP JUMP JUMPDEST PUSH1 0x10 DUP2 DUP2 SLOAD DUP2 LT PUSH2 0x7E8 JUMPI PUSH1 0x0 DUP1 REVERT JUMPDEST PUSH1 0x0 DUP1 SLOAD PUSH1 0xFF AND PUSH1 0x1 DUP2 GT ISZERO PUSH2 0x127A JUMPI PUSH2 0x127A PUSH2 0x1624 JUMP JUMPDEST EQ PUSH2 0x1284 JUMPI PUSH1 0x0 DUP1 REVERT JUMPDEST PUSH1 0x1 SLOAD TIMESTAMP LT ISZERO PUSH2 0x12D6 JUMPI PUSH1 0x40 MLOAD PUSH3 0x461BCD PUSH1 0xE5 SHL DUP2 MSTORE PUSH1 0x20 PUSH1 0x4 DUP3 ADD MSTORE PUSH1 0x1D PUSH1 0x24 DUP3 ADD MSTORE PUSH32 0x646561646C696E6520686173206E6F74206265656E2072656163686564000000 PUSH1 0x44 DUP3 ADD MSTORE PUSH1 0x64 ADD PUSH2 0x512 JUMP JUMPDEST PUSH1 0x1 PUSH1 0x1 PUSH1 0xA0 SHL SUB DUP3 AND PUSH1 0x0 SWAP1 DUP2 MSTORE PUSH1 0xA PUSH1 0x20 SWAP1 DUP2 MSTORE PUSH1 0x40 DUP1 DUP4 KECCAK256 CALLER DUP5 MSTORE SWAP1 SWAP2 MSTORE SWAP1 KECCAK256 SLOAD DUP2 DUP2 LT ISZERO PUSH2 0x134A JUMPI PUSH1 0x40 MLOAD PUSH3 0x461BCD PUSH1 0xE5 SHL DUP2 MSTORE PUSH1 0x20 PUSH1 0x4 DUP3 ADD MSTORE PUSH1 0x1D PUSH1 0x24 DUP3 ADD MSTORE PUSH32 0x696E73756666696369656E7420696E766573746F722062616C616E6365000000 PUSH1 0x44 DUP3 ADD MSTORE PUSH1 0x64 ADD PUSH2 0x512 JUMP JUMPDEST PUSH1 0x40 MLOAD PUSH4 0xA9059CBB PUSH1 0xE0 SHL DUP2 MSTORE CALLER PUSH1 0x4 DUP3 ADD MSTORE PUSH1 0x24 DUP2 ADD DUP4 SWAP1 MSTORE PUSH1 0x1 PUSH1 0x1 PUSH1 0xA0 SHL SUB DUP5 AND SWAP1 PUSH4 0xA9059CBB SWAP1 PUSH1 0x44 ADD PUSH1 0x20 PUSH1 0x40 MLOAD DUP1 DUP4 SUB DUP2 PUSH1 0x0 DUP8 GAS CALL ISZERO DUP1 ISZERO PUSH2 0x1397 JUMPI RETURNDATASIZE PUSH1 0x0 DUP1 RETURNDATACOPY RETURNDATASIZE PUSH1 0x0 REVERT JUMPDEST POP POP POP POP PUSH1 0x40 MLOAD RETURNDATASIZE PUSH1 0x1F NOT PUSH1 0x1F DUP3 ADD AND DUP3 ADD DUP1 PUSH1 0x40 MSTORE POP DUP2 ADD SWAP1 PUSH2 0x13BB SWAP2 SWAP1 PUSH2 0x16F9 JUMP JUMPDEST POP PUSH1 0x1 PUSH1 0x1 PUSH1 0xA0 SHL SUB DUP4 AND PUSH1 0x0 SWAP1 DUP2 MSTORE PUSH1 0xA PUSH1 0x20 SWAP1 DUP2 MSTORE PUSH1 0x40 DUP1 DUP4 KECCAK256 CALLER DUP5 MSTORE SWAP1 SWAP2 MSTORE DUP2 KECCAK256 DUP1 SLOAD DUP5 SWAP3 SWAP1 PUSH2 0x13EF SWAP1 DUP5 SWAP1 PUSH2 0x1733 JUMP JUMPDEST SWAP3 POP POP DUP2 SWAP1 SSTORE POP DUP2 PUSH1 0xB PUSH1 0x0 DUP3 DUP3 SLOAD PUSH2 0x1408 SWAP2 SWAP1 PUSH2 0x1733 JUMP JUMPDEST SWAP1 SWAP2 SSTORE POP POP PUSH1 0x5 SLOAD PUSH1 0x40 MLOAD PUSH4 0x2770A7EB PUSH1 0xE2 SHL DUP2 MSTORE CALLER PUSH1 0x4 DUP3 ADD MSTORE PUSH1 0x24 DUP2 ADD DUP5 SWAP1 MSTORE PUSH1 0x1 PUSH1 0x1 PUSH1 0xA0 SHL SUB SWAP1 SWAP2 AND SWAP1 PUSH4 0x9DC29FAC SWAP1 PUSH1 0x44 ADD PUSH1 0x0 PUSH1 0x40 MLOAD DUP1 DUP4 SUB DUP2 PUSH1 0x0 DUP8 DUP1 EXTCODESIZE ISZERO DUP1 ISZERO PUSH2 0x1459 JUMPI PUSH1 0x0 DUP1 REVERT JUMPDEST POP GAS CALL ISZERO DUP1 ISZERO PUSH2 0x146D JUMPI RETURNDATASIZE PUSH1 0x0 DUP1 RETURNDATACOPY RETURNDATASIZE PUSH1 0x0 REVERT JUMPDEST POP POP PUSH1 0x40 DUP1 MLOAD CALLER DUP2 MSTORE PUSH1 0x20 DUP2 ADD DUP7 SWAP1 MSTORE PUSH32 0x1011952107DD9857C3FC7EE54AAEF4F9565140A58923D80C6E15162F7D40A415 SWAP4 POP ADD SWAP1 POP PUSH1 0x40 MLOAD DUP1 SWAP2 SUB SWAP1 LOG1 PUSH1 0x1 PUSH1 0x1 PUSH1 0xA0 SHL SUB DUP4 AND PUSH1 0x0 SWAP1 DUP2 MSTORE PUSH1 0xA PUSH1 0x20 SWAP1 DUP2 MSTORE PUSH1 0x40 DUP1 DUP4 KECCAK256 CALLER DUP5 MSTORE SWAP1 SWAP2 MSTORE SWAP1 KECCAK256 SLOAD PUSH2 0x14FF JUMPI PUSH1 0x1 PUSH1 0x1 PUSH1 0xA0 SHL SUB DUP4 AND PUSH1 0x0 SWAP1 DUP2 MSTORE PUSH1 0x9 PUSH1 0x20 SWAP1 DUP2 MSTORE PUSH1 0x40 DUP1 DUP4 KECCAK256 CALLER DUP5 MSTORE SWAP1 SWAP2 MSTORE SWAP1 KECCAK256 DUP1 SLOAD PUSH1 0xFF NOT AND SWAP1 SSTORE JUMPDEST POP POP POP JUMP JUMPDEST PUSH1 0x0 PUSH2 0x1510 DUP3 DUP5 PUSH2 0x1733 JUMP JUMPDEST SWAP4 SWAP3 POP POP POP JUMP JUMPDEST PUSH1 0x0 PUSH2 0x1510 DUP3 DUP5 PUSH2 0x174A JUMP JUMPDEST PUSH1 0x0 PUSH2 0x1510 DUP3 DUP5 PUSH2 0x1769 JUMP JUMPDEST PUSH1 0x1 PUSH1 0x1 PUSH1 0xA0 SHL SUB DUP2 AND DUP2 EQ PUSH2 0x1544 JUMPI PUSH1 0x0 DUP1 REVERT JUMPDEST POP JUMP JUMPDEST PUSH1 0x0 DUP1 PUSH1 0x0 PUSH1 0x60 DUP5 DUP7 SUB SLT ISZERO PUSH2 0x155C JUMPI PUSH1 0x0 DUP1 REVERT JUMPDEST DUP4 CALLDATALOAD SWAP3 POP PUSH1 0x20 DUP5 ADD CALLDATALOAD PUSH2 0x156E DUP2 PUSH2 0x152F JUMP JUMPDEST SWAP2 POP PUSH1 0x40 DUP5 ADD CALLDATALOAD PUSH2 0x157E DUP2 PUSH2 0x152F JUMP JUMPDEST DUP1 SWAP2 POP POP SWAP3 POP SWAP3 POP SWAP3 JUMP JUMPDEST PUSH1 0x0 PUSH1 0x20 DUP3 DUP5 SUB SLT ISZERO PUSH2 0x159B JUMPI PUSH1 0x0 DUP1 REVERT JUMPDEST POP CALLDATALOAD SWAP2 SWAP1 POP JUMP JUMPDEST PUSH1 0x0 DUP1 PUSH1 0x40 DUP4 DUP6 SUB SLT ISZERO PUSH2 0x15B5 JUMPI PUSH1 0x0 DUP1 REVERT JUMPDEST DUP3 CALLDATALOAD PUSH2 0x15C0 DUP2 PUSH2 0x152F JUMP JUMPDEST SWAP5 PUSH1 0x20 SWAP4 SWAP1 SWAP4 ADD CALLDATALOAD SWAP4 POP POP POP JUMP JUMPDEST PUSH1 0x0 DUP1 PUSH1 0x40 DUP4 DUP6 SUB SLT ISZERO PUSH2 0x15E1 JUMPI PUSH1 0x0 DUP1 REVERT JUMPDEST DUP3 CALLDATALOAD PUSH2 0x15EC DUP2 PUSH2 0x152F JUMP JUMPDEST SWAP2 POP PUSH1 0x20 DUP4 ADD CALLDATALOAD PUSH2 0x15FC DUP2 PUSH2 0x152F JUMP JUMPDEST DUP1 SWAP2 POP POP SWAP3 POP SWAP3 SWAP1 POP JUMP JUMPDEST PUSH1 0x0 PUSH1 0x20 DUP3 DUP5 SUB SLT ISZERO PUSH2 0x1619 JUMPI PUSH1 0x0 DUP1 REVERT JUMPDEST DUP2 CALLDATALOAD PUSH2 0x1510 DUP2 PUSH2 0x152F JUMP JUMPDEST PUSH4 0x4E487B71 PUSH1 0xE0 SHL PUSH1 0x0 MSTORE PUSH1 0x21 PUSH1 0x4 MSTORE PUSH1 0x24 PUSH1 0x0 REVERT JUMPDEST PUSH1 0x20 DUP2 ADD PUSH1 0x2 DUP4 LT PUSH2 0x165C JUMPI PUSH4 0x4E487B71 PUSH1 0xE0 SHL PUSH1 0x0 MSTORE PUSH1 0x21 PUSH1 0x4 MSTORE PUSH1 0x24 PUSH1 0x0 REVERT JUMPDEST SWAP2 SWAP1 MSTORE SWAP1 JUMP JUMPDEST PUSH4 0x4E487B71 PUSH1 0xE0 SHL PUSH1 0x0 MSTORE PUSH1 0x32 PUSH1 0x4 MSTORE PUSH1 0x24 PUSH1 0x0 REVERT JUMPDEST PUSH4 0x4E487B71 PUSH1 0xE0 SHL PUSH1 0x0 MSTORE PUSH1 0x11 PUSH1 0x4 MSTORE PUSH1 0x24 PUSH1 0x0 REVERT JUMPDEST PUSH1 0x0 PUSH1 0x0 NOT DUP3 EQ ISZERO PUSH2 0x16A2 JUMPI PUSH2 0x16A2 PUSH2 0x1678 JUMP JUMPDEST POP PUSH1 0x1 ADD SWAP1 JUMP JUMPDEST PUSH1 0x20 DUP1 DUP3 MSTORE PUSH1 0x18 SWAP1 DUP3 ADD MSTORE PUSH32 0x6F6E6C7920666C6F772061646D696E7320616C6C6F7765640000000000000000 PUSH1 0x40 DUP3 ADD MSTORE PUSH1 0x60 ADD SWAP1 JUMP JUMPDEST PUSH1 0x0 PUSH1 0x20 DUP3 DUP5 SUB SLT ISZERO PUSH2 0x16F2 JUMPI PUSH1 0x0 DUP1 REVERT JUMPDEST POP MLOAD SWAP2 SWAP1 POP JUMP JUMPDEST PUSH1 0x0 PUSH1 0x20 DUP3 DUP5 SUB SLT ISZERO PUSH2 0x170B JUMPI PUSH1 0x0 DUP1 REVERT JUMPDEST DUP2 MLOAD DUP1 ISZERO ISZERO DUP2 EQ PUSH2 0x1510 JUMPI PUSH1 0x0 DUP1 REVERT JUMPDEST PUSH1 0x0 DUP3 NOT DUP3 GT ISZERO PUSH2 0x172E JUMPI PUSH2 0x172E PUSH2 0x1678 JUMP JUMPDEST POP ADD SWAP1 JUMP JUMPDEST PUSH1 0x0 DUP3 DUP3 LT ISZERO PUSH2 0x1745 JUMPI PUSH2 0x1745 PUSH2 0x1678 JUMP JUMPDEST POP SUB SWAP1 JUMP JUMPDEST PUSH1 0x0 DUP2 PUSH1 0x0 NOT DIV DUP4 GT DUP3 ISZERO ISZERO AND ISZERO PUSH2 0x1764 JUMPI PUSH2 0x1764 PUSH2 0x1678 JUMP JUMPDEST POP MUL SWAP1 JUMP JUMPDEST PUSH1 0x0 DUP3 PUSH2 0x1786 JUMPI PUSH4 0x4E487B71 PUSH1 0xE0 SHL PUSH1 0x0 MSTORE PUSH1 0x12 PUSH1 0x4 MSTORE PUSH1 0x24 PUSH1 0x0 REVERT JUMPDEST POP DIV SWAP1 JUMP INVALID LOG2 PUSH5 0x6970667358 0x22 SLT KECCAK256 TIMESTAMP DUP6 DUP16 0x24 0x23 CALLCODE 0xC9 0xD9 DUP3 SWAP14 DUP12 0x21 SELFDESTRUCT 0x21 PUSH15 0x8368B02C3D5A279E2E3345CB2CF72F 0xAC XOR PUSH5 0x736F6C6343 STOP ADDMOD SIGNEXTEND STOP CALLER ",
  "sha1": "41a1a06c5668de3eb22c80478bb6eca800a547c3",
  "source": "pragma solidity ^0.8.11;\n\n// import \"./utils/SafeMath.sol\";\n// import \"./ERC20.sol\";\n// import \"./utils/Ownable.sol\";\n\nabstract contract Context {\n    function _msgSender() internal view virtual returns (address) {\n        return msg.sender;\n    }\n\n    function _msgData() internal view virtual returns (bytes calldata) {\n        return msg.data;\n    }\n}\n\nabstract contract Ownable is Context {\n    address private _owner;\n\n    event OwnershipTransferred(address indexed previousOwner, address indexed newOwner);\n\n    /**\n     * @dev Initializes the contract setting the deployer as the initial owner.\n     */\n    constructor() {\n        _transferOwnership(_msgSender());\n    }\n\n    /**\n     * @dev Returns the address of the current owner.\n     */\n    function owner() public view virtual returns (address) {\n        return _owner;\n    }\n\n    /**\n     * @dev Throws if called by any account other than the owner.\n     */\n    modifier onlyOwner() {\n        require(owner() == _msgSender(), \"Ownable: caller is not the owner\");\n        _;\n    }\n\n    /**\n     * @dev Leaves the contract without owner. It will not be possible to call\n     * `onlyOwner` functions anymore. Can only be called by the current owner.\n     *\n     * NOTE: Renouncing ownership will leave the contract without an owner,\n     * thereby removing any functionality that is only available to the owner.\n     */\n    function renounceOwnership() public virtual onlyOwner {\n        _transferOwnership(address(0));\n    }\n\n    /**\n     * @dev Transfers ownership of the contract to a new account (`newOwner`).\n     * Can only be called by the current owner.\n     */\n    function transferOwnership(address newOwner) public virtual onlyOwner {\n        require(newOwner != address(0), \"Ownable: new owner is the zero address\");\n        _transferOwnership(newOwner);\n    }\n\n    /**\n     * @dev Transfers ownership of the contract to a new account (`newOwner`).\n     * Internal function without access restriction.\n     */\n    function _transferOwnership(address newOwner) internal virtual {\n        address oldOwner = _owner;\n        _owner = newOwner;\n        emit OwnershipTransferred(oldOwner, newOwner);\n    }\n}\n\nlibrary SafeMath {\n    /**\n     * @dev Returns the addition of two unsigned integers, with an overflow flag.\n     *\n     * _Available since v3.4._\n     */\n    function tryAdd(uint256 a, uint256 b) internal pure returns (bool, uint256) {\n        unchecked {\n            uint256 c = a + b;\n            if (c < a) return (false, 0);\n            return (true, c);\n        }\n    }\n\n    /**\n     * @dev Returns the substraction of two unsigned integers, with an overflow flag.\n     *\n     * _Available since v3.4._\n     */\n    function trySub(uint256 a, uint256 b) internal pure returns (bool, uint256) {\n        unchecked {\n            if (b > a) return (false, 0);\n            return (true, a - b);\n        }\n    }\n\n    /**\n     * @dev Returns the multiplication of two unsigned integers, with an overflow flag.\n     *\n     * _Available since v3.4._\n     */\n    function tryMul(uint256 a, uint256 b) internal pure returns (bool, uint256) {\n        unchecked {\n            // Gas optimization: this is cheaper than requiring 'a' not being zero, but the\n            // benefit is lost if 'b' is also tested.\n            // See: https://github.com/OpenZeppelin/openzeppelin-contracts/pull/522\n            if (a == 0) return (true, 0);\n            uint256 c = a * b;\n            if (c / a != b) return (false, 0);\n            return (true, c);\n        }\n    }\n\n    /**\n     * @dev Returns the division of two unsigned integers, with a division by zero flag.\n     *\n     * _Available since v3.4._\n     */\n    function tryDiv(uint256 a, uint256 b) internal pure returns (bool, uint256) {\n        unchecked {\n            if (b == 0) return (false, 0);\n            return (true, a / b);\n        }\n    }\n\n    /**\n     * @dev Returns the remainder of dividing two unsigned integers, with a division by zero flag.\n     *\n     * _Available since v3.4._\n     */\n    function tryMod(uint256 a, uint256 b) internal pure returns (bool, uint256) {\n        unchecked {\n            if (b == 0) return (false, 0);\n            return (true, a % b);\n        }\n    }\n\n    /**\n     * @dev Returns the addition of two unsigned integers, reverting on\n     * overflow.\n     *\n     * Counterpart to Solidity's `+` operator.\n     *\n     * Requirements:\n     *\n     * - Addition cannot overflow.\n     */\n    function add(uint256 a, uint256 b) internal pure returns (uint256) {\n        return a + b;\n    }\n\n    /**\n     * @dev Returns the subtraction of two unsigned integers, reverting on\n     * overflow (when the result is negative).\n     *\n     * Counterpart to Solidity's `-` operator.\n     *\n     * Requirements:\n     *\n     * - Subtraction cannot overflow.\n     */\n    function sub(uint256 a, uint256 b) internal pure returns (uint256) {\n        return a - b;\n    }\n\n    /**\n     * @dev Returns the multiplication of two unsigned integers, reverting on\n     * overflow.\n     *\n     * Counterpart to Solidity's `*` operator.\n     *\n     * Requirements:\n     *\n     * - Multiplication cannot overflow.\n     */\n    function mul(uint256 a, uint256 b) internal pure returns (uint256) {\n        return a * b;\n    }\n\n    /**\n     * @dev Returns the integer division of two unsigned integers, reverting on\n     * division by zero. The result is rounded towards zero.\n     *\n     * Counterpart to Solidity's `/` operator.\n     *\n     * Requirements:\n     *\n     * - The divisor cannot be zero.\n     */\n    function div(uint256 a, uint256 b) internal pure returns (uint256) {\n        return a / b;\n    }\n\n    /**\n     * @dev Returns the remainder of dividing two unsigned integers. (unsigned integer modulo),\n     * reverting when dividing by zero.\n     *\n     * Counterpart to Solidity's `%` operator. This function uses a `revert`\n     * opcode (which leaves remaining gas untouched) while Solidity uses an\n     * invalid opcode to revert (consuming all remaining gas).\n     *\n     * Requirements:\n     *\n     * - The divisor cannot be zero.\n     */\n    function mod(uint256 a, uint256 b) internal pure returns (uint256) {\n        return a % b;\n    }\n\n    /**\n     * @dev Returns the subtraction of two unsigned integers, reverting with custom message on\n     * overflow (when the result is negative).\n     *\n     * CAUTION: This function is deprecated because it requires allocating memory for the error\n     * message unnecessarily. For custom revert reasons use {trySub}.\n     *\n     * Counterpart to Solidity's `-` operator.\n     *\n     * Requirements:\n     *\n     * - Subtraction cannot overflow.\n     */\n    function sub(\n        uint256 a,\n        uint256 b,\n        string memory errorMessage\n    ) internal pure returns (uint256) {\n        unchecked {\n            require(b <= a, errorMessage);\n            return a - b;\n        }\n    }\n\n    /**\n     * @dev Returns the integer division of two unsigned integers, reverting with custom message on\n     * division by zero. The result is rounded towards zero.\n     *\n     * Counterpart to Solidity's `/` operator. Note: this function uses a\n     * `revert` opcode (which leaves remaining gas untouched) while Solidity\n     * uses an invalid opcode to revert (consuming all remaining gas).\n     *\n     * Requirements:\n     *\n     * - The divisor cannot be zero.\n     */\n    function div(\n        uint256 a,\n        uint256 b,\n        string memory errorMessage\n    ) internal pure returns (uint256) {\n        unchecked {\n            require(b > 0, errorMessage);\n            return a / b;\n        }\n    }\n\n    /**\n     * @dev Returns the remainder of dividing two unsigned integers. (unsigned integer modulo),\n     * reverting with custom message when dividing by zero.\n     *\n     * CAUTION: This function is deprecated because it requires allocating memory for the error\n     * message unnecessarily. For custom revert reasons use {tryMod}.\n     *\n     * Counterpart to Solidity's `%` operator. This function uses a `revert`\n     * opcode (which leaves remaining gas untouched) while Solidity uses an\n     * invalid opcode to revert (consuming all remaining gas).\n     *\n     * Requirements:\n     *\n     * - The divisor cannot be zero.\n     */\n    function mod(\n        uint256 a,\n        uint256 b,\n        string memory errorMessage\n    ) internal pure returns (uint256) {\n        unchecked {\n            require(b > 0, errorMessage);\n            return a % b;\n        }\n    }\n}\n\ninterface IERC20 {\n    /**\n     * @dev Returns the amount of tokens in existence.\n     */\n    function totalSupply() external view returns (uint256);\n\n    /**\n     * @dev Returns the amount of tokens owned by `account`.\n     */\n    function balanceOf(address account) external view returns (uint256);\n\n    /**\n     * @dev Moves `amount` tokens from the caller's account to `recipient`.\n     *\n     * Returns a boolean value indicating whether the operation succeeded.\n     *\n     * Emits a {Transfer} event.\n     */\n    function transfer(address recipient, uint256 amount) external returns (bool);\n\n    /**\n     * @dev Returns the remaining number of tokens that `spender` will be\n     * allowed to spend on behalf of `owner` through {transferFrom}. This is\n     * zero by default.\n     *\n     * This value changes when {approve} or {transferFrom} are called.\n     */\n    function allowance(address owner, address spender) external view returns (uint256);\n\n    /**\n     * @dev Sets `amount` as the allowance of `spender` over the caller's tokens.\n     *\n     * Returns a boolean value indicating whether the operation succeeded.\n     *\n     * IMPORTANT: Beware that changing an allowance with this method brings the risk\n     * that someone may use both the old and the new allowance by unfortunate\n     * transaction ordering. One possible solution to mitigate this race\n     * condition is to first reduce the spender's allowance to 0 and set the\n     * desired value afterwards:\n     * https://github.com/ethereum/EIPs/issues/20#issuecomment-263524729\n     *\n     * Emits an {Approval} event.\n     */\n    function approve(address spender, uint256 amount) external returns (bool);\n\n    /**\n     * @dev Moves `amount` tokens from `sender` to `recipient` using the\n     * allowance mechanism. `amount` is then deducted from the caller's\n     * allowance.\n     *\n     * Returns a boolean value indicating whether the operation succeeded.\n     *\n     * Emits a {Transfer} event.\n     */\n    function transferFrom(\n        address sender,\n        address recipient,\n        uint256 amount\n    ) external returns (bool);\n\n    /**\n     * @dev Emitted when `value` tokens are moved from one account (`from`) to\n     * another (`to`).\n     *\n     * Note that `value` may be zero.\n     */\n    event Transfer(address indexed from, address indexed to, uint256 value);\n\n    /**\n     * @dev Emitted when the allowance of a `spender` for an `owner` is set by\n     * a call to {approve}. `value` is the new allowance.\n     */\n    event Approval(address indexed owner, address indexed spender, uint256 value);\n}\n\n\ninterface IERC20Metadata is IERC20 {\n    /**\n     * @dev Returns the name of the token.\n     */\n    function name() external view returns (string memory);\n\n    /**\n     * @dev Returns the symbol of the token.\n     */\n    function symbol() external view returns (string memory);\n\n    /**\n     * @dev Returns the decimals places of the token.\n     */\n    function decimals() external view returns (uint8);\n}\n\ncontract ERC20 is Context, IERC20, IERC20Metadata {\n    mapping(address => uint256) private _balances;\n\n    mapping(address => mapping(address => uint256)) private _allowances;\n\n    uint256 private _totalSupply;\n\n    string private _name;\n    string private _symbol;\n\n    /**\n     * @dev Sets the values for {name} and {symbol}.\n     *\n     * The default value of {decimals} is 18. To select a different value for\n     * {decimals} you should overload it.\n     *\n     * All two of these values are immutable: they can only be set once during\n     * construction.\n     */\n    constructor(string memory name_, string memory symbol_) {\n        _name = name_;\n        _symbol = symbol_;\n    }\n\n    /**\n     * @dev Returns the name of the token.\n     */\n    function name() public view virtual override returns (string memory) {\n        return _name;\n    }\n\n    /**\n     * @dev Returns the symbol of the token, usually a shorter version of the\n     * name.\n     */\n    function symbol() public view virtual override returns (string memory) {\n        return _symbol;\n    }\n\n    /**\n     * @dev Returns the number of decimals used to get its user representation.\n     * For example, if `decimals` equals `2`, a balance of `505` tokens should\n     * be displayed to a user as `5.05` (`505 / 10 ** 2`).\n     *\n     * Tokens usually opt for a value of 18, imitating the relationship between\n     * Ether and Wei. This is the value {ERC20} uses, unless this function is\n     * overridden;\n     *\n     * NOTE: This information is only used for _display_ purposes: it in\n     * no way affects any of the arithmetic of the contract, including\n     * {IERC20-balanceOf} and {IERC20-transfer}.\n     */\n    function decimals() public view virtual override returns (uint8) {\n        return 18;\n    }\n\n    /**\n     * @dev See {IERC20-totalSupply}.\n     */\n    function totalSupply() public view virtual override returns (uint256) {\n        return _totalSupply;\n    }\n\n    /**\n     * @dev See {IERC20-balanceOf}.\n     */\n    function balanceOf(address account) public view virtual override returns (uint256) {\n        return _balances[account];\n    }\n\n    /**\n     * @dev See {IERC20-transfer}.\n     *\n     * Requirements:\n     *\n     * - `recipient` cannot be the zero address.\n     * - the caller must have a balance of at least `amount`.\n     */\n    function transfer(address recipient, uint256 amount) public virtual override returns (bool) {\n        _transfer(_msgSender(), recipient, amount);\n        return true;\n    }\n\n    /**\n     * @dev See {IERC20-allowance}.\n     */\n    function allowance(address owner, address spender) public view virtual override returns (uint256) {\n        return _allowances[owner][spender];\n    }\n\n    /**\n     * @dev See {IERC20-approve}.\n     *\n     * NOTE: If `amount` is the maximum `uint256`, the allowance is not updated on\n     * `transferFrom`. This is semantically equivalent to an infinite approval.\n     *\n     * Requirements:\n     *\n     * - `spender` cannot be the zero address.\n     */\n    function approve(address spender, uint256 amount) public virtual override returns (bool) {\n        _approve(_msgSender(), spender, amount);\n        return true;\n    }\n\n    /**\n     * @dev See {IERC20-transferFrom}.\n     *\n     * Emits an {Approval} event indicating the updated allowance. This is not\n     * required by the EIP. See the note at the beginning of {ERC20}.\n     *\n     * NOTE: Does not update the allowance if the current allowance\n     * is the maximum `uint256`.\n     *\n     * Requirements:\n     *\n     * - `sender` and `recipient` cannot be the zero address.\n     * - `sender` must have a balance of at least `amount`.\n     * - the caller must have allowance for ``sender``'s tokens of at least\n     * `amount`.\n     */\n    function transferFrom(\n        address sender,\n        address recipient,\n        uint256 amount\n    ) public virtual override returns (bool) {\n        uint256 currentAllowance = _allowances[sender][_msgSender()];\n        if (currentAllowance != type(uint256).max) {\n            require(currentAllowance >= amount, \"ERC20: transfer amount exceeds allowance\");\n            unchecked {\n                _approve(sender, _msgSender(), currentAllowance - amount);\n            }\n        }\n\n        _transfer(sender, recipient, amount);\n\n        return true;\n    }\n\n    /**\n     * @dev Atomically increases the allowance granted to `spender` by the caller.\n     *\n     * This is an alternative to {approve} that can be used as a mitigation for\n     * problems described in {IERC20-approve}.\n     *\n     * Emits an {Approval} event indicating the updated allowance.\n     *\n     * Requirements:\n     *\n     * - `spender` cannot be the zero address.\n     */\n    function increaseAllowance(address spender, uint256 addedValue) public virtual returns (bool) {\n        _approve(_msgSender(), spender, _allowances[_msgSender()][spender] + addedValue);\n        return true;\n    }\n\n    /**\n     * @dev Atomically decreases the allowance granted to `spender` by the caller.\n     *\n     * This is an alternative to {approve} that can be used as a mitigation for\n     * problems described in {IERC20-approve}.\n     *\n     * Emits an {Approval} event indicating the updated allowance.\n     *\n     * Requirements:\n     *\n     * - `spender` cannot be the zero address.\n     * - `spender` must have allowance for the caller of at least\n     * `subtractedValue`.\n     */\n    function decreaseAllowance(address spender, uint256 subtractedValue) public virtual returns (bool) {\n        uint256 currentAllowance = _allowances[_msgSender()][spender];\n        require(currentAllowance >= subtractedValue, \"ERC20: decreased allowance below zero\");\n        unchecked {\n            _approve(_msgSender(), spender, currentAllowance - subtractedValue);\n        }\n\n        return true;\n    }\n\n    /**\n     * @dev Moves `amount` of tokens from `sender` to `recipient`.\n     *\n     * This internal function is equivalent to {transfer}, and can be used to\n     * e.g. implement automatic token fees, slashing mechanisms, etc.\n     *\n     * Emits a {Transfer} event.\n     *\n     * Requirements:\n     *\n     * - `sender` cannot be the zero address.\n     * - `recipient` cannot be the zero address.\n     * - `sender` must have a balance of at least `amount`.\n     */\n    function _transfer(\n        address sender,\n        address recipient,\n        uint256 amount\n    ) internal virtual {\n        require(sender != address(0), \"ERC20: transfer from the zero address\");\n        require(recipient != address(0), \"ERC20: transfer to the zero address\");\n\n        _beforeTokenTransfer(sender, recipient, amount);\n\n        uint256 senderBalance = _balances[sender];\n        require(senderBalance >= amount, \"ERC20: transfer amount exceeds balance\");\n        unchecked {\n            _balances[sender] = senderBalance - amount;\n        }\n        _balances[recipient] += amount;\n\n        emit Transfer(sender, recipient, amount);\n\n        _afterTokenTransfer(sender, recipient, amount);\n    }\n\n    /** @dev Creates `amount` tokens and assigns them to `account`, increasing\n     * the total supply.\n     *\n     * Emits a {Transfer} event with `from` set to the zero address.\n     *\n     * Requirements:\n     *\n     * - `account` cannot be the zero address.\n     */\n    function _mint(address account, uint256 amount) internal virtual {\n        require(account != address(0), \"ERC20: mint to the zero address\");\n\n        _beforeTokenTransfer(address(0), account, amount);\n\n        _totalSupply += amount;\n        _balances[account] += amount;\n        emit Transfer(address(0), account, amount);\n\n        _afterTokenTransfer(address(0), account, amount);\n    }\n\n    /**\n     * @dev Destroys `amount` tokens from `account`, reducing the\n     * total supply.\n     *\n     * Emits a {Transfer} event with `to` set to the zero address.\n     *\n     * Requirements:\n     *\n     * - `account` cannot be the zero address.\n     * - `account` must have at least `amount` tokens.\n     */\n    function _burn(address account, uint256 amount) internal virtual {\n        require(account != address(0), \"ERC20: burn from the zero address\");\n\n        _beforeTokenTransfer(account, address(0), amount);\n\n        uint256 accountBalance = _balances[account];\n        require(accountBalance >= amount, \"ERC20: burn amount exceeds balance\");\n        unchecked {\n            _balances[account] = accountBalance - amount;\n        }\n        _totalSupply -= amount;\n\n        emit Transfer(account, address(0), amount);\n\n        _afterTokenTransfer(account, address(0), amount);\n    }\n\n    /**\n     * @dev Sets `amount` as the allowance of `spender` over the `owner` s tokens.\n     *\n     * This internal function is equivalent to `approve`, and can be used to\n     * e.g. set automatic allowances for certain subsystems, etc.\n     *\n     * Emits an {Approval} event.\n     *\n     * Requirements:\n     *\n     * - `owner` cannot be the zero address.\n     * - `spender` cannot be the zero address.\n     */\n    function _approve(\n        address owner,\n        address spender,\n        uint256 amount\n    ) internal virtual {\n        require(owner != address(0), \"ERC20: approve from the zero address\");\n        require(spender != address(0), \"ERC20: approve to the zero address\");\n\n        _allowances[owner][spender] = amount;\n        emit Approval(owner, spender, amount);\n    }\n\n    /**\n     * @dev Hook that is called before any transfer of tokens. This includes\n     * minting and burning.\n     *\n     * Calling conditions:\n     *\n     * - when `from` and `to` are both non-zero, `amount` of ``from``'s tokens\n     * will be transferred to `to`.\n     * - when `from` is zero, `amount` tokens will be minted for `to`.\n     * - when `to` is zero, `amount` of ``from``'s tokens will be burned.\n     * - `from` and `to` are never both zero.\n     *\n     * To learn more about hooks, head to xref:ROOT:extending-contracts.adoc#using-hooks[Using Hooks].\n     */\n    function _beforeTokenTransfer(\n        address from,\n        address to,\n        uint256 amount\n    ) internal virtual {}\n\n    /**\n     * @dev Hook that is called after any transfer of tokens. This includes\n     * minting and burning.\n     *\n     * Calling conditions:\n     *\n     * - when `from` and `to` are both non-zero, `amount` of ``from``'s tokens\n     * has been transferred to `to`.\n     * - when `from` is zero, `amount` tokens have been minted for `to`.\n     * - when `to` is zero, `amount` of ``from``'s tokens have been burned.\n     * - `from` and `to` are never both zero.\n     *\n     * To learn more about hooks, head to xref:ROOT:extending-contracts.adoc#using-hooks[Using Hooks].\n     */\n    function _afterTokenTransfer(\n        address from,\n        address to,\n        uint256 amount\n    ) internal virtual {}\n}\n\ncontract FlowReceiptToken is ERC20, Ownable {\n\n  constructor () ERC20 (\"Flow Receipt Token\", \"FRT\") {}\n\n  function mint(address to, uint amount) onlyOwner() external {\n    _mint(to, amount);\n  }\n\n  function burn(address from, uint amount) onlyOwner() external {\n    _burn(from, amount);\n  }\n}\n\ncontract Flow {\n  using SafeMath for uint;\n  // State Machine\n  enum State {\n    ACTIVE, // deposits and withdrawals allowed\n    INACTIVE // deposits and withdrawals not allowed\n  }\n  State public state = State.ACTIVE;\n\n  // Fund\n  uint public deadline;\n  uint public rate = 5000; // in % bp\n  uint constant secondsInYear = 365 * 24 * 60 * 60;\n  uint public start;\n  address[] public permittedStablecoins;\n  FlowReceiptToken public flowReceiptToken;\n  address public flowReceiptTokenAddress;\n  \n  // struct Share {\n  //   uint amount;\n  //   address investor;\n  //   address stable;\n  // }\n  // Investors\n  address[] public investors;\n  mapping (address => mapping (address => bool)) public hasInvested;\n  mapping (address => mapping (address => bool)) public isInvesting;\n  mapping (address => mapping (address => uint)) public investorStake;\n  uint public availableFunds;\n\n  // Multi-sig\n  uint public quorum;\n  struct Transfer {\n    uint id;\n    uint amount;\n    address stablecoin;\n    address payable to;\n    uint approvals;\n    bool sent;\n  }\n  mapping(uint => Transfer) public flowTransfers;\n  address[] public flowAdmins; // approvers\n  mapping (address => mapping (uint => bool)) public approvals;\n  address[] public flowWithdrawalAddresses;\n  uint public nextId;\n\n  // mapping (address => bool) public flowAdminsMap;\n  mapping (address => mapping (address => uint)) public flowWithdrawals;\n\n  // Events\n  event TokenMinted (\n    address to,\n    uint amt\n  );\n  event TokenBurnt (\n    address to,\n    uint amt\n  );\n  event Withdrawal (\n    address to,\n    uint amt \n  );\n  event Debug (\n    uint amt\n  );\n\n  constructor (\n    uint _quorum,\n    uint maturity,\n    address[] memory _flowAdmins,\n    address[] memory _flowWithdrawalAddresses, \n    address[] memory _permittedStablecoins)\n    {\n      require (_flowAdmins.length <= 4, \"maximum 4 admins\");\n      require (_flowAdmins.length >= 2, \"minimum 2 admins\");\n      require (_quorum >= 2, \"minimum quorum 2\");\n      require (_quorum <= 3, \"maximum quorum 3\");\n      require(maturity > 0, \"maturity must be greater than 0\");\n      require(_quorum < _flowAdmins.length, \"quorum must be less than number of flow admins\");\n      require(_flowWithdrawalAddresses.length == 2, \"must have 2 withdrawal addresses\");\n      // require that stablecoins are not address(0)\n      quorum = _quorum;\n      start = block.timestamp;\n      deadline = start + maturity * 24 * 60 * 60;\n      flowAdmins = _flowAdmins;\n      // _initFlowAdmins(_flowAdmins);\n      flowWithdrawalAddresses = _flowWithdrawalAddresses;\n      permittedStablecoins = _permittedStablecoins;\n      FlowReceiptToken _flowReceiptToken = new FlowReceiptToken();\n      flowReceiptToken = _flowReceiptToken;\n      flowReceiptTokenAddress = address(flowReceiptToken);\n  }\n\n  modifier flowAdminOnly () {\n    bool allowed = false;\n    for (uint i = 0; i < flowAdmins.length; i++) {\n      if (flowAdmins[i] == msg.sender) {\n        allowed = true;\n      }\n    }\n    require(allowed, 'only flow admins allowed');\n    _;\n  }\n\n  modifier permittedStablecoinsOnly (address _stablecoin) {\n    bool isStablePermitted = false;\n    for (uint i = 0; i < permittedStablecoins.length; i++) {\n      if (_stablecoin == permittedStablecoins[i]) {\n        isStablePermitted = true;\n      }\n    }\n    require(isStablePermitted, \"only permitted stablecoins\");\n    _;\n  }\n\n  // function _initFlowAdmins(address[] memory _flowAdmins) internal {\n  //   for (uint i = 0; i < _flowAdmins.length; i++) {\n  //     flowAdminsMap[_flowAdmins[i]] = true;\n  //   }\n  // }\n\n  // 1. Deposit Stables (Investor)\n\n  function deposit(address _stablecoin, uint _amount) permittedStablecoinsOnly(_stablecoin) public {\n    // Require State Active\n    require(state == State.ACTIVE);\n    // Require deadline passed\n    require(block.timestamp < deadline, \"deadline passed\");\n    require(_amount > 0, \"amount cannot be 0\");\n\n    require(IERC20(_stablecoin).balanceOf(msg.sender) >= _amount, \"insuffcient stablecoin balance\");\n\n    // Transfer stablecoin to this contract  \n    IERC20(_stablecoin).transferFrom(msg.sender, address(this), _amount);\n\n    // Update invested balance\n    investorStake[_stablecoin][msg.sender] += _amount;\n    // Update available funds\n    availableFunds += _amount;\n\n    // Add user to investors array *only* if they haven't invested before\n    if (!hasInvested[_stablecoin][msg.sender]) {\n      investors.push(msg.sender);\n    }\n\n    // Update investing status\n    isInvesting[_stablecoin][msg.sender] = true;\n    hasInvested[_stablecoin][msg.sender] = true;\n\n    // Mint receipt token\n    flowReceiptToken.mint(msg.sender, _amount);\n\n    emit TokenMinted(msg.sender, _amount);\n  }\n\n  // 2. Withdraw Stables (Investor)\n  \n  function withdraw(address _stablecoin, uint _amount) public {\n    // Require State Active\n    require(state == State.ACTIVE);\n    // Require deadline passed\n    require(block.timestamp >= deadline, \"deadline has not been reached\");\n\n    // Fetch investing balance\n    uint balance = investorStake[_stablecoin][msg.sender];\n\n    // Require amount greater than 0\n    require(balance >= _amount, \"insufficient investor balance\");\n\n    // transfer stablecoin\n    IERC20(_stablecoin).transfer(msg.sender, _amount);\n\n    // Update investor stake\n    investorStake[_stablecoin][msg.sender] -= _amount;\n    // Update available funds\n    availableFunds -= _amount;\n\n    // Burn receipt token\n    flowReceiptToken.burn(msg.sender, _amount);\n\n    emit TokenBurnt(msg.sender, _amount);\n\n    // Update investing status\n    if (investorStake[_stablecoin][msg.sender] == 0) {\n      isInvesting[_stablecoin][msg.sender] = false;\n    }\n\n  }\n\n    // 3a. Create Flow Admin Transfer\n  function flowCreateTransfer(\n    uint _amount,\n    address payable _to,\n    address _stablecoin)\n    external permittedStablecoinsOnly(_stablecoin) flowAdminOnly() {\n      // Require State Active\n      require(state == State.ACTIVE);\n      // Require address is listed\n      bool isWithdrawAddress = false;\n      for (uint i = 0; i < flowWithdrawalAddresses.length; i++) {\n        if (_to == flowWithdrawalAddresses[i]) {\n          isWithdrawAddress = true;\n        }\n      }\n      require(isWithdrawAddress == true, \"withdrawal address is not listed\");\n      // Require balance is greater than amount\n      IERC20 stablecoin = IERC20(_stablecoin);\n      require(stablecoin.balanceOf(address(this)) > _amount, \"insufficent stablecoin balance\");\n      flowTransfers[nextId] = Transfer(\n        nextId,\n        _amount,\n        _stablecoin,\n        _to,\n        0,\n        false\n      );\n      nextId ++;\n  }\n\n  // 3b. Send Flow Transfer\n  function flowTransferTo(uint id) flowAdminOnly() external {\n    // Require State Active\n    require(state == State.ACTIVE);\n    // require transfer has not been sent\n    require(flowTransfers[id].sent == false, 'transfer has already been sent');\n\n    if (approvals[msg.sender][id] == false) {\n      approvals[msg.sender][id] = true;\n      flowTransfers[id].approvals++;\n    }\n    // check sufficent approvals received\n    if (flowTransfers[id].approvals >= quorum) {\n      flowTransfers[id].sent = true;\n      address payable to = flowTransfers[id].to;\n      uint amount = flowTransfers[id].amount;\n\n      IERC20 stablecoin = IERC20(flowTransfers[id].stablecoin);\n      stablecoin.transfer(to, amount); // make transfer\n\n      flowWithdrawals[address(stablecoin)][to] += amount; // update total flow withdrawals\n\n      availableFunds -= amount; // Update available funds\n      emit Withdrawal(to, amount);\n\n      return;\n    }\n    // transfer stablecoin to permitted address\n    // stablecoin.transfer(_to, _amount);\n\n    // // update total flow withdrawals\n    // flowWithdrawals[_stablecoin][_to] += _amount;\n\n    // // Update available funds\n    // availableFunds -= _amount;\n\n    // emit Withdrawal(_to, _amount);\n\n  }\n\n  // 4a. Bank Deposit\n\n  // receive() payable public {\n  //   availableFunds += \n  // }\n\n  // 4. Get Accured Interest\n  function getAccruedInterest(address _stablecoin) external view returns(uint accrued) {\n    require(isInvesting[_stablecoin][msg.sender] == true, \"investors only\");\n    uint balance = investorStake[_stablecoin][msg.sender];\n    \n    uint duration = deadline.sub(start);\n    uint durationBasis = duration.mul(100 * 100).div(secondsInYear); // in % bp\n\n    uint timePassed = block.timestamp.sub(start);\n    uint timePassedBasis = timePassed.mul(100 * 100).div(secondsInYear); // in % bp\n\n    uint durationReturn = rate.mul(balance).mul(durationBasis).div(100 * 100 * 100 * 100); // in % bp\n    uint timePassedReturn = rate.mul(balance).mul(timePassedBasis).div(100 * 100 * 100 * 100); // in % bp\n\n    accrued = block.timestamp >= deadline ? durationReturn : timePassedReturn;\n\n    return accrued;\n  }\n\n  // 5. Emergency STOP\n  function flowStop() flowAdminOnly() external {\n    require(state != State.INACTIVE, \"state must be ACTIVE\");\n    state = State.INACTIVE;\n  }\n  \n  // 5. Emergency START\n  function flowRestart() flowAdminOnly() external {\n    require(state != State.ACTIVE, \"state must be INACTIVE\");\n    state = State.ACTIVE;\n  }\n\n}",
  "sourcePath": "contracts/Flow.sol",
  "type": "contract"
}